{
	"Token.sol": {
		"Token": {
			"abi": [
				{
					"inputs": [
						{
							"internalType": "string",
							"name": "symbol_",
							"type": "string"
						}
					],
					"stateMutability": "nonpayable",
					"type": "constructor"
				},
				{
					"anonymous": false,
					"inputs": [
						{
							"indexed": true,
							"internalType": "address",
							"name": "_owner",
							"type": "address"
						},
						{
							"indexed": true,
							"internalType": "address",
							"name": "_spender",
							"type": "address"
						},
						{
							"indexed": false,
							"internalType": "uint256",
							"name": "_value",
							"type": "uint256"
						}
					],
					"name": "Approval",
					"type": "event"
				},
				{
					"anonymous": false,
					"inputs": [
						{
							"indexed": true,
							"internalType": "address",
							"name": "_from",
							"type": "address"
						},
						{
							"indexed": true,
							"internalType": "address",
							"name": "_to",
							"type": "address"
						},
						{
							"indexed": false,
							"internalType": "uint256",
							"name": "_value",
							"type": "uint256"
						}
					],
					"name": "Transfer",
					"type": "event"
				},
				{
					"inputs": [
						{
							"internalType": "address",
							"name": "_owner",
							"type": "address"
						},
						{
							"internalType": "address",
							"name": "_spender",
							"type": "address"
						}
					],
					"name": "allowance",
					"outputs": [
						{
							"internalType": "uint256",
							"name": "remaining",
							"type": "uint256"
						}
					],
					"stateMutability": "view",
					"type": "function"
				},
				{
					"inputs": [
						{
							"internalType": "address",
							"name": "_spender",
							"type": "address"
						},
						{
							"internalType": "uint256",
							"name": "_value",
							"type": "uint256"
						}
					],
					"name": "approve",
					"outputs": [
						{
							"internalType": "bool",
							"name": "success",
							"type": "bool"
						}
					],
					"stateMutability": "nonpayable",
					"type": "function"
				},
				{
					"inputs": [
						{
							"internalType": "address",
							"name": "_owner",
							"type": "address"
						}
					],
					"name": "balanceOf",
					"outputs": [
						{
							"internalType": "uint256",
							"name": "balance",
							"type": "uint256"
						}
					],
					"stateMutability": "view",
					"type": "function"
				},
				{
					"inputs": [],
					"name": "decimals",
					"outputs": [
						{
							"internalType": "uint8",
							"name": "",
							"type": "uint8"
						}
					],
					"stateMutability": "view",
					"type": "function"
				},
				{
					"inputs": [
						{
							"internalType": "address",
							"name": "to",
							"type": "address"
						},
						{
							"internalType": "uint256",
							"name": "value",
							"type": "uint256"
						}
					],
					"name": "mint",
					"outputs": [],
					"stateMutability": "nonpayable",
					"type": "function"
				},
				{
					"inputs": [],
					"name": "name",
					"outputs": [
						{
							"internalType": "string",
							"name": "",
							"type": "string"
						}
					],
					"stateMutability": "view",
					"type": "function"
				},
				{
					"inputs": [],
					"name": "owner",
					"outputs": [
						{
							"internalType": "address",
							"name": "",
							"type": "address"
						}
					],
					"stateMutability": "view",
					"type": "function"
				},
				{
					"inputs": [],
					"name": "symbol",
					"outputs": [
						{
							"internalType": "string",
							"name": "",
							"type": "string"
						}
					],
					"stateMutability": "view",
					"type": "function"
				},
				{
					"inputs": [],
					"name": "totalSupply",
					"outputs": [
						{
							"internalType": "uint256",
							"name": "",
							"type": "uint256"
						}
					],
					"stateMutability": "view",
					"type": "function"
				},
				{
					"inputs": [
						{
							"internalType": "address",
							"name": "_to",
							"type": "address"
						},
						{
							"internalType": "uint256",
							"name": "_value",
							"type": "uint256"
						}
					],
					"name": "transfer",
					"outputs": [
						{
							"internalType": "bool",
							"name": "success",
							"type": "bool"
						}
					],
					"stateMutability": "nonpayable",
					"type": "function"
				},
				{
					"inputs": [
						{
							"internalType": "address",
							"name": "_from",
							"type": "address"
						},
						{
							"internalType": "address",
							"name": "_to",
							"type": "address"
						},
						{
							"internalType": "uint256",
							"name": "_value",
							"type": "uint256"
						}
					],
					"name": "transferFrom",
					"outputs": [
						{
							"internalType": "bool",
							"name": "success",
							"type": "bool"
						}
					],
					"stateMutability": "nonpayable",
					"type": "function"
				}
			],
			"devdoc": {
				"kind": "dev",
				"methods": {},
				"version": 1
			},
			"evm": {
				"assembly": "    /* \"Token.sol\":80:493  contract Token is ERC20 {... */\n  mstore(0x40, 0x80)\n    /* \"Token.sol\":234:393  constructor(string memory symbol_) ERC20(\"ETH KIP Token\", symbol_) {... */\n  callvalue\n  dup1\n  iszero\n  tag_1\n  jumpi\n  revert(0x00, 0x00)\ntag_1:\n  pop\n  mload(0x40)\n  sub(codesize, bytecodeSize)\n  dup1\n  bytecodeSize\n  dup4\n  codecopy\n  dup2\n  dup2\n  add\n  0x40\n  mstore\n  dup2\n  add\n  swap1\n  tag_2\n  swap2\n  swap1\n  tag_3\n  jump\t// in\ntag_2:\n    /* \"ERC20.sol\":369:506  constructor(string memory name_, string memory symbol_) {... */\n  mload(0x40)\n  dup1\n  0x40\n  add\n  0x40\n  mstore\n  dup1\n  0x0d\n  dup2\n  mstore\n  0x20\n  add\n  0x455448204b495020546f6b656e00000000000000000000000000000000000000\n  dup2\n  mstore\n  pop\n    /* \"Token.sol\":292:299  symbol_ */\n  dup2\n    /* \"ERC20.sol\":443:448  name_ */\n  dup2\n    /* \"ERC20.sol\":435:440  _name */\n  0x00\n    /* \"ERC20.sol\":435:448  _name = name_ */\n  swap1\n  dup2\n  tag_7\n  swap2\n  swap1\n  tag_8\n  jump\t// in\ntag_7:\n  pop\n    /* \"ERC20.sol\":468:475  symbol_ */\n  dup1\n    /* \"ERC20.sol\":458:465  _symbol */\n  0x01\n    /* \"ERC20.sol\":458:475  _symbol = symbol_ */\n  swap1\n  dup2\n  tag_9\n  swap2\n  swap1\n  tag_8\n  jump\t// in\ntag_9:\n  pop\n    /* \"ERC20.sol\":497:499  18 */\n  0x12\n    /* \"ERC20.sol\":485:494  _decimals */\n  0x02\n  0x00\n    /* \"ERC20.sol\":485:499  _decimals = 18 */\n  0x0100\n  exp\n  dup2\n  sload\n  dup2\n  0xff\n  mul\n  not\n  and\n  swap1\n  dup4\n  0xff\n  and\n  mul\n  or\n  swap1\n  sstore\n  pop\n    /* \"ERC20.sol\":369:506  constructor(string memory name_, string memory symbol_) {... */\n  pop\n  pop\n    /* \"Token.sol\":311:358  _mint(msg.sender, 1_000_000 * (10**decimals())) */\n  tag_11\n    /* \"Token.sol\":317:327  msg.sender */\n  caller\n    /* \"Token.sol\":346:356  decimals() */\n  tag_12\n    /* \"Token.sol\":346:354  decimals */\n  shl(0x20, tag_13)\n    /* \"Token.sol\":346:356  decimals() */\n  0x20\n  shr\n  jump\t// in\ntag_12:\n    /* \"Token.sol\":342:344  10 */\n  0x0a\n    /* \"Token.sol\":342:356  10**decimals() */\n  tag_14\n  swap2\n  swap1\n  tag_15\n  jump\t// in\ntag_14:\n    /* \"Token.sol\":329:338  1_000_000 */\n  0x0f4240\n    /* \"Token.sol\":329:357  1_000_000 * (10**decimals()) */\n  tag_16\n  swap2\n  swap1\n  tag_17\n  jump\t// in\ntag_16:\n    /* \"Token.sol\":311:316  _mint */\n  shl(0x20, tag_18)\n    /* \"Token.sol\":311:358  _mint(msg.sender, 1_000_000 * (10**decimals())) */\n  0x20\n  shr\n  jump\t// in\ntag_11:\n    /* \"Token.sol\":376:386  msg.sender */\n  caller\n    /* \"Token.sol\":368:373  owner */\n  0x06\n  0x00\n    /* \"Token.sol\":368:386  owner = msg.sender */\n  0x0100\n  exp\n  dup2\n  sload\n  dup2\n  0xffffffffffffffffffffffffffffffffffffffff\n  mul\n  not\n  and\n  swap1\n  dup4\n  0xffffffffffffffffffffffffffffffffffffffff\n  and\n  mul\n  or\n  swap1\n  sstore\n  pop\n    /* \"Token.sol\":234:393  constructor(string memory symbol_) ERC20(\"ETH KIP Token\", symbol_) {... */\n  pop\n    /* \"Token.sol\":80:493  contract Token is ERC20 {... */\n  jump(tag_19)\n    /* \"ERC20.sol\":818:899  function decimals() public view returns (uint8) {... */\ntag_13:\n    /* \"ERC20.sol\":859:864  uint8 */\n  0x00\n    /* \"ERC20.sol\":883:892  _decimals */\n  0x02\n  0x00\n  swap1\n  sload\n  swap1\n  0x0100\n  exp\n  swap1\n  div\n  0xff\n  and\n    /* \"ERC20.sol\":876:892  return _decimals */\n  swap1\n  pop\n    /* \"ERC20.sol\":818:899  function decimals() public view returns (uint8) {... */\n  swap1\n  jump\t// out\n    /* \"ERC20.sol\":512:634  function _mint(address to, uint256 value) internal {... */\ntag_18:\n    /* \"ERC20.sol\":591:596  value */\n  dup1\n    /* \"ERC20.sol\":573:583  _balanceOf */\n  0x04\n    /* \"ERC20.sol\":573:587  _balanceOf[to] */\n  0x00\n    /* \"ERC20.sol\":584:586  to */\n  dup5\n    /* \"ERC20.sol\":573:587  _balanceOf[to] */\n  0xffffffffffffffffffffffffffffffffffffffff\n  and\n  0xffffffffffffffffffffffffffffffffffffffff\n  and\n  dup2\n  mstore\n  0x20\n  add\n  swap1\n  dup2\n  mstore\n  0x20\n  add\n  0x00\n  keccak256\n  0x00\n    /* \"ERC20.sol\":573:596  _balanceOf[to] += value */\n  dup3\n  dup3\n  sload\n  tag_22\n  swap2\n  swap1\n  tag_23\n  jump\t// in\ntag_22:\n  swap3\n  pop\n  pop\n  dup2\n  swap1\n  sstore\n  pop\n    /* \"ERC20.sol\":622:627  value */\n  dup1\n    /* \"ERC20.sol\":606:618  _totalSupply */\n  0x03\n  0x00\n    /* \"ERC20.sol\":606:627  _totalSupply += value */\n  dup3\n  dup3\n  sload\n  tag_24\n  swap2\n  swap1\n  tag_23\n  jump\t// in\ntag_24:\n  swap3\n  pop\n  pop\n  dup2\n  swap1\n  sstore\n  pop\n    /* \"ERC20.sol\":512:634  function _mint(address to, uint256 value) internal {... */\n  pop\n  pop\n  jump\t// out\n    /* \"#utility.yul\":7:82   */\ntag_25:\n    /* \"#utility.yul\":40:46   */\n  0x00\n    /* \"#utility.yul\":73:75   */\n  0x40\n    /* \"#utility.yul\":67:76   */\n  mload\n    /* \"#utility.yul\":57:76   */\n  swap1\n  pop\n    /* \"#utility.yul\":7:82   */\n  swap1\n  jump\t// out\n    /* \"#utility.yul\":88:205   */\ntag_26:\n    /* \"#utility.yul\":197:198   */\n  0x00\n    /* \"#utility.yul\":194:195   */\n  0x00\n    /* \"#utility.yul\":187:199   */\n  revert\n    /* \"#utility.yul\":211:328   */\ntag_27:\n    /* \"#utility.yul\":320:321   */\n  0x00\n    /* \"#utility.yul\":317:318   */\n  0x00\n    /* \"#utility.yul\":310:322   */\n  revert\n    /* \"#utility.yul\":334:451   */\ntag_28:\n    /* \"#utility.yul\":443:444   */\n  0x00\n    /* \"#utility.yul\":440:441   */\n  0x00\n    /* \"#utility.yul\":433:445   */\n  revert\n    /* \"#utility.yul\":457:574   */\ntag_29:\n    /* \"#utility.yul\":566:567   */\n  0x00\n    /* \"#utility.yul\":563:564   */\n  0x00\n    /* \"#utility.yul\":556:568   */\n  revert\n    /* \"#utility.yul\":580:682   */\ntag_30:\n    /* \"#utility.yul\":621:627   */\n  0x00\n    /* \"#utility.yul\":672:674   */\n  0x1f\n    /* \"#utility.yul\":668:675   */\n  not\n    /* \"#utility.yul\":663:665   */\n  0x1f\n    /* \"#utility.yul\":656:661   */\n  dup4\n    /* \"#utility.yul\":652:666   */\n  add\n    /* \"#utility.yul\":648:676   */\n  and\n    /* \"#utility.yul\":638:676   */\n  swap1\n  pop\n    /* \"#utility.yul\":580:682   */\n  swap2\n  swap1\n  pop\n  jump\t// out\n    /* \"#utility.yul\":688:868   */\ntag_31:\n    /* \"#utility.yul\":736:813   */\n  0x4e487b7100000000000000000000000000000000000000000000000000000000\n    /* \"#utility.yul\":733:734   */\n  0x00\n    /* \"#utility.yul\":726:814   */\n  mstore\n    /* \"#utility.yul\":833:837   */\n  0x41\n    /* \"#utility.yul\":830:831   */\n  0x04\n    /* \"#utility.yul\":823:838   */\n  mstore\n    /* \"#utility.yul\":857:861   */\n  0x24\n    /* \"#utility.yul\":854:855   */\n  0x00\n    /* \"#utility.yul\":847:862   */\n  revert\n    /* \"#utility.yul\":874:1155   */\ntag_32:\n    /* \"#utility.yul\":957:984   */\n  tag_71\n    /* \"#utility.yul\":979:983   */\n  dup3\n    /* \"#utility.yul\":957:984   */\n  tag_30\n  jump\t// in\ntag_71:\n    /* \"#utility.yul\":949:955   */\n  dup2\n    /* \"#utility.yul\":945:985   */\n  add\n    /* \"#utility.yul\":1087:1093   */\n  dup2\n    /* \"#utility.yul\":1075:1085   */\n  dup2\n    /* \"#utility.yul\":1072:1094   */\n  lt\n    /* \"#utility.yul\":1051:1069   */\n  0xffffffffffffffff\n    /* \"#utility.yul\":1039:1049   */\n  dup3\n    /* \"#utility.yul\":1036:1070   */\n  gt\n    /* \"#utility.yul\":1033:1095   */\n  or\n    /* \"#utility.yul\":1030:1118   */\n  iszero\n  tag_72\n  jumpi\n    /* \"#utility.yul\":1098:1116   */\n  tag_73\n  tag_31\n  jump\t// in\ntag_73:\n    /* \"#utility.yul\":1030:1118   */\ntag_72:\n    /* \"#utility.yul\":1138:1148   */\n  dup1\n    /* \"#utility.yul\":1134:1136   */\n  0x40\n    /* \"#utility.yul\":1127:1149   */\n  mstore\n    /* \"#utility.yul\":917:1155   */\n  pop\n    /* \"#utility.yul\":874:1155   */\n  pop\n  pop\n  jump\t// out\n    /* \"#utility.yul\":1161:1290   */\ntag_33:\n    /* \"#utility.yul\":1195:1201   */\n  0x00\n    /* \"#utility.yul\":1222:1242   */\n  tag_75\n  tag_25\n  jump\t// in\ntag_75:\n    /* \"#utility.yul\":1212:1242   */\n  swap1\n  pop\n    /* \"#utility.yul\":1251:1284   */\n  tag_76\n    /* \"#utility.yul\":1279:1283   */\n  dup3\n    /* \"#utility.yul\":1271:1277   */\n  dup3\n    /* \"#utility.yul\":1251:1284   */\n  tag_32\n  jump\t// in\ntag_76:\n    /* \"#utility.yul\":1161:1290   */\n  swap2\n  swap1\n  pop\n  jump\t// out\n    /* \"#utility.yul\":1296:1604   */\ntag_34:\n    /* \"#utility.yul\":1358:1362   */\n  0x00\n    /* \"#utility.yul\":1448:1466   */\n  0xffffffffffffffff\n    /* \"#utility.yul\":1440:1446   */\n  dup3\n    /* \"#utility.yul\":1437:1467   */\n  gt\n    /* \"#utility.yul\":1434:1490   */\n  iszero\n  tag_78\n  jumpi\n    /* \"#utility.yul\":1470:1488   */\n  tag_79\n  tag_31\n  jump\t// in\ntag_79:\n    /* \"#utility.yul\":1434:1490   */\ntag_78:\n    /* \"#utility.yul\":1508:1537   */\n  tag_80\n    /* \"#utility.yul\":1530:1536   */\n  dup3\n    /* \"#utility.yul\":1508:1537   */\n  tag_30\n  jump\t// in\ntag_80:\n    /* \"#utility.yul\":1500:1537   */\n  swap1\n  pop\n    /* \"#utility.yul\":1592:1596   */\n  0x20\n    /* \"#utility.yul\":1586:1590   */\n  dup2\n    /* \"#utility.yul\":1582:1597   */\n  add\n    /* \"#utility.yul\":1574:1597   */\n  swap1\n  pop\n    /* \"#utility.yul\":1296:1604   */\n  swap2\n  swap1\n  pop\n  jump\t// out\n    /* \"#utility.yul\":1610:1749   */\ntag_35:\n    /* \"#utility.yul\":1699:1705   */\n  dup3\n    /* \"#utility.yul\":1694:1697   */\n  dup2\n    /* \"#utility.yul\":1689:1692   */\n  dup4\n    /* \"#utility.yul\":1683:1706   */\n  mcopy\n    /* \"#utility.yul\":1740:1741   */\n  0x00\n    /* \"#utility.yul\":1731:1737   */\n  dup4\n    /* \"#utility.yul\":1726:1729   */\n  dup4\n    /* \"#utility.yul\":1722:1738   */\n  add\n    /* \"#utility.yul\":1715:1742   */\n  mstore\n    /* \"#utility.yul\":1610:1749   */\n  pop\n  pop\n  pop\n  jump\t// out\n    /* \"#utility.yul\":1755:2189   */\ntag_36:\n    /* \"#utility.yul\":1844:1849   */\n  0x00\n    /* \"#utility.yul\":1869:1935   */\n  tag_83\n    /* \"#utility.yul\":1885:1934   */\n  tag_84\n    /* \"#utility.yul\":1927:1933   */\n  dup5\n    /* \"#utility.yul\":1885:1934   */\n  tag_34\n  jump\t// in\ntag_84:\n    /* \"#utility.yul\":1869:1935   */\n  tag_33\n  jump\t// in\ntag_83:\n    /* \"#utility.yul\":1860:1935   */\n  swap1\n  pop\n    /* \"#utility.yul\":1958:1964   */\n  dup3\n    /* \"#utility.yul\":1951:1956   */\n  dup2\n    /* \"#utility.yul\":1944:1965   */\n  mstore\n    /* \"#utility.yul\":1996:2000   */\n  0x20\n    /* \"#utility.yul\":1989:1994   */\n  dup2\n    /* \"#utility.yul\":1985:2001   */\n  add\n    /* \"#utility.yul\":2034:2037   */\n  dup5\n    /* \"#utility.yul\":2025:2031   */\n  dup5\n    /* \"#utility.yul\":2020:2023   */\n  dup5\n    /* \"#utility.yul\":2016:2032   */\n  add\n    /* \"#utility.yul\":2013:2038   */\n  gt\n    /* \"#utility.yul\":2010:2122   */\n  iszero\n  tag_85\n  jumpi\n    /* \"#utility.yul\":2041:2120   */\n  tag_86\n  tag_29\n  jump\t// in\ntag_86:\n    /* \"#utility.yul\":2010:2122   */\ntag_85:\n    /* \"#utility.yul\":2131:2183   */\n  tag_87\n    /* \"#utility.yul\":2176:2182   */\n  dup5\n    /* \"#utility.yul\":2171:2174   */\n  dup3\n    /* \"#utility.yul\":2166:2169   */\n  dup6\n    /* \"#utility.yul\":2131:2183   */\n  tag_35\n  jump\t// in\ntag_87:\n    /* \"#utility.yul\":1850:2189   */\n  pop\n    /* \"#utility.yul\":1755:2189   */\n  swap4\n  swap3\n  pop\n  pop\n  pop\n  jump\t// out\n    /* \"#utility.yul\":2209:2564   */\ntag_37:\n    /* \"#utility.yul\":2276:2281   */\n  0x00\n    /* \"#utility.yul\":2325:2328   */\n  dup3\n    /* \"#utility.yul\":2318:2322   */\n  0x1f\n    /* \"#utility.yul\":2310:2316   */\n  dup4\n    /* \"#utility.yul\":2306:2323   */\n  add\n    /* \"#utility.yul\":2302:2329   */\n  slt\n    /* \"#utility.yul\":2292:2414   */\n  tag_89\n  jumpi\n    /* \"#utility.yul\":2333:2412   */\n  tag_90\n  tag_28\n  jump\t// in\ntag_90:\n    /* \"#utility.yul\":2292:2414   */\ntag_89:\n    /* \"#utility.yul\":2443:2449   */\n  dup2\n    /* \"#utility.yul\":2437:2450   */\n  mload\n    /* \"#utility.yul\":2468:2558   */\n  tag_91\n    /* \"#utility.yul\":2554:2557   */\n  dup5\n    /* \"#utility.yul\":2546:2552   */\n  dup3\n    /* \"#utility.yul\":2539:2543   */\n  0x20\n    /* \"#utility.yul\":2531:2537   */\n  dup7\n    /* \"#utility.yul\":2527:2544   */\n  add\n    /* \"#utility.yul\":2468:2558   */\n  tag_36\n  jump\t// in\ntag_91:\n    /* \"#utility.yul\":2459:2558   */\n  swap2\n  pop\n    /* \"#utility.yul\":2282:2564   */\n  pop\n    /* \"#utility.yul\":2209:2564   */\n  swap3\n  swap2\n  pop\n  pop\n  jump\t// out\n    /* \"#utility.yul\":2570:3094   */\ntag_3:\n    /* \"#utility.yul\":2650:2656   */\n  0x00\n    /* \"#utility.yul\":2699:2701   */\n  0x20\n    /* \"#utility.yul\":2687:2696   */\n  dup3\n    /* \"#utility.yul\":2678:2685   */\n  dup5\n    /* \"#utility.yul\":2674:2697   */\n  sub\n    /* \"#utility.yul\":2670:2702   */\n  slt\n    /* \"#utility.yul\":2667:2786   */\n  iszero\n  tag_93\n  jumpi\n    /* \"#utility.yul\":2705:2784   */\n  tag_94\n  tag_26\n  jump\t// in\ntag_94:\n    /* \"#utility.yul\":2667:2786   */\ntag_93:\n    /* \"#utility.yul\":2846:2847   */\n  0x00\n    /* \"#utility.yul\":2835:2844   */\n  dup3\n    /* \"#utility.yul\":2831:2848   */\n  add\n    /* \"#utility.yul\":2825:2849   */\n  mload\n    /* \"#utility.yul\":2876:2894   */\n  0xffffffffffffffff\n    /* \"#utility.yul\":2868:2874   */\n  dup2\n    /* \"#utility.yul\":2865:2895   */\n  gt\n    /* \"#utility.yul\":2862:2979   */\n  iszero\n  tag_95\n  jumpi\n    /* \"#utility.yul\":2898:2977   */\n  tag_96\n  tag_27\n  jump\t// in\ntag_96:\n    /* \"#utility.yul\":2862:2979   */\ntag_95:\n    /* \"#utility.yul\":3003:3077   */\n  tag_97\n    /* \"#utility.yul\":3069:3076   */\n  dup5\n    /* \"#utility.yul\":3060:3066   */\n  dup3\n    /* \"#utility.yul\":3049:3058   */\n  dup6\n    /* \"#utility.yul\":3045:3067   */\n  add\n    /* \"#utility.yul\":3003:3077   */\n  tag_37\n  jump\t// in\ntag_97:\n    /* \"#utility.yul\":2993:3077   */\n  swap2\n  pop\n    /* \"#utility.yul\":2796:3087   */\n  pop\n    /* \"#utility.yul\":2570:3094   */\n  swap3\n  swap2\n  pop\n  pop\n  jump\t// out\n    /* \"#utility.yul\":3100:3199   */\ntag_38:\n    /* \"#utility.yul\":3152:3158   */\n  0x00\n    /* \"#utility.yul\":3186:3191   */\n  dup2\n    /* \"#utility.yul\":3180:3192   */\n  mload\n    /* \"#utility.yul\":3170:3192   */\n  swap1\n  pop\n    /* \"#utility.yul\":3100:3199   */\n  swap2\n  swap1\n  pop\n  jump\t// out\n    /* \"#utility.yul\":3205:3385   */\ntag_39:\n    /* \"#utility.yul\":3253:3330   */\n  0x4e487b7100000000000000000000000000000000000000000000000000000000\n    /* \"#utility.yul\":3250:3251   */\n  0x00\n    /* \"#utility.yul\":3243:3331   */\n  mstore\n    /* \"#utility.yul\":3350:3354   */\n  0x22\n    /* \"#utility.yul\":3347:3348   */\n  0x04\n    /* \"#utility.yul\":3340:3355   */\n  mstore\n    /* \"#utility.yul\":3374:3378   */\n  0x24\n    /* \"#utility.yul\":3371:3372   */\n  0x00\n    /* \"#utility.yul\":3364:3379   */\n  revert\n    /* \"#utility.yul\":3391:3711   */\ntag_40:\n    /* \"#utility.yul\":3435:3441   */\n  0x00\n    /* \"#utility.yul\":3472:3473   */\n  0x02\n    /* \"#utility.yul\":3466:3470   */\n  dup3\n    /* \"#utility.yul\":3462:3474   */\n  div\n    /* \"#utility.yul\":3452:3474   */\n  swap1\n  pop\n    /* \"#utility.yul\":3519:3520   */\n  0x01\n    /* \"#utility.yul\":3513:3517   */\n  dup3\n    /* \"#utility.yul\":3509:3521   */\n  and\n    /* \"#utility.yul\":3540:3558   */\n  dup1\n    /* \"#utility.yul\":3530:3611   */\n  tag_101\n  jumpi\n    /* \"#utility.yul\":3596:3600   */\n  0x7f\n    /* \"#utility.yul\":3588:3594   */\n  dup3\n    /* \"#utility.yul\":3584:3601   */\n  and\n    /* \"#utility.yul\":3574:3601   */\n  swap2\n  pop\n    /* \"#utility.yul\":3530:3611   */\ntag_101:\n    /* \"#utility.yul\":3658:3660   */\n  0x20\n    /* \"#utility.yul\":3650:3656   */\n  dup3\n    /* \"#utility.yul\":3647:3661   */\n  lt\n    /* \"#utility.yul\":3627:3645   */\n  dup2\n    /* \"#utility.yul\":3624:3662   */\n  sub\n    /* \"#utility.yul\":3621:3705   */\n  tag_102\n  jumpi\n    /* \"#utility.yul\":3677:3695   */\n  tag_103\n  tag_39\n  jump\t// in\ntag_103:\n    /* \"#utility.yul\":3621:3705   */\ntag_102:\n    /* \"#utility.yul\":3442:3711   */\n  pop\n    /* \"#utility.yul\":3391:3711   */\n  swap2\n  swap1\n  pop\n  jump\t// out\n    /* \"#utility.yul\":3717:3858   */\ntag_41:\n    /* \"#utility.yul\":3766:3770   */\n  0x00\n    /* \"#utility.yul\":3789:3792   */\n  dup2\n    /* \"#utility.yul\":3781:3792   */\n  swap1\n  pop\n    /* \"#utility.yul\":3812:3815   */\n  dup2\n    /* \"#utility.yul\":3809:3810   */\n  0x00\n    /* \"#utility.yul\":3802:3816   */\n  mstore\n    /* \"#utility.yul\":3846:3850   */\n  0x20\n    /* \"#utility.yul\":3843:3844   */\n  0x00\n    /* \"#utility.yul\":3833:3851   */\n  keccak256\n    /* \"#utility.yul\":3825:3851   */\n  swap1\n  pop\n    /* \"#utility.yul\":3717:3858   */\n  swap2\n  swap1\n  pop\n  jump\t// out\n    /* \"#utility.yul\":3864:3957   */\ntag_42:\n    /* \"#utility.yul\":3901:3907   */\n  0x00\n    /* \"#utility.yul\":3948:3950   */\n  0x20\n    /* \"#utility.yul\":3943:3945   */\n  0x1f\n    /* \"#utility.yul\":3936:3941   */\n  dup4\n    /* \"#utility.yul\":3932:3946   */\n  add\n    /* \"#utility.yul\":3928:3951   */\n  div\n    /* \"#utility.yul\":3918:3951   */\n  swap1\n  pop\n    /* \"#utility.yul\":3864:3957   */\n  swap2\n  swap1\n  pop\n  jump\t// out\n    /* \"#utility.yul\":3963:4070   */\ntag_43:\n    /* \"#utility.yul\":4007:4015   */\n  0x00\n    /* \"#utility.yul\":4057:4062   */\n  dup3\n    /* \"#utility.yul\":4051:4055   */\n  dup3\n    /* \"#utility.yul\":4047:4063   */\n  shl\n    /* \"#utility.yul\":4026:4063   */\n  swap1\n  pop\n    /* \"#utility.yul\":3963:4070   */\n  swap3\n  swap2\n  pop\n  pop\n  jump\t// out\n    /* \"#utility.yul\":4076:4469   */\ntag_44:\n    /* \"#utility.yul\":4145:4151   */\n  0x00\n    /* \"#utility.yul\":4195:4196   */\n  0x08\n    /* \"#utility.yul\":4183:4193   */\n  dup4\n    /* \"#utility.yul\":4179:4197   */\n  mul\n    /* \"#utility.yul\":4218:4315   */\n  tag_108\n    /* \"#utility.yul\":4248:4314   */\n  0xffffffffffffffffffffffffffffffffffffffffffffffffffffffffffffffff\n    /* \"#utility.yul\":4237:4246   */\n  dup3\n    /* \"#utility.yul\":4218:4315   */\n  tag_43\n  jump\t// in\ntag_108:\n    /* \"#utility.yul\":4336:4375   */\n  tag_109\n    /* \"#utility.yul\":4366:4374   */\n  dup7\n    /* \"#utility.yul\":4355:4364   */\n  dup4\n    /* \"#utility.yul\":4336:4375   */\n  tag_43\n  jump\t// in\ntag_109:\n    /* \"#utility.yul\":4324:4375   */\n  swap6\n  pop\n    /* \"#utility.yul\":4408:4412   */\n  dup1\n    /* \"#utility.yul\":4404:4413   */\n  not\n    /* \"#utility.yul\":4397:4402   */\n  dup5\n    /* \"#utility.yul\":4393:4414   */\n  and\n    /* \"#utility.yul\":4384:4414   */\n  swap4\n  pop\n    /* \"#utility.yul\":4457:4461   */\n  dup1\n    /* \"#utility.yul\":4447:4455   */\n  dup7\n    /* \"#utility.yul\":4443:4462   */\n  and\n    /* \"#utility.yul\":4436:4441   */\n  dup5\n    /* \"#utility.yul\":4433:4463   */\n  or\n    /* \"#utility.yul\":4423:4463   */\n  swap3\n  pop\n    /* \"#utility.yul\":4152:4469   */\n  pop\n  pop\n    /* \"#utility.yul\":4076:4469   */\n  swap4\n  swap3\n  pop\n  pop\n  pop\n  jump\t// out\n    /* \"#utility.yul\":4475:4552   */\ntag_45:\n    /* \"#utility.yul\":4512:4519   */\n  0x00\n    /* \"#utility.yul\":4541:4546   */\n  dup2\n    /* \"#utility.yul\":4530:4546   */\n  swap1\n  pop\n    /* \"#utility.yul\":4475:4552   */\n  swap2\n  swap1\n  pop\n  jump\t// out\n    /* \"#utility.yul\":4558:4618   */\ntag_46:\n    /* \"#utility.yul\":4586:4589   */\n  0x00\n    /* \"#utility.yul\":4607:4612   */\n  dup2\n    /* \"#utility.yul\":4600:4612   */\n  swap1\n  pop\n    /* \"#utility.yul\":4558:4618   */\n  swap2\n  swap1\n  pop\n  jump\t// out\n    /* \"#utility.yul\":4624:4766   */\ntag_47:\n    /* \"#utility.yul\":4674:4683   */\n  0x00\n    /* \"#utility.yul\":4707:4760   */\n  tag_113\n    /* \"#utility.yul\":4725:4759   */\n  tag_114\n    /* \"#utility.yul\":4734:4758   */\n  tag_115\n    /* \"#utility.yul\":4752:4757   */\n  dup5\n    /* \"#utility.yul\":4734:4758   */\n  tag_45\n  jump\t// in\ntag_115:\n    /* \"#utility.yul\":4725:4759   */\n  tag_46\n  jump\t// in\ntag_114:\n    /* \"#utility.yul\":4707:4760   */\n  tag_45\n  jump\t// in\ntag_113:\n    /* \"#utility.yul\":4694:4760   */\n  swap1\n  pop\n    /* \"#utility.yul\":4624:4766   */\n  swap2\n  swap1\n  pop\n  jump\t// out\n    /* \"#utility.yul\":4772:4847   */\ntag_48:\n    /* \"#utility.yul\":4815:4818   */\n  0x00\n    /* \"#utility.yul\":4836:4841   */\n  dup2\n    /* \"#utility.yul\":4829:4841   */\n  swap1\n  pop\n    /* \"#utility.yul\":4772:4847   */\n  swap2\n  swap1\n  pop\n  jump\t// out\n    /* \"#utility.yul\":4853:5122   */\ntag_49:\n    /* \"#utility.yul\":4963:5002   */\n  tag_118\n    /* \"#utility.yul\":4994:5001   */\n  dup4\n    /* \"#utility.yul\":4963:5002   */\n  tag_47\n  jump\t// in\ntag_118:\n    /* \"#utility.yul\":5024:5115   */\n  tag_119\n    /* \"#utility.yul\":5073:5114   */\n  tag_120\n    /* \"#utility.yul\":5097:5113   */\n  dup3\n    /* \"#utility.yul\":5073:5114   */\n  tag_48\n  jump\t// in\ntag_120:\n    /* \"#utility.yul\":5065:5071   */\n  dup5\n    /* \"#utility.yul\":5058:5062   */\n  dup5\n    /* \"#utility.yul\":5052:5063   */\n  sload\n    /* \"#utility.yul\":5024:5115   */\n  tag_44\n  jump\t// in\ntag_119:\n    /* \"#utility.yul\":5018:5022   */\n  dup3\n    /* \"#utility.yul\":5011:5116   */\n  sstore\n    /* \"#utility.yul\":4929:5122   */\n  pop\n    /* \"#utility.yul\":4853:5122   */\n  pop\n  pop\n  pop\n  jump\t// out\n    /* \"#utility.yul\":5128:5201   */\ntag_50:\n    /* \"#utility.yul\":5173:5176   */\n  0x00\n    /* \"#utility.yul\":5194:5195   */\n  0x00\n    /* \"#utility.yul\":5187:5195   */\n  swap1\n  pop\n    /* \"#utility.yul\":5128:5201   */\n  swap1\n  jump\t// out\n    /* \"#utility.yul\":5207:5396   */\ntag_51:\n    /* \"#utility.yul\":5284:5316   */\n  tag_123\n  tag_50\n  jump\t// in\ntag_123:\n    /* \"#utility.yul\":5325:5390   */\n  tag_124\n    /* \"#utility.yul\":5383:5389   */\n  dup2\n    /* \"#utility.yul\":5375:5381   */\n  dup5\n    /* \"#utility.yul\":5369:5373   */\n  dup5\n    /* \"#utility.yul\":5325:5390   */\n  tag_49\n  jump\t// in\ntag_124:\n    /* \"#utility.yul\":5260:5396   */\n  pop\n    /* \"#utility.yul\":5207:5396   */\n  pop\n  pop\n  jump\t// out\n    /* \"#utility.yul\":5402:5588   */\ntag_52:\n    /* \"#utility.yul\":5462:5582   */\ntag_126:\n    /* \"#utility.yul\":5479:5482   */\n  dup2\n    /* \"#utility.yul\":5472:5477   */\n  dup2\n    /* \"#utility.yul\":5469:5483   */\n  lt\n    /* \"#utility.yul\":5462:5582   */\n  iszero\n  tag_128\n  jumpi\n    /* \"#utility.yul\":5533:5572   */\n  tag_129\n    /* \"#utility.yul\":5570:5571   */\n  0x00\n    /* \"#utility.yul\":5563:5568   */\n  dup3\n    /* \"#utility.yul\":5533:5572   */\n  tag_51\n  jump\t// in\ntag_129:\n    /* \"#utility.yul\":5506:5507   */\n  0x01\n    /* \"#utility.yul\":5499:5504   */\n  dup2\n    /* \"#utility.yul\":5495:5508   */\n  add\n    /* \"#utility.yul\":5486:5508   */\n  swap1\n  pop\n    /* \"#utility.yul\":5462:5582   */\n  jump(tag_126)\ntag_128:\n    /* \"#utility.yul\":5402:5588   */\n  pop\n  pop\n  jump\t// out\n    /* \"#utility.yul\":5594:6137   */\ntag_53:\n    /* \"#utility.yul\":5695:5697   */\n  0x1f\n    /* \"#utility.yul\":5690:5693   */\n  dup3\n    /* \"#utility.yul\":5687:5698   */\n  gt\n    /* \"#utility.yul\":5684:6130   */\n  iszero\n  tag_131\n  jumpi\n    /* \"#utility.yul\":5729:5767   */\n  tag_132\n    /* \"#utility.yul\":5761:5766   */\n  dup2\n    /* \"#utility.yul\":5729:5767   */\n  tag_41\n  jump\t// in\ntag_132:\n    /* \"#utility.yul\":5813:5842   */\n  tag_133\n    /* \"#utility.yul\":5831:5841   */\n  dup5\n    /* \"#utility.yul\":5813:5842   */\n  tag_42\n  jump\t// in\ntag_133:\n    /* \"#utility.yul\":5803:5811   */\n  dup2\n    /* \"#utility.yul\":5799:5843   */\n  add\n    /* \"#utility.yul\":5996:5998   */\n  0x20\n    /* \"#utility.yul\":5984:5994   */\n  dup6\n    /* \"#utility.yul\":5981:5999   */\n  lt\n    /* \"#utility.yul\":5978:6027   */\n  iszero\n  tag_134\n  jumpi\n    /* \"#utility.yul\":6017:6025   */\n  dup2\n    /* \"#utility.yul\":6002:6025   */\n  swap1\n  pop\n    /* \"#utility.yul\":5978:6027   */\ntag_134:\n    /* \"#utility.yul\":6040:6120   */\n  tag_135\n    /* \"#utility.yul\":6096:6118   */\n  tag_136\n    /* \"#utility.yul\":6114:6117   */\n  dup6\n    /* \"#utility.yul\":6096:6118   */\n  tag_42\n  jump\t// in\ntag_136:\n    /* \"#utility.yul\":6086:6094   */\n  dup4\n    /* \"#utility.yul\":6082:6119   */\n  add\n    /* \"#utility.yul\":6069:6080   */\n  dup3\n    /* \"#utility.yul\":6040:6120   */\n  tag_52\n  jump\t// in\ntag_135:\n    /* \"#utility.yul\":5699:6130   */\n  pop\n  pop\n    /* \"#utility.yul\":5684:6130   */\ntag_131:\n    /* \"#utility.yul\":5594:6137   */\n  pop\n  pop\n  pop\n  jump\t// out\n    /* \"#utility.yul\":6143:6260   */\ntag_54:\n    /* \"#utility.yul\":6197:6205   */\n  0x00\n    /* \"#utility.yul\":6247:6252   */\n  dup3\n    /* \"#utility.yul\":6241:6245   */\n  dup3\n    /* \"#utility.yul\":6237:6253   */\n  shr\n    /* \"#utility.yul\":6216:6253   */\n  swap1\n  pop\n    /* \"#utility.yul\":6143:6260   */\n  swap3\n  swap2\n  pop\n  pop\n  jump\t// out\n    /* \"#utility.yul\":6266:6435   */\ntag_55:\n    /* \"#utility.yul\":6310:6316   */\n  0x00\n    /* \"#utility.yul\":6343:6394   */\n  tag_139\n    /* \"#utility.yul\":6391:6392   */\n  0x00\n    /* \"#utility.yul\":6387:6393   */\n  not\n    /* \"#utility.yul\":6379:6384   */\n  dup5\n    /* \"#utility.yul\":6376:6377   */\n  0x08\n    /* \"#utility.yul\":6372:6385   */\n  mul\n    /* \"#utility.yul\":6343:6394   */\n  tag_54\n  jump\t// in\ntag_139:\n    /* \"#utility.yul\":6339:6395   */\n  not\n    /* \"#utility.yul\":6424:6428   */\n  dup1\n    /* \"#utility.yul\":6418:6422   */\n  dup4\n    /* \"#utility.yul\":6414:6429   */\n  and\n    /* \"#utility.yul\":6404:6429   */\n  swap2\n  pop\n    /* \"#utility.yul\":6317:6435   */\n  pop\n    /* \"#utility.yul\":6266:6435   */\n  swap3\n  swap2\n  pop\n  pop\n  jump\t// out\n    /* \"#utility.yul\":6440:6735   */\ntag_56:\n    /* \"#utility.yul\":6516:6520   */\n  0x00\n    /* \"#utility.yul\":6662:6691   */\n  tag_141\n    /* \"#utility.yul\":6687:6690   */\n  dup4\n    /* \"#utility.yul\":6681:6685   */\n  dup4\n    /* \"#utility.yul\":6662:6691   */\n  tag_55\n  jump\t// in\ntag_141:\n    /* \"#utility.yul\":6654:6691   */\n  swap2\n  pop\n    /* \"#utility.yul\":6724:6727   */\n  dup3\n    /* \"#utility.yul\":6721:6722   */\n  0x02\n    /* \"#utility.yul\":6717:6728   */\n  mul\n    /* \"#utility.yul\":6711:6715   */\n  dup3\n    /* \"#utility.yul\":6708:6729   */\n  or\n    /* \"#utility.yul\":6700:6729   */\n  swap1\n  pop\n    /* \"#utility.yul\":6440:6735   */\n  swap3\n  swap2\n  pop\n  pop\n  jump\t// out\n    /* \"#utility.yul\":6740:8135   */\ntag_8:\n    /* \"#utility.yul\":6857:6894   */\n  tag_143\n    /* \"#utility.yul\":6890:6893   */\n  dup3\n    /* \"#utility.yul\":6857:6894   */\n  tag_38\n  jump\t// in\ntag_143:\n    /* \"#utility.yul\":6959:6977   */\n  0xffffffffffffffff\n    /* \"#utility.yul\":6951:6957   */\n  dup2\n    /* \"#utility.yul\":6948:6978   */\n  gt\n    /* \"#utility.yul\":6945:7001   */\n  iszero\n  tag_144\n  jumpi\n    /* \"#utility.yul\":6981:6999   */\n  tag_145\n  tag_31\n  jump\t// in\ntag_145:\n    /* \"#utility.yul\":6945:7001   */\ntag_144:\n    /* \"#utility.yul\":7025:7063   */\n  tag_146\n    /* \"#utility.yul\":7057:7061   */\n  dup3\n    /* \"#utility.yul\":7051:7062   */\n  sload\n    /* \"#utility.yul\":7025:7063   */\n  tag_40\n  jump\t// in\ntag_146:\n    /* \"#utility.yul\":7110:7177   */\n  tag_147\n    /* \"#utility.yul\":7170:7176   */\n  dup3\n    /* \"#utility.yul\":7162:7168   */\n  dup3\n    /* \"#utility.yul\":7156:7160   */\n  dup6\n    /* \"#utility.yul\":7110:7177   */\n  tag_53\n  jump\t// in\ntag_147:\n    /* \"#utility.yul\":7204:7205   */\n  0x00\n    /* \"#utility.yul\":7228:7232   */\n  0x20\n    /* \"#utility.yul\":7215:7232   */\n  swap1\n  pop\n    /* \"#utility.yul\":7260:7262   */\n  0x1f\n    /* \"#utility.yul\":7252:7258   */\n  dup4\n    /* \"#utility.yul\":7249:7263   */\n  gt\n    /* \"#utility.yul\":7277:7278   */\n  0x01\n    /* \"#utility.yul\":7272:7890   */\n  dup2\n  eq\n  tag_149\n  jumpi\n    /* \"#utility.yul\":7934:7935   */\n  0x00\n    /* \"#utility.yul\":7951:7957   */\n  dup5\n    /* \"#utility.yul\":7948:8025   */\n  iszero\n  tag_150\n  jumpi\n    /* \"#utility.yul\":8000:8009   */\n  dup3\n    /* \"#utility.yul\":7995:7998   */\n  dup8\n    /* \"#utility.yul\":7991:8010   */\n  add\n    /* \"#utility.yul\":7985:8011   */\n  mload\n    /* \"#utility.yul\":7976:8011   */\n  swap1\n  pop\n    /* \"#utility.yul\":7948:8025   */\ntag_150:\n    /* \"#utility.yul\":8051:8118   */\n  tag_151\n    /* \"#utility.yul\":8111:8117   */\n  dup6\n    /* \"#utility.yul\":8104:8109   */\n  dup3\n    /* \"#utility.yul\":8051:8118   */\n  tag_56\n  jump\t// in\ntag_151:\n    /* \"#utility.yul\":8045:8049   */\n  dup7\n    /* \"#utility.yul\":8038:8119   */\n  sstore\n    /* \"#utility.yul\":7907:8129   */\n  pop\n    /* \"#utility.yul\":7242:8129   */\n  jump(tag_148)\n    /* \"#utility.yul\":7272:7890   */\ntag_149:\n    /* \"#utility.yul\":7324:7328   */\n  0x1f\n    /* \"#utility.yul\":7320:7329   */\n  not\n    /* \"#utility.yul\":7312:7318   */\n  dup5\n    /* \"#utility.yul\":7308:7330   */\n  and\n    /* \"#utility.yul\":7358:7395   */\n  tag_152\n    /* \"#utility.yul\":7390:7394   */\n  dup7\n    /* \"#utility.yul\":7358:7395   */\n  tag_41\n  jump\t// in\ntag_152:\n    /* \"#utility.yul\":7417:7418   */\n  0x00\n    /* \"#utility.yul\":7431:7639   */\ntag_153:\n    /* \"#utility.yul\":7445:7452   */\n  dup3\n    /* \"#utility.yul\":7442:7443   */\n  dup2\n    /* \"#utility.yul\":7439:7453   */\n  lt\n    /* \"#utility.yul\":7431:7639   */\n  iszero\n  tag_155\n  jumpi\n    /* \"#utility.yul\":7524:7533   */\n  dup5\n    /* \"#utility.yul\":7519:7522   */\n  dup10\n    /* \"#utility.yul\":7515:7534   */\n  add\n    /* \"#utility.yul\":7509:7535   */\n  mload\n    /* \"#utility.yul\":7501:7507   */\n  dup3\n    /* \"#utility.yul\":7494:7536   */\n  sstore\n    /* \"#utility.yul\":7575:7576   */\n  0x01\n    /* \"#utility.yul\":7567:7573   */\n  dup3\n    /* \"#utility.yul\":7563:7577   */\n  add\n    /* \"#utility.yul\":7553:7577   */\n  swap2\n  pop\n    /* \"#utility.yul\":7622:7624   */\n  0x20\n    /* \"#utility.yul\":7611:7620   */\n  dup6\n    /* \"#utility.yul\":7607:7625   */\n  add\n    /* \"#utility.yul\":7594:7625   */\n  swap5\n  pop\n    /* \"#utility.yul\":7468:7472   */\n  0x20\n    /* \"#utility.yul\":7465:7466   */\n  dup2\n    /* \"#utility.yul\":7461:7473   */\n  add\n    /* \"#utility.yul\":7456:7473   */\n  swap1\n  pop\n    /* \"#utility.yul\":7431:7639   */\n  jump(tag_153)\ntag_155:\n    /* \"#utility.yul\":7667:7673   */\n  dup7\n    /* \"#utility.yul\":7658:7665   */\n  dup4\n    /* \"#utility.yul\":7655:7674   */\n  lt\n    /* \"#utility.yul\":7652:7831   */\n  iszero\n  tag_156\n  jumpi\n    /* \"#utility.yul\":7725:7734   */\n  dup5\n    /* \"#utility.yul\":7720:7723   */\n  dup10\n    /* \"#utility.yul\":7716:7735   */\n  add\n    /* \"#utility.yul\":7710:7736   */\n  mload\n    /* \"#utility.yul\":7768:7816   */\n  tag_157\n    /* \"#utility.yul\":7810:7814   */\n  0x1f\n    /* \"#utility.yul\":7802:7808   */\n  dup10\n    /* \"#utility.yul\":7798:7815   */\n  and\n    /* \"#utility.yul\":7787:7796   */\n  dup3\n    /* \"#utility.yul\":7768:7816   */\n  tag_55\n  jump\t// in\ntag_157:\n    /* \"#utility.yul\":7760:7766   */\n  dup4\n    /* \"#utility.yul\":7753:7817   */\n  sstore\n    /* \"#utility.yul\":7675:7831   */\n  pop\n    /* \"#utility.yul\":7652:7831   */\ntag_156:\n    /* \"#utility.yul\":7877:7878   */\n  0x01\n    /* \"#utility.yul\":7873:7874   */\n  0x02\n    /* \"#utility.yul\":7865:7871   */\n  dup9\n    /* \"#utility.yul\":7861:7875   */\n  mul\n    /* \"#utility.yul\":7857:7879   */\n  add\n    /* \"#utility.yul\":7851:7855   */\n  dup9\n    /* \"#utility.yul\":7844:7880   */\n  sstore\n    /* \"#utility.yul\":7279:7890   */\n  pop\n  pop\n  pop\n    /* \"#utility.yul\":7242:8129   */\ntag_148:\n  pop\n    /* \"#utility.yul\":6832:8135   */\n  pop\n  pop\n  pop\n    /* \"#utility.yul\":6740:8135   */\n  pop\n  pop\n  jump\t// out\n    /* \"#utility.yul\":8141:8321   */\ntag_57:\n    /* \"#utility.yul\":8189:8266   */\n  0x4e487b7100000000000000000000000000000000000000000000000000000000\n    /* \"#utility.yul\":8186:8187   */\n  0x00\n    /* \"#utility.yul\":8179:8267   */\n  mstore\n    /* \"#utility.yul\":8286:8290   */\n  0x11\n    /* \"#utility.yul\":8283:8284   */\n  0x04\n    /* \"#utility.yul\":8276:8291   */\n  mstore\n    /* \"#utility.yul\":8310:8314   */\n  0x24\n    /* \"#utility.yul\":8307:8308   */\n  0x00\n    /* \"#utility.yul\":8300:8315   */\n  revert\n    /* \"#utility.yul\":8327:8429   */\ntag_58:\n    /* \"#utility.yul\":8369:8377   */\n  0x00\n    /* \"#utility.yul\":8416:8421   */\n  dup2\n    /* \"#utility.yul\":8413:8414   */\n  0x01\n    /* \"#utility.yul\":8409:8422   */\n  shr\n    /* \"#utility.yul\":8388:8422   */\n  swap1\n  pop\n    /* \"#utility.yul\":8327:8429   */\n  swap2\n  swap1\n  pop\n  jump\t// out\n    /* \"#utility.yul\":8435:9283   */\ntag_59:\n    /* \"#utility.yul\":8496:8501   */\n  0x00\n    /* \"#utility.yul\":8503:8507   */\n  0x00\n    /* \"#utility.yul\":8527:8533   */\n  dup3\n    /* \"#utility.yul\":8518:8533   */\n  swap2\n  pop\n    /* \"#utility.yul\":8551:8556   */\n  dup4\n    /* \"#utility.yul\":8542:8556   */\n  swap1\n  pop\n    /* \"#utility.yul\":8565:9277   */\ntag_161:\n    /* \"#utility.yul\":8586:8587   */\n  0x01\n    /* \"#utility.yul\":8576:8584   */\n  dup6\n    /* \"#utility.yul\":8573:8588   */\n  gt\n    /* \"#utility.yul\":8565:9277   */\n  iszero\n  tag_163\n  jumpi\n    /* \"#utility.yul\":8681:8685   */\n  dup1\n    /* \"#utility.yul\":8676:8679   */\n  dup7\n    /* \"#utility.yul\":8672:8686   */\n  div\n    /* \"#utility.yul\":8666:8670   */\n  dup2\n    /* \"#utility.yul\":8663:8687   */\n  gt\n    /* \"#utility.yul\":8660:8710   */\n  iszero\n  tag_164\n  jumpi\n    /* \"#utility.yul\":8690:8708   */\n  tag_165\n  tag_57\n  jump\t// in\ntag_165:\n    /* \"#utility.yul\":8660:8710   */\ntag_164:\n    /* \"#utility.yul\":8740:8741   */\n  0x01\n    /* \"#utility.yul\":8730:8738   */\n  dup6\n    /* \"#utility.yul\":8726:8742   */\n  and\n    /* \"#utility.yul\":8723:9174   */\n  iszero\n  tag_166\n  jumpi\n    /* \"#utility.yul\":9155:9159   */\n  dup1\n    /* \"#utility.yul\":9148:9153   */\n  dup3\n    /* \"#utility.yul\":9144:9160   */\n  mul\n    /* \"#utility.yul\":9135:9160   */\n  swap2\n  pop\n    /* \"#utility.yul\":8723:9174   */\ntag_166:\n    /* \"#utility.yul\":9205:9209   */\n  dup1\n    /* \"#utility.yul\":9199:9203   */\n  dup2\n    /* \"#utility.yul\":9195:9210   */\n  mul\n    /* \"#utility.yul\":9187:9210   */\n  swap1\n  pop\n    /* \"#utility.yul\":9235:9267   */\n  tag_167\n    /* \"#utility.yul\":9258:9266   */\n  dup6\n    /* \"#utility.yul\":9235:9267   */\n  tag_58\n  jump\t// in\ntag_167:\n    /* \"#utility.yul\":9223:9267   */\n  swap5\n  pop\n    /* \"#utility.yul\":8565:9277   */\n  jump(tag_161)\ntag_163:\n    /* \"#utility.yul\":8435:9283   */\n  swap5\n  pop\n  swap5\n  swap3\n  pop\n  pop\n  pop\n  jump\t// out\n    /* \"#utility.yul\":9289:10362   */\ntag_60:\n    /* \"#utility.yul\":9343:9348   */\n  0x00\n    /* \"#utility.yul\":9534:9542   */\n  dup3\n    /* \"#utility.yul\":9524:9564   */\n  tag_169\n  jumpi\n    /* \"#utility.yul\":9555:9556   */\n  0x01\n    /* \"#utility.yul\":9546:9556   */\n  swap1\n  pop\n    /* \"#utility.yul\":9557:9562   */\n  jump(tag_168)\n    /* \"#utility.yul\":9524:9564   */\ntag_169:\n    /* \"#utility.yul\":9583:9587   */\n  dup2\n    /* \"#utility.yul\":9573:9609   */\n  tag_170\n  jumpi\n    /* \"#utility.yul\":9600:9601   */\n  0x00\n    /* \"#utility.yul\":9591:9601   */\n  swap1\n  pop\n    /* \"#utility.yul\":9602:9607   */\n  jump(tag_168)\n    /* \"#utility.yul\":9573:9609   */\ntag_170:\n    /* \"#utility.yul\":9669:9673   */\n  dup2\n    /* \"#utility.yul\":9717:9718   */\n  0x01\n    /* \"#utility.yul\":9712:9739   */\n  dup2\n  eq\n  tag_172\n  jumpi\n    /* \"#utility.yul\":9753:9754   */\n  0x02\n    /* \"#utility.yul\":9748:9939   */\n  dup2\n  eq\n  tag_173\n  jumpi\n    /* \"#utility.yul\":9662:9939   */\n  jump(tag_171)\n    /* \"#utility.yul\":9712:9739   */\ntag_172:\n    /* \"#utility.yul\":9730:9731   */\n  0x01\n    /* \"#utility.yul\":9721:9731   */\n  swap2\n  pop\n    /* \"#utility.yul\":9732:9737   */\n  pop\n  jump(tag_168)\n    /* \"#utility.yul\":9748:9939   */\ntag_173:\n    /* \"#utility.yul\":9793:9796   */\n  0xff\n    /* \"#utility.yul\":9783:9791   */\n  dup5\n    /* \"#utility.yul\":9780:9797   */\n  gt\n    /* \"#utility.yul\":9777:9820   */\n  iszero\n  tag_174\n  jumpi\n    /* \"#utility.yul\":9800:9818   */\n  tag_175\n  tag_57\n  jump\t// in\ntag_175:\n    /* \"#utility.yul\":9777:9820   */\ntag_174:\n    /* \"#utility.yul\":9849:9857   */\n  dup4\n    /* \"#utility.yul\":9846:9847   */\n  0x02\n    /* \"#utility.yul\":9842:9858   */\n  exp\n    /* \"#utility.yul\":9833:9858   */\n  swap2\n  pop\n    /* \"#utility.yul\":9884:9887   */\n  dup5\n    /* \"#utility.yul\":9877:9882   */\n  dup3\n    /* \"#utility.yul\":9874:9888   */\n  gt\n    /* \"#utility.yul\":9871:9911   */\n  iszero\n  tag_176\n  jumpi\n    /* \"#utility.yul\":9891:9909   */\n  tag_177\n  tag_57\n  jump\t// in\ntag_177:\n    /* \"#utility.yul\":9871:9911   */\ntag_176:\n    /* \"#utility.yul\":9924:9929   */\n  pop\n  jump(tag_168)\n    /* \"#utility.yul\":9662:9939   */\ntag_171:\n  pop\n    /* \"#utility.yul\":10048:10050   */\n  0x20\n    /* \"#utility.yul\":10038:10046   */\n  dup4\n    /* \"#utility.yul\":10035:10051   */\n  lt\n    /* \"#utility.yul\":10029:10032   */\n  0x0133\n    /* \"#utility.yul\":10023:10027   */\n  dup4\n    /* \"#utility.yul\":10020:10033   */\n  lt\n    /* \"#utility.yul\":10016:10052   */\n  and\n    /* \"#utility.yul\":9998:10000   */\n  0x4e\n    /* \"#utility.yul\":9988:9996   */\n  dup5\n    /* \"#utility.yul\":9985:10001   */\n  lt\n    /* \"#utility.yul\":9980:9982   */\n  0x0b\n    /* \"#utility.yul\":9974:9978   */\n  dup5\n    /* \"#utility.yul\":9971:9983   */\n  lt\n    /* \"#utility.yul\":9967:10002   */\n  and\n    /* \"#utility.yul\":9951:10062   */\n  or\n    /* \"#utility.yul\":9948:10194   */\n  iszero\n  tag_178\n  jumpi\n    /* \"#utility.yul\":10104:10112   */\n  dup3\n    /* \"#utility.yul\":10098:10102   */\n  dup3\n    /* \"#utility.yul\":10094:10113   */\n  exp\n    /* \"#utility.yul\":10085:10113   */\n  swap1\n  pop\n    /* \"#utility.yul\":10139:10142   */\n  dup4\n    /* \"#utility.yul\":10132:10137   */\n  dup2\n    /* \"#utility.yul\":10129:10143   */\n  gt\n    /* \"#utility.yul\":10126:10166   */\n  iszero\n  tag_179\n  jumpi\n    /* \"#utility.yul\":10146:10164   */\n  tag_180\n  tag_57\n  jump\t// in\ntag_180:\n    /* \"#utility.yul\":10126:10166   */\ntag_179:\n    /* \"#utility.yul\":10179:10184   */\n  jump(tag_168)\n    /* \"#utility.yul\":9948:10194   */\ntag_178:\n    /* \"#utility.yul\":10219:10261   */\n  tag_181\n    /* \"#utility.yul\":10257:10260   */\n  dup5\n    /* \"#utility.yul\":10247:10255   */\n  dup5\n    /* \"#utility.yul\":10241:10245   */\n  dup5\n    /* \"#utility.yul\":10238:10239   */\n  0x01\n    /* \"#utility.yul\":10219:10261   */\n  tag_59\n  jump\t// in\ntag_181:\n    /* \"#utility.yul\":10204:10261   */\n  swap3\n  pop\n  swap1\n  pop\n    /* \"#utility.yul\":10293:10297   */\n  dup2\n    /* \"#utility.yul\":10288:10291   */\n  dup5\n    /* \"#utility.yul\":10284:10298   */\n  div\n    /* \"#utility.yul\":10277:10282   */\n  dup2\n    /* \"#utility.yul\":10274:10299   */\n  gt\n    /* \"#utility.yul\":10271:10322   */\n  iszero\n  tag_182\n  jumpi\n    /* \"#utility.yul\":10302:10320   */\n  tag_183\n  tag_57\n  jump\t// in\ntag_183:\n    /* \"#utility.yul\":10271:10322   */\ntag_182:\n    /* \"#utility.yul\":10351:10355   */\n  dup2\n    /* \"#utility.yul\":10344:10349   */\n  dup2\n    /* \"#utility.yul\":10340:10356   */\n  mul\n    /* \"#utility.yul\":10331:10356   */\n  swap1\n  pop\n    /* \"#utility.yul\":9289:10362   */\ntag_168:\n  swap4\n  swap3\n  pop\n  pop\n  pop\n  jump\t// out\n    /* \"#utility.yul\":10368:10454   */\ntag_61:\n    /* \"#utility.yul\":10403:10410   */\n  0x00\n    /* \"#utility.yul\":10443:10447   */\n  0xff\n    /* \"#utility.yul\":10436:10441   */\n  dup3\n    /* \"#utility.yul\":10432:10448   */\n  and\n    /* \"#utility.yul\":10421:10448   */\n  swap1\n  pop\n    /* \"#utility.yul\":10368:10454   */\n  swap2\n  swap1\n  pop\n  jump\t// out\n    /* \"#utility.yul\":10460:10741   */\ntag_15:\n    /* \"#utility.yul\":10518:10523   */\n  0x00\n    /* \"#utility.yul\":10542:10565   */\n  tag_186\n    /* \"#utility.yul\":10560:10564   */\n  dup3\n    /* \"#utility.yul\":10542:10565   */\n  tag_45\n  jump\t// in\ntag_186:\n    /* \"#utility.yul\":10534:10565   */\n  swap2\n  pop\n    /* \"#utility.yul\":10586:10611   */\n  tag_187\n    /* \"#utility.yul\":10602:10610   */\n  dup4\n    /* \"#utility.yul\":10586:10611   */\n  tag_61\n  jump\t// in\ntag_187:\n    /* \"#utility.yul\":10574:10611   */\n  swap3\n  pop\n    /* \"#utility.yul\":10630:10734   */\n  tag_188\n    /* \"#utility.yul\":10667:10733   */\n  0xffffffffffffffffffffffffffffffffffffffffffffffffffffffffffffffff\n    /* \"#utility.yul\":10657:10665   */\n  dup5\n    /* \"#utility.yul\":10651:10655   */\n  dup5\n    /* \"#utility.yul\":10630:10734   */\n  tag_60\n  jump\t// in\ntag_188:\n    /* \"#utility.yul\":10621:10734   */\n  swap1\n  pop\n    /* \"#utility.yul\":10460:10741   */\n  swap3\n  swap2\n  pop\n  pop\n  jump\t// out\n    /* \"#utility.yul\":10747:11157   */\ntag_17:\n    /* \"#utility.yul\":10787:10794   */\n  0x00\n    /* \"#utility.yul\":10810:10830   */\n  tag_190\n    /* \"#utility.yul\":10828:10829   */\n  dup3\n    /* \"#utility.yul\":10810:10830   */\n  tag_45\n  jump\t// in\ntag_190:\n    /* \"#utility.yul\":10805:10830   */\n  swap2\n  pop\n    /* \"#utility.yul\":10844:10864   */\n  tag_191\n    /* \"#utility.yul\":10862:10863   */\n  dup4\n    /* \"#utility.yul\":10844:10864   */\n  tag_45\n  jump\t// in\ntag_191:\n    /* \"#utility.yul\":10839:10864   */\n  swap3\n  pop\n    /* \"#utility.yul\":10899:10900   */\n  dup3\n    /* \"#utility.yul\":10896:10897   */\n  dup3\n    /* \"#utility.yul\":10892:10901   */\n  mul\n    /* \"#utility.yul\":10921:10951   */\n  tag_192\n    /* \"#utility.yul\":10939:10950   */\n  dup2\n    /* \"#utility.yul\":10921:10951   */\n  tag_45\n  jump\t// in\ntag_192:\n    /* \"#utility.yul\":10910:10951   */\n  swap2\n  pop\n    /* \"#utility.yul\":11100:11101   */\n  dup3\n    /* \"#utility.yul\":11091:11098   */\n  dup3\n    /* \"#utility.yul\":11087:11102   */\n  div\n    /* \"#utility.yul\":11084:11085   */\n  dup5\n    /* \"#utility.yul\":11081:11103   */\n  eq\n    /* \"#utility.yul\":11061:11062   */\n  dup4\n    /* \"#utility.yul\":11054:11063   */\n  iszero\n    /* \"#utility.yul\":11034:11117   */\n  or\n    /* \"#utility.yul\":11011:11150   */\n  tag_193\n  jumpi\n    /* \"#utility.yul\":11130:11148   */\n  tag_194\n  tag_57\n  jump\t// in\ntag_194:\n    /* \"#utility.yul\":11011:11150   */\ntag_193:\n    /* \"#utility.yul\":10795:11157   */\n  pop\n    /* \"#utility.yul\":10747:11157   */\n  swap3\n  swap2\n  pop\n  pop\n  jump\t// out\n    /* \"#utility.yul\":11163:11354   */\ntag_23:\n    /* \"#utility.yul\":11203:11206   */\n  0x00\n    /* \"#utility.yul\":11222:11242   */\n  tag_196\n    /* \"#utility.yul\":11240:11241   */\n  dup3\n    /* \"#utility.yul\":11222:11242   */\n  tag_45\n  jump\t// in\ntag_196:\n    /* \"#utility.yul\":11217:11242   */\n  swap2\n  pop\n    /* \"#utility.yul\":11256:11276   */\n  tag_197\n    /* \"#utility.yul\":11274:11275   */\n  dup4\n    /* \"#utility.yul\":11256:11276   */\n  tag_45\n  jump\t// in\ntag_197:\n    /* \"#utility.yul\":11251:11276   */\n  swap3\n  pop\n    /* \"#utility.yul\":11299:11300   */\n  dup3\n    /* \"#utility.yul\":11296:11297   */\n  dup3\n    /* \"#utility.yul\":11292:11301   */\n  add\n    /* \"#utility.yul\":11285:11301   */\n  swap1\n  pop\n    /* \"#utility.yul\":11320:11323   */\n  dup1\n    /* \"#utility.yul\":11317:11318   */\n  dup3\n    /* \"#utility.yul\":11314:11324   */\n  gt\n    /* \"#utility.yul\":11311:11347   */\n  iszero\n  tag_198\n  jumpi\n    /* \"#utility.yul\":11327:11345   */\n  tag_199\n  tag_57\n  jump\t// in\ntag_199:\n    /* \"#utility.yul\":11311:11347   */\ntag_198:\n    /* \"#utility.yul\":11163:11354   */\n  swap3\n  swap2\n  pop\n  pop\n  jump\t// out\n    /* \"Token.sol\":80:493  contract Token is ERC20 {... */\ntag_19:\n  dataSize(sub_0)\n  dup1\n  dataOffset(sub_0)\n  0x00\n  codecopy\n  0x00\n  return\nstop\n\nsub_0: assembly {\n        /* \"Token.sol\":80:493  contract Token is ERC20 {... */\n      mstore(0x40, 0x80)\n      callvalue\n      dup1\n      iszero\n      tag_1\n      jumpi\n      revert(0x00, 0x00)\n    tag_1:\n      pop\n      jumpi(tag_2, lt(calldatasize, 0x04))\n      shr(0xe0, calldataload(0x00))\n      dup1\n      0x40c10f19\n      gt\n      tag_14\n      jumpi\n      dup1\n      0x40c10f19\n      eq\n      tag_8\n      jumpi\n      dup1\n      0x70a08231\n      eq\n      tag_9\n      jumpi\n      dup1\n      0x8da5cb5b\n      eq\n      tag_10\n      jumpi\n      dup1\n      0x95d89b41\n      eq\n      tag_11\n      jumpi\n      dup1\n      0xa9059cbb\n      eq\n      tag_12\n      jumpi\n      dup1\n      0xdd62ed3e\n      eq\n      tag_13\n      jumpi\n      jump(tag_2)\n    tag_14:\n      dup1\n      0x06fdde03\n      eq\n      tag_3\n      jumpi\n      dup1\n      0x095ea7b3\n      eq\n      tag_4\n      jumpi\n      dup1\n      0x18160ddd\n      eq\n      tag_5\n      jumpi\n      dup1\n      0x23b872dd\n      eq\n      tag_6\n      jumpi\n      dup1\n      0x313ce567\n      eq\n      tag_7\n      jumpi\n    tag_2:\n      revert(0x00, 0x00)\n        /* \"ERC20.sol\":640:721  function name() public view returns (string memory) {... */\n    tag_3:\n      tag_15\n      tag_16\n      jump\t// in\n    tag_15:\n      mload(0x40)\n      tag_17\n      swap2\n      swap1\n      tag_18\n      jump\t// in\n    tag_17:\n      mload(0x40)\n      dup1\n      swap2\n      sub\n      swap1\n      return\n        /* \"ERC20.sol\":2431:2815  function approve(address _spender, uint256 _value)... */\n    tag_4:\n      tag_19\n      0x04\n      dup1\n      calldatasize\n      sub\n      dup2\n      add\n      swap1\n      tag_20\n      swap2\n      swap1\n      tag_21\n      jump\t// in\n    tag_20:\n      tag_22\n      jump\t// in\n    tag_19:\n      mload(0x40)\n      tag_23\n      swap2\n      swap1\n      tag_24\n      jump\t// in\n    tag_23:\n      mload(0x40)\n      dup1\n      swap2\n      sub\n      swap1\n      return\n        /* \"ERC20.sol\":905:994  function totalSupply() public view returns (uint256) {... */\n    tag_5:\n      tag_25\n      tag_26\n      jump\t// in\n    tag_25:\n      mload(0x40)\n      tag_27\n      swap2\n      swap1\n      tag_28\n      jump\t// in\n    tag_27:\n      mload(0x40)\n      dup1\n      swap2\n      sub\n      swap1\n      return\n        /* \"ERC20.sol\":1726:2246  function transferFrom(... */\n    tag_6:\n      tag_29\n      0x04\n      dup1\n      calldatasize\n      sub\n      dup2\n      add\n      swap1\n      tag_30\n      swap2\n      swap1\n      tag_31\n      jump\t// in\n    tag_30:\n      tag_32\n      jump\t// in\n    tag_29:\n      mload(0x40)\n      tag_33\n      swap2\n      swap1\n      tag_24\n      jump\t// in\n    tag_33:\n      mload(0x40)\n      dup1\n      swap2\n      sub\n      swap1\n      return\n        /* \"ERC20.sol\":818:899  function decimals() public view returns (uint8) {... */\n    tag_7:\n      tag_34\n      tag_35\n      jump\t// in\n    tag_34:\n      mload(0x40)\n      tag_36\n      swap2\n      swap1\n      tag_37\n      jump\t// in\n    tag_36:\n      mload(0x40)\n      dup1\n      swap2\n      sub\n      swap1\n      return\n        /* \"Token.sol\":399:491  function mint(address to, uint256 value)  public onlyOwner {... */\n    tag_8:\n      tag_38\n      0x04\n      dup1\n      calldatasize\n      sub\n      dup2\n      add\n      swap1\n      tag_39\n      swap2\n      swap1\n      tag_21\n      jump\t// in\n    tag_39:\n      tag_40\n      jump\t// in\n    tag_38:\n      stop\n        /* \"ERC20.sol\":1000:1115  function balanceOf(address _owner) public view returns (uint256 balance) {... */\n    tag_9:\n      tag_41\n      0x04\n      dup1\n      calldatasize\n      sub\n      dup2\n      add\n      swap1\n      tag_42\n      swap2\n      swap1\n      tag_43\n      jump\t// in\n    tag_42:\n      tag_44\n      jump\t// in\n    tag_41:\n      mload(0x40)\n      tag_45\n      swap2\n      swap1\n      tag_28\n      jump\t// in\n    tag_45:\n      mload(0x40)\n      dup1\n      swap2\n      sub\n      swap1\n      return\n        /* \"Token.sol\":111:131  address public owner */\n    tag_10:\n      tag_46\n      tag_47\n      jump\t// in\n    tag_46:\n      mload(0x40)\n      tag_48\n      swap2\n      swap1\n      tag_49\n      jump\t// in\n    tag_48:\n      mload(0x40)\n      dup1\n      swap2\n      sub\n      swap1\n      return\n        /* \"ERC20.sol\":727:812  function symbol() public view returns (string memory) {... */\n    tag_11:\n      tag_50\n      tag_51\n      jump\t// in\n    tag_50:\n      mload(0x40)\n      tag_52\n      swap2\n      swap1\n      tag_18\n      jump\t// in\n    tag_52:\n      mload(0x40)\n      dup1\n      swap2\n      sub\n      swap1\n      return\n        /* \"ERC20.sol\":1121:1276  function transfer(address _to, uint256 _value)... */\n    tag_12:\n      tag_53\n      0x04\n      dup1\n      calldatasize\n      sub\n      dup2\n      add\n      swap1\n      tag_54\n      swap2\n      swap1\n      tag_21\n      jump\t// in\n    tag_54:\n      tag_55\n      jump\t// in\n    tag_53:\n      mload(0x40)\n      tag_56\n      swap2\n      swap1\n      tag_24\n      jump\t// in\n    tag_56:\n      mload(0x40)\n      dup1\n      swap2\n      sub\n      swap1\n      return\n        /* \"ERC20.sol\":2252:2425  function allowance(address _owner, address _spender)... */\n    tag_13:\n      tag_57\n      0x04\n      dup1\n      calldatasize\n      sub\n      dup2\n      add\n      swap1\n      tag_58\n      swap2\n      swap1\n      tag_59\n      jump\t// in\n    tag_58:\n      tag_60\n      jump\t// in\n    tag_57:\n      mload(0x40)\n      tag_61\n      swap2\n      swap1\n      tag_28\n      jump\t// in\n    tag_61:\n      mload(0x40)\n      dup1\n      swap2\n      sub\n      swap1\n      return\n        /* \"ERC20.sol\":640:721  function name() public view returns (string memory) {... */\n    tag_16:\n        /* \"ERC20.sol\":677:690  string memory */\n      0x60\n        /* \"ERC20.sol\":709:714  _name */\n      0x00\n        /* \"ERC20.sol\":702:714  return _name */\n      dup1\n      sload\n      tag_63\n      swap1\n      tag_64\n      jump\t// in\n    tag_63:\n      dup1\n      0x1f\n      add\n      0x20\n      dup1\n      swap2\n      div\n      mul\n      0x20\n      add\n      mload(0x40)\n      swap1\n      dup2\n      add\n      0x40\n      mstore\n      dup1\n      swap3\n      swap2\n      swap1\n      dup2\n      dup2\n      mstore\n      0x20\n      add\n      dup3\n      dup1\n      sload\n      tag_65\n      swap1\n      tag_64\n      jump\t// in\n    tag_65:\n      dup1\n      iszero\n      tag_66\n      jumpi\n      dup1\n      0x1f\n      lt\n      tag_67\n      jumpi\n      0x0100\n      dup1\n      dup4\n      sload\n      div\n      mul\n      dup4\n      mstore\n      swap2\n      0x20\n      add\n      swap2\n      jump(tag_66)\n    tag_67:\n      dup3\n      add\n      swap2\n      swap1\n      0x00\n      mstore\n      keccak256(0x00, 0x20)\n      swap1\n    tag_68:\n      dup2\n      sload\n      dup2\n      mstore\n      swap1\n      0x01\n      add\n      swap1\n      0x20\n      add\n      dup1\n      dup4\n      gt\n      tag_68\n      jumpi\n      dup3\n      swap1\n      sub\n      0x1f\n      and\n      dup3\n      add\n      swap2\n    tag_66:\n      pop\n      pop\n      pop\n      pop\n      pop\n      swap1\n      pop\n        /* \"ERC20.sol\":640:721  function name() public view returns (string memory) {... */\n      swap1\n      jump\t// out\n        /* \"ERC20.sol\":2431:2815  function approve(address _spender, uint256 _value)... */\n    tag_22:\n        /* \"ERC20.sol\":2516:2528  bool success */\n      0x00\n        /* \"ERC20.sol\":2575:2576  0 */\n      0x00\n        /* \"ERC20.sol\":2565:2571  _value */\n      dup3\n        /* \"ERC20.sol\":2565:2576  _value == 0 */\n      eq\n        /* \"ERC20.sol\":2565:2617  _value == 0 || _allowance[msg.sender][_spender] == 0 */\n      dup1\n      tag_70\n      jumpi\n      pop\n        /* \"ERC20.sol\":2616:2617  0 */\n      0x00\n        /* \"ERC20.sol\":2580:2590  _allowance */\n      0x05\n        /* \"ERC20.sol\":2580:2602  _allowance[msg.sender] */\n      0x00\n        /* \"ERC20.sol\":2591:2601  msg.sender */\n      caller\n        /* \"ERC20.sol\":2580:2602  _allowance[msg.sender] */\n      0xffffffffffffffffffffffffffffffffffffffff\n      and\n      0xffffffffffffffffffffffffffffffffffffffff\n      and\n      dup2\n      mstore\n      0x20\n      add\n      swap1\n      dup2\n      mstore\n      0x20\n      add\n      0x00\n      keccak256\n        /* \"ERC20.sol\":2580:2612  _allowance[msg.sender][_spender] */\n      0x00\n        /* \"ERC20.sol\":2603:2611  _spender */\n      dup6\n        /* \"ERC20.sol\":2580:2612  _allowance[msg.sender][_spender] */\n      0xffffffffffffffffffffffffffffffffffffffff\n      and\n      0xffffffffffffffffffffffffffffffffffffffff\n      and\n      dup2\n      mstore\n      0x20\n      add\n      swap1\n      dup2\n      mstore\n      0x20\n      add\n      0x00\n      keccak256\n      sload\n        /* \"ERC20.sol\":2580:2617  _allowance[msg.sender][_spender] == 0 */\n      eq\n        /* \"ERC20.sol\":2565:2617  _value == 0 || _allowance[msg.sender][_spender] == 0 */\n    tag_70:\n        /* \"ERC20.sol\":2544:2735  require(... */\n      tag_71\n      jumpi\n      mload(0x40)\n      0x08c379a000000000000000000000000000000000000000000000000000000000\n      dup2\n      mstore\n      0x04\n      add\n      tag_72\n      swap1\n      tag_73\n      jump\t// in\n    tag_72:\n      mload(0x40)\n      dup1\n      swap2\n      sub\n      swap1\n      revert\n    tag_71:\n        /* \"ERC20.sol\":2781:2787  _value */\n      dup2\n        /* \"ERC20.sol\":2746:2756  _allowance */\n      0x05\n        /* \"ERC20.sol\":2746:2768  _allowance[msg.sender] */\n      0x00\n        /* \"ERC20.sol\":2757:2767  msg.sender */\n      caller\n        /* \"ERC20.sol\":2746:2768  _allowance[msg.sender] */\n      0xffffffffffffffffffffffffffffffffffffffff\n      and\n      0xffffffffffffffffffffffffffffffffffffffff\n      and\n      dup2\n      mstore\n      0x20\n      add\n      swap1\n      dup2\n      mstore\n      0x20\n      add\n      0x00\n      keccak256\n        /* \"ERC20.sol\":2746:2778  _allowance[msg.sender][_spender] */\n      0x00\n        /* \"ERC20.sol\":2769:2777  _spender */\n      dup6\n        /* \"ERC20.sol\":2746:2778  _allowance[msg.sender][_spender] */\n      0xffffffffffffffffffffffffffffffffffffffff\n      and\n      0xffffffffffffffffffffffffffffffffffffffff\n      and\n      dup2\n      mstore\n      0x20\n      add\n      swap1\n      dup2\n      mstore\n      0x20\n      add\n      0x00\n      keccak256\n        /* \"ERC20.sol\":2746:2787  _allowance[msg.sender][_spender] = _value */\n      dup2\n      swap1\n      sstore\n      pop\n        /* \"ERC20.sol\":2804:2808  true */\n      0x01\n        /* \"ERC20.sol\":2797:2808  return true */\n      swap1\n      pop\n        /* \"ERC20.sol\":2431:2815  function approve(address _spender, uint256 _value)... */\n      swap3\n      swap2\n      pop\n      pop\n      jump\t// out\n        /* \"ERC20.sol\":905:994  function totalSupply() public view returns (uint256) {... */\n    tag_26:\n        /* \"ERC20.sol\":949:956  uint256 */\n      0x00\n        /* \"ERC20.sol\":975:987  _totalSupply */\n      sload(0x03)\n        /* \"ERC20.sol\":968:987  return _totalSupply */\n      swap1\n      pop\n        /* \"ERC20.sol\":905:994  function totalSupply() public view returns (uint256) {... */\n      swap1\n      jump\t// out\n        /* \"ERC20.sol\":1726:2246  function transferFrom(... */\n    tag_32:\n        /* \"ERC20.sol\":1838:1850  bool success */\n      0x00\n        /* \"ERC20.sol\":2071:2077  _value */\n      dup2\n        /* \"ERC20.sol\":2038:2048  _allowance */\n      0x05\n        /* \"ERC20.sol\":2038:2055  _allowance[_from] */\n      0x00\n        /* \"ERC20.sol\":2049:2054  _from */\n      dup7\n        /* \"ERC20.sol\":2038:2055  _allowance[_from] */\n      0xffffffffffffffffffffffffffffffffffffffff\n      and\n      0xffffffffffffffffffffffffffffffffffffffff\n      and\n      dup2\n      mstore\n      0x20\n      add\n      swap1\n      dup2\n      mstore\n      0x20\n      add\n      0x00\n      keccak256\n        /* \"ERC20.sol\":2038:2067  _allowance[_from][msg.sender] */\n      0x00\n        /* \"ERC20.sol\":2056:2066  msg.sender */\n      caller\n        /* \"ERC20.sol\":2038:2067  _allowance[_from][msg.sender] */\n      0xffffffffffffffffffffffffffffffffffffffff\n      and\n      0xffffffffffffffffffffffffffffffffffffffff\n      and\n      dup2\n      mstore\n      0x20\n      add\n      swap1\n      dup2\n      mstore\n      0x20\n      add\n      0x00\n      keccak256\n      sload\n        /* \"ERC20.sol\":2038:2077  _allowance[_from][msg.sender] >= _value */\n      lt\n      iszero\n        /* \"ERC20.sol\":2017:2143  require(... */\n      tag_76\n      jumpi\n      mload(0x40)\n      0x08c379a000000000000000000000000000000000000000000000000000000000\n      dup2\n      mstore\n      0x04\n      add\n      tag_77\n      swap1\n      tag_78\n      jump\t// in\n    tag_77:\n      mload(0x40)\n      dup1\n      swap2\n      sub\n      swap1\n      revert\n    tag_76:\n        /* \"ERC20.sol\":2187:2193  _value */\n      dup2\n        /* \"ERC20.sol\":2154:2164  _allowance */\n      0x05\n        /* \"ERC20.sol\":2154:2171  _allowance[_from] */\n      0x00\n        /* \"ERC20.sol\":2165:2170  _from */\n      dup7\n        /* \"ERC20.sol\":2154:2171  _allowance[_from] */\n      0xffffffffffffffffffffffffffffffffffffffff\n      and\n      0xffffffffffffffffffffffffffffffffffffffff\n      and\n      dup2\n      mstore\n      0x20\n      add\n      swap1\n      dup2\n      mstore\n      0x20\n      add\n      0x00\n      keccak256\n        /* \"ERC20.sol\":2154:2183  _allowance[_from][msg.sender] */\n      0x00\n        /* \"ERC20.sol\":2172:2182  msg.sender */\n      caller\n        /* \"ERC20.sol\":2154:2183  _allowance[_from][msg.sender] */\n      0xffffffffffffffffffffffffffffffffffffffff\n      and\n      0xffffffffffffffffffffffffffffffffffffffff\n      and\n      dup2\n      mstore\n      0x20\n      add\n      swap1\n      dup2\n      mstore\n      0x20\n      add\n      0x00\n      keccak256\n      0x00\n        /* \"ERC20.sol\":2154:2193  _allowance[_from][msg.sender] -= _value */\n      dup3\n      dup3\n      sload\n      tag_79\n      swap2\n      swap1\n      tag_80\n      jump\t// in\n    tag_79:\n      swap3\n      pop\n      pop\n      dup2\n      swap1\n      sstore\n      pop\n        /* \"ERC20.sol\":2210:2239  _transfer(_from, _to, _value) */\n      tag_81\n        /* \"ERC20.sol\":2220:2225  _from */\n      dup5\n        /* \"ERC20.sol\":2227:2230  _to */\n      dup5\n        /* \"ERC20.sol\":2232:2238  _value */\n      dup5\n        /* \"ERC20.sol\":2210:2219  _transfer */\n      tag_82\n        /* \"ERC20.sol\":2210:2239  _transfer(_from, _to, _value) */\n      jump\t// in\n    tag_81:\n        /* \"ERC20.sol\":2203:2239  return _transfer(_from, _to, _value) */\n      swap1\n      pop\n        /* \"ERC20.sol\":1726:2246  function transferFrom(... */\n      swap4\n      swap3\n      pop\n      pop\n      pop\n      jump\t// out\n        /* \"ERC20.sol\":818:899  function decimals() public view returns (uint8) {... */\n    tag_35:\n        /* \"ERC20.sol\":859:864  uint8 */\n      0x00\n        /* \"ERC20.sol\":883:892  _decimals */\n      0x02\n      0x00\n      swap1\n      sload\n      swap1\n      0x0100\n      exp\n      swap1\n      div\n      0xff\n      and\n        /* \"ERC20.sol\":876:892  return _decimals */\n      swap1\n      pop\n        /* \"ERC20.sol\":818:899  function decimals() public view returns (uint8) {... */\n      swap1\n      jump\t// out\n        /* \"Token.sol\":399:491  function mint(address to, uint256 value)  public onlyOwner {... */\n    tag_40:\n        /* \"Token.sol\":183:193  msg.sender */\n      caller\n        /* \"Token.sol\":176:193  owner==msg.sender */\n      0xffffffffffffffffffffffffffffffffffffffff\n      and\n        /* \"Token.sol\":176:181  owner */\n      0x06\n      0x00\n      swap1\n      sload\n      swap1\n      0x0100\n      exp\n      swap1\n      div\n      0xffffffffffffffffffffffffffffffffffffffff\n      and\n        /* \"Token.sol\":176:193  owner==msg.sender */\n      0xffffffffffffffffffffffffffffffffffffffff\n      and\n      eq\n        /* \"Token.sol\":168:210  require(owner==msg.sender,\"not the owner\") */\n      tag_85\n      jumpi\n      mload(0x40)\n      0x08c379a000000000000000000000000000000000000000000000000000000000\n      dup2\n      mstore\n      0x04\n      add\n      tag_86\n      swap1\n      tag_87\n      jump\t// in\n    tag_86:\n      mload(0x40)\n      dup1\n      swap2\n      sub\n      swap1\n      revert\n    tag_85:\n        /* \"Token.sol\":468:484  _mint(to, value) */\n      tag_89\n        /* \"Token.sol\":474:476  to */\n      dup3\n        /* \"Token.sol\":478:483  value */\n      dup3\n        /* \"Token.sol\":468:473  _mint */\n      tag_90\n        /* \"Token.sol\":468:484  _mint(to, value) */\n      jump\t// in\n    tag_89:\n        /* \"Token.sol\":399:491  function mint(address to, uint256 value)  public onlyOwner {... */\n      pop\n      pop\n      jump\t// out\n        /* \"ERC20.sol\":1000:1115  function balanceOf(address _owner) public view returns (uint256 balance) {... */\n    tag_44:\n        /* \"ERC20.sol\":1056:1071  uint256 balance */\n      0x00\n        /* \"ERC20.sol\":1090:1100  _balanceOf */\n      0x04\n        /* \"ERC20.sol\":1090:1108  _balanceOf[_owner] */\n      0x00\n        /* \"ERC20.sol\":1101:1107  _owner */\n      dup4\n        /* \"ERC20.sol\":1090:1108  _balanceOf[_owner] */\n      0xffffffffffffffffffffffffffffffffffffffff\n      and\n      0xffffffffffffffffffffffffffffffffffffffff\n      and\n      dup2\n      mstore\n      0x20\n      add\n      swap1\n      dup2\n      mstore\n      0x20\n      add\n      0x00\n      keccak256\n      sload\n        /* \"ERC20.sol\":1083:1108  return _balanceOf[_owner] */\n      swap1\n      pop\n        /* \"ERC20.sol\":1000:1115  function balanceOf(address _owner) public view returns (uint256 balance) {... */\n      swap2\n      swap1\n      pop\n      jump\t// out\n        /* \"Token.sol\":111:131  address public owner */\n    tag_47:\n      0x06\n      0x00\n      swap1\n      sload\n      swap1\n      0x0100\n      exp\n      swap1\n      div\n      0xffffffffffffffffffffffffffffffffffffffff\n      and\n      dup2\n      jump\t// out\n        /* \"ERC20.sol\":727:812  function symbol() public view returns (string memory) {... */\n    tag_51:\n        /* \"ERC20.sol\":766:779  string memory */\n      0x60\n        /* \"ERC20.sol\":798:805  _symbol */\n      0x01\n        /* \"ERC20.sol\":791:805  return _symbol */\n      dup1\n      sload\n      tag_93\n      swap1\n      tag_64\n      jump\t// in\n    tag_93:\n      dup1\n      0x1f\n      add\n      0x20\n      dup1\n      swap2\n      div\n      mul\n      0x20\n      add\n      mload(0x40)\n      swap1\n      dup2\n      add\n      0x40\n      mstore\n      dup1\n      swap3\n      swap2\n      swap1\n      dup2\n      dup2\n      mstore\n      0x20\n      add\n      dup3\n      dup1\n      sload\n      tag_94\n      swap1\n      tag_64\n      jump\t// in\n    tag_94:\n      dup1\n      iszero\n      tag_95\n      jumpi\n      dup1\n      0x1f\n      lt\n      tag_96\n      jumpi\n      0x0100\n      dup1\n      dup4\n      sload\n      div\n      mul\n      dup4\n      mstore\n      swap2\n      0x20\n      add\n      swap2\n      jump(tag_95)\n    tag_96:\n      dup3\n      add\n      swap2\n      swap1\n      0x00\n      mstore\n      keccak256(0x00, 0x20)\n      swap1\n    tag_97:\n      dup2\n      sload\n      dup2\n      mstore\n      swap1\n      0x01\n      add\n      swap1\n      0x20\n      add\n      dup1\n      dup4\n      gt\n      tag_97\n      jumpi\n      dup3\n      swap1\n      sub\n      0x1f\n      and\n      dup3\n      add\n      swap2\n    tag_95:\n      pop\n      pop\n      pop\n      pop\n      pop\n      swap1\n      pop\n        /* \"ERC20.sol\":727:812  function symbol() public view returns (string memory) {... */\n      swap1\n      jump\t// out\n        /* \"ERC20.sol\":1121:1276  function transfer(address _to, uint256 _value)... */\n    tag_55:\n        /* \"ERC20.sol\":1200:1212  bool success */\n      0x00\n        /* \"ERC20.sol\":1235:1269  _transfer(msg.sender, _to, _value) */\n      tag_99\n        /* \"ERC20.sol\":1245:1255  msg.sender */\n      caller\n        /* \"ERC20.sol\":1257:1260  _to */\n      dup5\n        /* \"ERC20.sol\":1262:1268  _value */\n      dup5\n        /* \"ERC20.sol\":1235:1244  _transfer */\n      tag_82\n        /* \"ERC20.sol\":1235:1269  _transfer(msg.sender, _to, _value) */\n      jump\t// in\n    tag_99:\n        /* \"ERC20.sol\":1228:1269  return _transfer(msg.sender, _to, _value) */\n      swap1\n      pop\n        /* \"ERC20.sol\":1121:1276  function transfer(address _to, uint256 _value)... */\n      swap3\n      swap2\n      pop\n      pop\n      jump\t// out\n        /* \"ERC20.sol\":2252:2425  function allowance(address _owner, address _spender)... */\n    tag_60:\n        /* \"ERC20.sol\":2350:2367  uint256 remaining */\n      0x00\n        /* \"ERC20.sol\":2390:2400  _allowance */\n      0x05\n        /* \"ERC20.sol\":2390:2408  _allowance[_owner] */\n      0x00\n        /* \"ERC20.sol\":2401:2407  _owner */\n      dup5\n        /* \"ERC20.sol\":2390:2408  _allowance[_owner] */\n      0xffffffffffffffffffffffffffffffffffffffff\n      and\n      0xffffffffffffffffffffffffffffffffffffffff\n      and\n      dup2\n      mstore\n      0x20\n      add\n      swap1\n      dup2\n      mstore\n      0x20\n      add\n      0x00\n      keccak256\n        /* \"ERC20.sol\":2390:2418  _allowance[_owner][_spender] */\n      0x00\n        /* \"ERC20.sol\":2409:2417  _spender */\n      dup4\n        /* \"ERC20.sol\":2390:2418  _allowance[_owner][_spender] */\n      0xffffffffffffffffffffffffffffffffffffffff\n      and\n      0xffffffffffffffffffffffffffffffffffffffff\n      and\n      dup2\n      mstore\n      0x20\n      add\n      swap1\n      dup2\n      mstore\n      0x20\n      add\n      0x00\n      keccak256\n      sload\n        /* \"ERC20.sol\":2383:2418  return _allowance[_owner][_spender] */\n      swap1\n      pop\n        /* \"ERC20.sol\":2252:2425  function allowance(address _owner, address _spender)... */\n      swap3\n      swap2\n      pop\n      pop\n      jump\t// out\n        /* \"ERC20.sol\":1497:1720  function _transfer(... */\n    tag_82:\n        /* \"ERC20.sol\":1607:1619  bool success */\n      0x00\n        /* \"ERC20.sol\":1651:1657  _value */\n      dup2\n        /* \"ERC20.sol\":1631:1641  _balanceOf */\n      0x04\n        /* \"ERC20.sol\":1631:1647  _balanceOf[from] */\n      0x00\n        /* \"ERC20.sol\":1642:1646  from */\n      dup7\n        /* \"ERC20.sol\":1631:1647  _balanceOf[from] */\n      0xffffffffffffffffffffffffffffffffffffffff\n      and\n      0xffffffffffffffffffffffffffffffffffffffff\n      and\n      dup2\n      mstore\n      0x20\n      add\n      swap1\n      dup2\n      mstore\n      0x20\n      add\n      0x00\n      keccak256\n      0x00\n        /* \"ERC20.sol\":1631:1657  _balanceOf[from] -= _value */\n      dup3\n      dup3\n      sload\n      tag_102\n      swap2\n      swap1\n      tag_80\n      jump\t// in\n    tag_102:\n      swap3\n      pop\n      pop\n      dup2\n      swap1\n      sstore\n      pop\n        /* \"ERC20.sol\":1686:1692  _value */\n      dup2\n        /* \"ERC20.sol\":1667:1677  _balanceOf */\n      0x04\n        /* \"ERC20.sol\":1667:1682  _balanceOf[_to] */\n      0x00\n        /* \"ERC20.sol\":1678:1681  _to */\n      dup6\n        /* \"ERC20.sol\":1667:1682  _balanceOf[_to] */\n      0xffffffffffffffffffffffffffffffffffffffff\n      and\n      0xffffffffffffffffffffffffffffffffffffffff\n      and\n      dup2\n      mstore\n      0x20\n      add\n      swap1\n      dup2\n      mstore\n      0x20\n      add\n      0x00\n      keccak256\n      0x00\n        /* \"ERC20.sol\":1667:1692  _balanceOf[_to] += _value */\n      dup3\n      dup3\n      sload\n      tag_103\n      swap2\n      swap1\n      tag_104\n      jump\t// in\n    tag_103:\n      swap3\n      pop\n      pop\n      dup2\n      swap1\n      sstore\n      pop\n        /* \"ERC20.sol\":1709:1713  true */\n      0x01\n        /* \"ERC20.sol\":1702:1713  return true */\n      swap1\n      pop\n        /* \"ERC20.sol\":1497:1720  function _transfer(... */\n      swap4\n      swap3\n      pop\n      pop\n      pop\n      jump\t// out\n        /* \"ERC20.sol\":512:634  function _mint(address to, uint256 value) internal {... */\n    tag_90:\n        /* \"ERC20.sol\":591:596  value */\n      dup1\n        /* \"ERC20.sol\":573:583  _balanceOf */\n      0x04\n        /* \"ERC20.sol\":573:587  _balanceOf[to] */\n      0x00\n        /* \"ERC20.sol\":584:586  to */\n      dup5\n        /* \"ERC20.sol\":573:587  _balanceOf[to] */\n      0xffffffffffffffffffffffffffffffffffffffff\n      and\n      0xffffffffffffffffffffffffffffffffffffffff\n      and\n      dup2\n      mstore\n      0x20\n      add\n      swap1\n      dup2\n      mstore\n      0x20\n      add\n      0x00\n      keccak256\n      0x00\n        /* \"ERC20.sol\":573:596  _balanceOf[to] += value */\n      dup3\n      dup3\n      sload\n      tag_106\n      swap2\n      swap1\n      tag_104\n      jump\t// in\n    tag_106:\n      swap3\n      pop\n      pop\n      dup2\n      swap1\n      sstore\n      pop\n        /* \"ERC20.sol\":622:627  value */\n      dup1\n        /* \"ERC20.sol\":606:618  _totalSupply */\n      0x03\n      0x00\n        /* \"ERC20.sol\":606:627  _totalSupply += value */\n      dup3\n      dup3\n      sload\n      tag_107\n      swap2\n      swap1\n      tag_104\n      jump\t// in\n    tag_107:\n      swap3\n      pop\n      pop\n      dup2\n      swap1\n      sstore\n      pop\n        /* \"ERC20.sol\":512:634  function _mint(address to, uint256 value) internal {... */\n      pop\n      pop\n      jump\t// out\n        /* \"#utility.yul\":7:106   */\n    tag_108:\n        /* \"#utility.yul\":59:65   */\n      0x00\n        /* \"#utility.yul\":93:98   */\n      dup2\n        /* \"#utility.yul\":87:99   */\n      mload\n        /* \"#utility.yul\":77:99   */\n      swap1\n      pop\n        /* \"#utility.yul\":7:106   */\n      swap2\n      swap1\n      pop\n      jump\t// out\n        /* \"#utility.yul\":112:281   */\n    tag_109:\n        /* \"#utility.yul\":196:207   */\n      0x00\n        /* \"#utility.yul\":230:236   */\n      dup3\n        /* \"#utility.yul\":225:228   */\n      dup3\n        /* \"#utility.yul\":218:237   */\n      mstore\n        /* \"#utility.yul\":270:274   */\n      0x20\n        /* \"#utility.yul\":265:268   */\n      dup3\n        /* \"#utility.yul\":261:275   */\n      add\n        /* \"#utility.yul\":246:275   */\n      swap1\n      pop\n        /* \"#utility.yul\":112:281   */\n      swap3\n      swap2\n      pop\n      pop\n      jump\t// out\n        /* \"#utility.yul\":287:426   */\n    tag_110:\n        /* \"#utility.yul\":376:382   */\n      dup3\n        /* \"#utility.yul\":371:374   */\n      dup2\n        /* \"#utility.yul\":366:369   */\n      dup4\n        /* \"#utility.yul\":360:383   */\n      mcopy\n        /* \"#utility.yul\":417:418   */\n      0x00\n        /* \"#utility.yul\":408:414   */\n      dup4\n        /* \"#utility.yul\":403:406   */\n      dup4\n        /* \"#utility.yul\":399:415   */\n      add\n        /* \"#utility.yul\":392:419   */\n      mstore\n        /* \"#utility.yul\":287:426   */\n      pop\n      pop\n      pop\n      jump\t// out\n        /* \"#utility.yul\":432:534   */\n    tag_111:\n        /* \"#utility.yul\":473:479   */\n      0x00\n        /* \"#utility.yul\":524:526   */\n      0x1f\n        /* \"#utility.yul\":520:527   */\n      not\n        /* \"#utility.yul\":515:517   */\n      0x1f\n        /* \"#utility.yul\":508:513   */\n      dup4\n        /* \"#utility.yul\":504:518   */\n      add\n        /* \"#utility.yul\":500:528   */\n      and\n        /* \"#utility.yul\":490:528   */\n      swap1\n      pop\n        /* \"#utility.yul\":432:534   */\n      swap2\n      swap1\n      pop\n      jump\t// out\n        /* \"#utility.yul\":540:917   */\n    tag_112:\n        /* \"#utility.yul\":628:631   */\n      0x00\n        /* \"#utility.yul\":656:695   */\n      tag_143\n        /* \"#utility.yul\":689:694   */\n      dup3\n        /* \"#utility.yul\":656:695   */\n      tag_108\n      jump\t// in\n    tag_143:\n        /* \"#utility.yul\":711:782   */\n      tag_144\n        /* \"#utility.yul\":775:781   */\n      dup2\n        /* \"#utility.yul\":770:773   */\n      dup6\n        /* \"#utility.yul\":711:782   */\n      tag_109\n      jump\t// in\n    tag_144:\n        /* \"#utility.yul\":704:782   */\n      swap4\n      pop\n        /* \"#utility.yul\":791:856   */\n      tag_145\n        /* \"#utility.yul\":849:855   */\n      dup2\n        /* \"#utility.yul\":844:847   */\n      dup6\n        /* \"#utility.yul\":837:841   */\n      0x20\n        /* \"#utility.yul\":830:835   */\n      dup7\n        /* \"#utility.yul\":826:842   */\n      add\n        /* \"#utility.yul\":791:856   */\n      tag_110\n      jump\t// in\n    tag_145:\n        /* \"#utility.yul\":881:910   */\n      tag_146\n        /* \"#utility.yul\":903:909   */\n      dup2\n        /* \"#utility.yul\":881:910   */\n      tag_111\n      jump\t// in\n    tag_146:\n        /* \"#utility.yul\":876:879   */\n      dup5\n        /* \"#utility.yul\":872:911   */\n      add\n        /* \"#utility.yul\":865:911   */\n      swap2\n      pop\n        /* \"#utility.yul\":632:917   */\n      pop\n        /* \"#utility.yul\":540:917   */\n      swap3\n      swap2\n      pop\n      pop\n      jump\t// out\n        /* \"#utility.yul\":923:1236   */\n    tag_18:\n        /* \"#utility.yul\":1036:1040   */\n      0x00\n        /* \"#utility.yul\":1074:1076   */\n      0x20\n        /* \"#utility.yul\":1063:1072   */\n      dup3\n        /* \"#utility.yul\":1059:1077   */\n      add\n        /* \"#utility.yul\":1051:1077   */\n      swap1\n      pop\n        /* \"#utility.yul\":1123:1132   */\n      dup2\n        /* \"#utility.yul\":1117:1121   */\n      dup2\n        /* \"#utility.yul\":1113:1133   */\n      sub\n        /* \"#utility.yul\":1109:1110   */\n      0x00\n        /* \"#utility.yul\":1098:1107   */\n      dup4\n        /* \"#utility.yul\":1094:1111   */\n      add\n        /* \"#utility.yul\":1087:1134   */\n      mstore\n        /* \"#utility.yul\":1151:1229   */\n      tag_148\n        /* \"#utility.yul\":1224:1228   */\n      dup2\n        /* \"#utility.yul\":1215:1221   */\n      dup5\n        /* \"#utility.yul\":1151:1229   */\n      tag_112\n      jump\t// in\n    tag_148:\n        /* \"#utility.yul\":1143:1229   */\n      swap1\n      pop\n        /* \"#utility.yul\":923:1236   */\n      swap3\n      swap2\n      pop\n      pop\n      jump\t// out\n        /* \"#utility.yul\":1323:1440   */\n    tag_114:\n        /* \"#utility.yul\":1432:1433   */\n      0x00\n        /* \"#utility.yul\":1429:1430   */\n      0x00\n        /* \"#utility.yul\":1422:1434   */\n      revert\n        /* \"#utility.yul\":1569:1695   */\n    tag_116:\n        /* \"#utility.yul\":1606:1613   */\n      0x00\n        /* \"#utility.yul\":1646:1688   */\n      0xffffffffffffffffffffffffffffffffffffffff\n        /* \"#utility.yul\":1639:1644   */\n      dup3\n        /* \"#utility.yul\":1635:1689   */\n      and\n        /* \"#utility.yul\":1624:1689   */\n      swap1\n      pop\n        /* \"#utility.yul\":1569:1695   */\n      swap2\n      swap1\n      pop\n      jump\t// out\n        /* \"#utility.yul\":1701:1797   */\n    tag_117:\n        /* \"#utility.yul\":1738:1745   */\n      0x00\n        /* \"#utility.yul\":1767:1791   */\n      tag_154\n        /* \"#utility.yul\":1785:1790   */\n      dup3\n        /* \"#utility.yul\":1767:1791   */\n      tag_116\n      jump\t// in\n    tag_154:\n        /* \"#utility.yul\":1756:1791   */\n      swap1\n      pop\n        /* \"#utility.yul\":1701:1797   */\n      swap2\n      swap1\n      pop\n      jump\t// out\n        /* \"#utility.yul\":1803:1925   */\n    tag_118:\n        /* \"#utility.yul\":1876:1900   */\n      tag_156\n        /* \"#utility.yul\":1894:1899   */\n      dup2\n        /* \"#utility.yul\":1876:1900   */\n      tag_117\n      jump\t// in\n    tag_156:\n        /* \"#utility.yul\":1869:1874   */\n      dup2\n        /* \"#utility.yul\":1866:1901   */\n      eq\n        /* \"#utility.yul\":1856:1919   */\n      tag_157\n      jumpi\n        /* \"#utility.yul\":1915:1916   */\n      0x00\n        /* \"#utility.yul\":1912:1913   */\n      0x00\n        /* \"#utility.yul\":1905:1917   */\n      revert\n        /* \"#utility.yul\":1856:1919   */\n    tag_157:\n        /* \"#utility.yul\":1803:1925   */\n      pop\n      jump\t// out\n        /* \"#utility.yul\":1931:2070   */\n    tag_119:\n        /* \"#utility.yul\":1977:1982   */\n      0x00\n        /* \"#utility.yul\":2015:2021   */\n      dup2\n        /* \"#utility.yul\":2002:2022   */\n      calldataload\n        /* \"#utility.yul\":1993:2022   */\n      swap1\n      pop\n        /* \"#utility.yul\":2031:2064   */\n      tag_159\n        /* \"#utility.yul\":2058:2063   */\n      dup2\n        /* \"#utility.yul\":2031:2064   */\n      tag_118\n      jump\t// in\n    tag_159:\n        /* \"#utility.yul\":1931:2070   */\n      swap3\n      swap2\n      pop\n      pop\n      jump\t// out\n        /* \"#utility.yul\":2076:2153   */\n    tag_120:\n        /* \"#utility.yul\":2113:2120   */\n      0x00\n        /* \"#utility.yul\":2142:2147   */\n      dup2\n        /* \"#utility.yul\":2131:2147   */\n      swap1\n      pop\n        /* \"#utility.yul\":2076:2153   */\n      swap2\n      swap1\n      pop\n      jump\t// out\n        /* \"#utility.yul\":2159:2281   */\n    tag_121:\n        /* \"#utility.yul\":2232:2256   */\n      tag_162\n        /* \"#utility.yul\":2250:2255   */\n      dup2\n        /* \"#utility.yul\":2232:2256   */\n      tag_120\n      jump\t// in\n    tag_162:\n        /* \"#utility.yul\":2225:2230   */\n      dup2\n        /* \"#utility.yul\":2222:2257   */\n      eq\n        /* \"#utility.yul\":2212:2275   */\n      tag_163\n      jumpi\n        /* \"#utility.yul\":2271:2272   */\n      0x00\n        /* \"#utility.yul\":2268:2269   */\n      0x00\n        /* \"#utility.yul\":2261:2273   */\n      revert\n        /* \"#utility.yul\":2212:2275   */\n    tag_163:\n        /* \"#utility.yul\":2159:2281   */\n      pop\n      jump\t// out\n        /* \"#utility.yul\":2287:2426   */\n    tag_122:\n        /* \"#utility.yul\":2333:2338   */\n      0x00\n        /* \"#utility.yul\":2371:2377   */\n      dup2\n        /* \"#utility.yul\":2358:2378   */\n      calldataload\n        /* \"#utility.yul\":2349:2378   */\n      swap1\n      pop\n        /* \"#utility.yul\":2387:2420   */\n      tag_165\n        /* \"#utility.yul\":2414:2419   */\n      dup2\n        /* \"#utility.yul\":2387:2420   */\n      tag_121\n      jump\t// in\n    tag_165:\n        /* \"#utility.yul\":2287:2426   */\n      swap3\n      swap2\n      pop\n      pop\n      jump\t// out\n        /* \"#utility.yul\":2432:2906   */\n    tag_21:\n        /* \"#utility.yul\":2500:2506   */\n      0x00\n        /* \"#utility.yul\":2508:2514   */\n      0x00\n        /* \"#utility.yul\":2557:2559   */\n      0x40\n        /* \"#utility.yul\":2545:2554   */\n      dup4\n        /* \"#utility.yul\":2536:2543   */\n      dup6\n        /* \"#utility.yul\":2532:2555   */\n      sub\n        /* \"#utility.yul\":2528:2560   */\n      slt\n        /* \"#utility.yul\":2525:2644   */\n      iszero\n      tag_167\n      jumpi\n        /* \"#utility.yul\":2563:2642   */\n      tag_168\n      tag_114\n      jump\t// in\n    tag_168:\n        /* \"#utility.yul\":2525:2644   */\n    tag_167:\n        /* \"#utility.yul\":2683:2684   */\n      0x00\n        /* \"#utility.yul\":2708:2761   */\n      tag_169\n        /* \"#utility.yul\":2753:2760   */\n      dup6\n        /* \"#utility.yul\":2744:2750   */\n      dup3\n        /* \"#utility.yul\":2733:2742   */\n      dup7\n        /* \"#utility.yul\":2729:2751   */\n      add\n        /* \"#utility.yul\":2708:2761   */\n      tag_119\n      jump\t// in\n    tag_169:\n        /* \"#utility.yul\":2698:2761   */\n      swap3\n      pop\n        /* \"#utility.yul\":2654:2771   */\n      pop\n        /* \"#utility.yul\":2810:2812   */\n      0x20\n        /* \"#utility.yul\":2836:2889   */\n      tag_170\n        /* \"#utility.yul\":2881:2888   */\n      dup6\n        /* \"#utility.yul\":2872:2878   */\n      dup3\n        /* \"#utility.yul\":2861:2870   */\n      dup7\n        /* \"#utility.yul\":2857:2879   */\n      add\n        /* \"#utility.yul\":2836:2889   */\n      tag_122\n      jump\t// in\n    tag_170:\n        /* \"#utility.yul\":2826:2889   */\n      swap2\n      pop\n        /* \"#utility.yul\":2781:2899   */\n      pop\n        /* \"#utility.yul\":2432:2906   */\n      swap3\n      pop\n      swap3\n      swap1\n      pop\n      jump\t// out\n        /* \"#utility.yul\":2912:3002   */\n    tag_123:\n        /* \"#utility.yul\":2946:2953   */\n      0x00\n        /* \"#utility.yul\":2989:2994   */\n      dup2\n        /* \"#utility.yul\":2982:2995   */\n      iszero\n        /* \"#utility.yul\":2975:2996   */\n      iszero\n        /* \"#utility.yul\":2964:2996   */\n      swap1\n      pop\n        /* \"#utility.yul\":2912:3002   */\n      swap2\n      swap1\n      pop\n      jump\t// out\n        /* \"#utility.yul\":3008:3117   */\n    tag_124:\n        /* \"#utility.yul\":3089:3110   */\n      tag_173\n        /* \"#utility.yul\":3104:3109   */\n      dup2\n        /* \"#utility.yul\":3089:3110   */\n      tag_123\n      jump\t// in\n    tag_173:\n        /* \"#utility.yul\":3084:3087   */\n      dup3\n        /* \"#utility.yul\":3077:3111   */\n      mstore\n        /* \"#utility.yul\":3008:3117   */\n      pop\n      pop\n      jump\t// out\n        /* \"#utility.yul\":3123:3333   */\n    tag_24:\n        /* \"#utility.yul\":3210:3214   */\n      0x00\n        /* \"#utility.yul\":3248:3250   */\n      0x20\n        /* \"#utility.yul\":3237:3246   */\n      dup3\n        /* \"#utility.yul\":3233:3251   */\n      add\n        /* \"#utility.yul\":3225:3251   */\n      swap1\n      pop\n        /* \"#utility.yul\":3261:3326   */\n      tag_175\n        /* \"#utility.yul\":3323:3324   */\n      0x00\n        /* \"#utility.yul\":3312:3321   */\n      dup4\n        /* \"#utility.yul\":3308:3325   */\n      add\n        /* \"#utility.yul\":3299:3305   */\n      dup5\n        /* \"#utility.yul\":3261:3326   */\n      tag_124\n      jump\t// in\n    tag_175:\n        /* \"#utility.yul\":3123:3333   */\n      swap3\n      swap2\n      pop\n      pop\n      jump\t// out\n        /* \"#utility.yul\":3339:3457   */\n    tag_125:\n        /* \"#utility.yul\":3426:3450   */\n      tag_177\n        /* \"#utility.yul\":3444:3449   */\n      dup2\n        /* \"#utility.yul\":3426:3450   */\n      tag_120\n      jump\t// in\n    tag_177:\n        /* \"#utility.yul\":3421:3424   */\n      dup3\n        /* \"#utility.yul\":3414:3451   */\n      mstore\n        /* \"#utility.yul\":3339:3457   */\n      pop\n      pop\n      jump\t// out\n        /* \"#utility.yul\":3463:3685   */\n    tag_28:\n        /* \"#utility.yul\":3556:3560   */\n      0x00\n        /* \"#utility.yul\":3594:3596   */\n      0x20\n        /* \"#utility.yul\":3583:3592   */\n      dup3\n        /* \"#utility.yul\":3579:3597   */\n      add\n        /* \"#utility.yul\":3571:3597   */\n      swap1\n      pop\n        /* \"#utility.yul\":3607:3678   */\n      tag_179\n        /* \"#utility.yul\":3675:3676   */\n      0x00\n        /* \"#utility.yul\":3664:3673   */\n      dup4\n        /* \"#utility.yul\":3660:3677   */\n      add\n        /* \"#utility.yul\":3651:3657   */\n      dup5\n        /* \"#utility.yul\":3607:3678   */\n      tag_125\n      jump\t// in\n    tag_179:\n        /* \"#utility.yul\":3463:3685   */\n      swap3\n      swap2\n      pop\n      pop\n      jump\t// out\n        /* \"#utility.yul\":3691:4310   */\n    tag_31:\n        /* \"#utility.yul\":3768:3774   */\n      0x00\n        /* \"#utility.yul\":3776:3782   */\n      0x00\n        /* \"#utility.yul\":3784:3790   */\n      0x00\n        /* \"#utility.yul\":3833:3835   */\n      0x60\n        /* \"#utility.yul\":3821:3830   */\n      dup5\n        /* \"#utility.yul\":3812:3819   */\n      dup7\n        /* \"#utility.yul\":3808:3831   */\n      sub\n        /* \"#utility.yul\":3804:3836   */\n      slt\n        /* \"#utility.yul\":3801:3920   */\n      iszero\n      tag_181\n      jumpi\n        /* \"#utility.yul\":3839:3918   */\n      tag_182\n      tag_114\n      jump\t// in\n    tag_182:\n        /* \"#utility.yul\":3801:3920   */\n    tag_181:\n        /* \"#utility.yul\":3959:3960   */\n      0x00\n        /* \"#utility.yul\":3984:4037   */\n      tag_183\n        /* \"#utility.yul\":4029:4036   */\n      dup7\n        /* \"#utility.yul\":4020:4026   */\n      dup3\n        /* \"#utility.yul\":4009:4018   */\n      dup8\n        /* \"#utility.yul\":4005:4027   */\n      add\n        /* \"#utility.yul\":3984:4037   */\n      tag_119\n      jump\t// in\n    tag_183:\n        /* \"#utility.yul\":3974:4037   */\n      swap4\n      pop\n        /* \"#utility.yul\":3930:4047   */\n      pop\n        /* \"#utility.yul\":4086:4088   */\n      0x20\n        /* \"#utility.yul\":4112:4165   */\n      tag_184\n        /* \"#utility.yul\":4157:4164   */\n      dup7\n        /* \"#utility.yul\":4148:4154   */\n      dup3\n        /* \"#utility.yul\":4137:4146   */\n      dup8\n        /* \"#utility.yul\":4133:4155   */\n      add\n        /* \"#utility.yul\":4112:4165   */\n      tag_119\n      jump\t// in\n    tag_184:\n        /* \"#utility.yul\":4102:4165   */\n      swap3\n      pop\n        /* \"#utility.yul\":4057:4175   */\n      pop\n        /* \"#utility.yul\":4214:4216   */\n      0x40\n        /* \"#utility.yul\":4240:4293   */\n      tag_185\n        /* \"#utility.yul\":4285:4292   */\n      dup7\n        /* \"#utility.yul\":4276:4282   */\n      dup3\n        /* \"#utility.yul\":4265:4274   */\n      dup8\n        /* \"#utility.yul\":4261:4283   */\n      add\n        /* \"#utility.yul\":4240:4293   */\n      tag_122\n      jump\t// in\n    tag_185:\n        /* \"#utility.yul\":4230:4293   */\n      swap2\n      pop\n        /* \"#utility.yul\":4185:4303   */\n      pop\n        /* \"#utility.yul\":3691:4310   */\n      swap3\n      pop\n      swap3\n      pop\n      swap3\n      jump\t// out\n        /* \"#utility.yul\":4316:4402   */\n    tag_126:\n        /* \"#utility.yul\":4351:4358   */\n      0x00\n        /* \"#utility.yul\":4391:4395   */\n      0xff\n        /* \"#utility.yul\":4384:4389   */\n      dup3\n        /* \"#utility.yul\":4380:4396   */\n      and\n        /* \"#utility.yul\":4369:4396   */\n      swap1\n      pop\n        /* \"#utility.yul\":4316:4402   */\n      swap2\n      swap1\n      pop\n      jump\t// out\n        /* \"#utility.yul\":4408:4520   */\n    tag_127:\n        /* \"#utility.yul\":4491:4513   */\n      tag_188\n        /* \"#utility.yul\":4507:4512   */\n      dup2\n        /* \"#utility.yul\":4491:4513   */\n      tag_126\n      jump\t// in\n    tag_188:\n        /* \"#utility.yul\":4486:4489   */\n      dup3\n        /* \"#utility.yul\":4479:4514   */\n      mstore\n        /* \"#utility.yul\":4408:4520   */\n      pop\n      pop\n      jump\t// out\n        /* \"#utility.yul\":4526:4740   */\n    tag_37:\n        /* \"#utility.yul\":4615:4619   */\n      0x00\n        /* \"#utility.yul\":4653:4655   */\n      0x20\n        /* \"#utility.yul\":4642:4651   */\n      dup3\n        /* \"#utility.yul\":4638:4656   */\n      add\n        /* \"#utility.yul\":4630:4656   */\n      swap1\n      pop\n        /* \"#utility.yul\":4666:4733   */\n      tag_190\n        /* \"#utility.yul\":4730:4731   */\n      0x00\n        /* \"#utility.yul\":4719:4728   */\n      dup4\n        /* \"#utility.yul\":4715:4732   */\n      add\n        /* \"#utility.yul\":4706:4712   */\n      dup5\n        /* \"#utility.yul\":4666:4733   */\n      tag_127\n      jump\t// in\n    tag_190:\n        /* \"#utility.yul\":4526:4740   */\n      swap3\n      swap2\n      pop\n      pop\n      jump\t// out\n        /* \"#utility.yul\":4746:5075   */\n    tag_43:\n        /* \"#utility.yul\":4805:4811   */\n      0x00\n        /* \"#utility.yul\":4854:4856   */\n      0x20\n        /* \"#utility.yul\":4842:4851   */\n      dup3\n        /* \"#utility.yul\":4833:4840   */\n      dup5\n        /* \"#utility.yul\":4829:4852   */\n      sub\n        /* \"#utility.yul\":4825:4857   */\n      slt\n        /* \"#utility.yul\":4822:4941   */\n      iszero\n      tag_192\n      jumpi\n        /* \"#utility.yul\":4860:4939   */\n      tag_193\n      tag_114\n      jump\t// in\n    tag_193:\n        /* \"#utility.yul\":4822:4941   */\n    tag_192:\n        /* \"#utility.yul\":4980:4981   */\n      0x00\n        /* \"#utility.yul\":5005:5058   */\n      tag_194\n        /* \"#utility.yul\":5050:5057   */\n      dup5\n        /* \"#utility.yul\":5041:5047   */\n      dup3\n        /* \"#utility.yul\":5030:5039   */\n      dup6\n        /* \"#utility.yul\":5026:5048   */\n      add\n        /* \"#utility.yul\":5005:5058   */\n      tag_119\n      jump\t// in\n    tag_194:\n        /* \"#utility.yul\":4995:5058   */\n      swap2\n      pop\n        /* \"#utility.yul\":4951:5068   */\n      pop\n        /* \"#utility.yul\":4746:5075   */\n      swap3\n      swap2\n      pop\n      pop\n      jump\t// out\n        /* \"#utility.yul\":5081:5199   */\n    tag_128:\n        /* \"#utility.yul\":5168:5192   */\n      tag_196\n        /* \"#utility.yul\":5186:5191   */\n      dup2\n        /* \"#utility.yul\":5168:5192   */\n      tag_117\n      jump\t// in\n    tag_196:\n        /* \"#utility.yul\":5163:5166   */\n      dup3\n        /* \"#utility.yul\":5156:5193   */\n      mstore\n        /* \"#utility.yul\":5081:5199   */\n      pop\n      pop\n      jump\t// out\n        /* \"#utility.yul\":5205:5427   */\n    tag_49:\n        /* \"#utility.yul\":5298:5302   */\n      0x00\n        /* \"#utility.yul\":5336:5338   */\n      0x20\n        /* \"#utility.yul\":5325:5334   */\n      dup3\n        /* \"#utility.yul\":5321:5339   */\n      add\n        /* \"#utility.yul\":5313:5339   */\n      swap1\n      pop\n        /* \"#utility.yul\":5349:5420   */\n      tag_198\n        /* \"#utility.yul\":5417:5418   */\n      0x00\n        /* \"#utility.yul\":5406:5415   */\n      dup4\n        /* \"#utility.yul\":5402:5419   */\n      add\n        /* \"#utility.yul\":5393:5399   */\n      dup5\n        /* \"#utility.yul\":5349:5420   */\n      tag_128\n      jump\t// in\n    tag_198:\n        /* \"#utility.yul\":5205:5427   */\n      swap3\n      swap2\n      pop\n      pop\n      jump\t// out\n        /* \"#utility.yul\":5433:5907   */\n    tag_59:\n        /* \"#utility.yul\":5501:5507   */\n      0x00\n        /* \"#utility.yul\":5509:5515   */\n      0x00\n        /* \"#utility.yul\":5558:5560   */\n      0x40\n        /* \"#utility.yul\":5546:5555   */\n      dup4\n        /* \"#utility.yul\":5537:5544   */\n      dup6\n        /* \"#utility.yul\":5533:5556   */\n      sub\n        /* \"#utility.yul\":5529:5561   */\n      slt\n        /* \"#utility.yul\":5526:5645   */\n      iszero\n      tag_200\n      jumpi\n        /* \"#utility.yul\":5564:5643   */\n      tag_201\n      tag_114\n      jump\t// in\n    tag_201:\n        /* \"#utility.yul\":5526:5645   */\n    tag_200:\n        /* \"#utility.yul\":5684:5685   */\n      0x00\n        /* \"#utility.yul\":5709:5762   */\n      tag_202\n        /* \"#utility.yul\":5754:5761   */\n      dup6\n        /* \"#utility.yul\":5745:5751   */\n      dup3\n        /* \"#utility.yul\":5734:5743   */\n      dup7\n        /* \"#utility.yul\":5730:5752   */\n      add\n        /* \"#utility.yul\":5709:5762   */\n      tag_119\n      jump\t// in\n    tag_202:\n        /* \"#utility.yul\":5699:5762   */\n      swap3\n      pop\n        /* \"#utility.yul\":5655:5772   */\n      pop\n        /* \"#utility.yul\":5811:5813   */\n      0x20\n        /* \"#utility.yul\":5837:5890   */\n      tag_203\n        /* \"#utility.yul\":5882:5889   */\n      dup6\n        /* \"#utility.yul\":5873:5879   */\n      dup3\n        /* \"#utility.yul\":5862:5871   */\n      dup7\n        /* \"#utility.yul\":5858:5880   */\n      add\n        /* \"#utility.yul\":5837:5890   */\n      tag_119\n      jump\t// in\n    tag_203:\n        /* \"#utility.yul\":5827:5890   */\n      swap2\n      pop\n        /* \"#utility.yul\":5782:5900   */\n      pop\n        /* \"#utility.yul\":5433:5907   */\n      swap3\n      pop\n      swap3\n      swap1\n      pop\n      jump\t// out\n        /* \"#utility.yul\":5913:6093   */\n    tag_129:\n        /* \"#utility.yul\":5961:6038   */\n      0x4e487b7100000000000000000000000000000000000000000000000000000000\n        /* \"#utility.yul\":5958:5959   */\n      0x00\n        /* \"#utility.yul\":5951:6039   */\n      mstore\n        /* \"#utility.yul\":6058:6062   */\n      0x22\n        /* \"#utility.yul\":6055:6056   */\n      0x04\n        /* \"#utility.yul\":6048:6063   */\n      mstore\n        /* \"#utility.yul\":6082:6086   */\n      0x24\n        /* \"#utility.yul\":6079:6080   */\n      0x00\n        /* \"#utility.yul\":6072:6087   */\n      revert\n        /* \"#utility.yul\":6099:6419   */\n    tag_64:\n        /* \"#utility.yul\":6143:6149   */\n      0x00\n        /* \"#utility.yul\":6180:6181   */\n      0x02\n        /* \"#utility.yul\":6174:6178   */\n      dup3\n        /* \"#utility.yul\":6170:6182   */\n      div\n        /* \"#utility.yul\":6160:6182   */\n      swap1\n      pop\n        /* \"#utility.yul\":6227:6228   */\n      0x01\n        /* \"#utility.yul\":6221:6225   */\n      dup3\n        /* \"#utility.yul\":6217:6229   */\n      and\n        /* \"#utility.yul\":6248:6266   */\n      dup1\n        /* \"#utility.yul\":6238:6319   */\n      tag_206\n      jumpi\n        /* \"#utility.yul\":6304:6308   */\n      0x7f\n        /* \"#utility.yul\":6296:6302   */\n      dup3\n        /* \"#utility.yul\":6292:6309   */\n      and\n        /* \"#utility.yul\":6282:6309   */\n      swap2\n      pop\n        /* \"#utility.yul\":6238:6319   */\n    tag_206:\n        /* \"#utility.yul\":6366:6368   */\n      0x20\n        /* \"#utility.yul\":6358:6364   */\n      dup3\n        /* \"#utility.yul\":6355:6369   */\n      lt\n        /* \"#utility.yul\":6335:6353   */\n      dup2\n        /* \"#utility.yul\":6332:6370   */\n      sub\n        /* \"#utility.yul\":6329:6413   */\n      tag_207\n      jumpi\n        /* \"#utility.yul\":6385:6403   */\n      tag_208\n      tag_129\n      jump\t// in\n    tag_208:\n        /* \"#utility.yul\":6329:6413   */\n    tag_207:\n        /* \"#utility.yul\":6150:6419   */\n      pop\n        /* \"#utility.yul\":6099:6419   */\n      swap2\n      swap1\n      pop\n      jump\t// out\n        /* \"#utility.yul\":6425:6741   */\n    tag_130:\n        /* \"#utility.yul\":6565:6599   */\n      0x4d7573742073657420616c6c6f77616e636520746f2030206265666f72652063\n        /* \"#utility.yul\":6561:6562   */\n      0x00\n        /* \"#utility.yul\":6553:6559   */\n      dup3\n        /* \"#utility.yul\":6549:6563   */\n      add\n        /* \"#utility.yul\":6542:6600   */\n      mstore\n        /* \"#utility.yul\":6634:6668   */\n      0x68616e67696e6720697420746f2061206e65772076616c756520287365652045\n        /* \"#utility.yul\":6629:6631   */\n      0x20\n        /* \"#utility.yul\":6621:6627   */\n      dup3\n        /* \"#utility.yul\":6617:6632   */\n      add\n        /* \"#utility.yul\":6610:6669   */\n      mstore\n        /* \"#utility.yul\":6703:6733   */\n      0x52433230207261636520636f6e646974696f6e207761726e696e672900000000\n        /* \"#utility.yul\":6698:6700   */\n      0x40\n        /* \"#utility.yul\":6690:6696   */\n      dup3\n        /* \"#utility.yul\":6686:6701   */\n      add\n        /* \"#utility.yul\":6679:6734   */\n      mstore\n        /* \"#utility.yul\":6425:6741   */\n      pop\n      jump\t// out\n        /* \"#utility.yul\":6747:7113   */\n    tag_131:\n        /* \"#utility.yul\":6889:6892   */\n      0x00\n        /* \"#utility.yul\":6910:6977   */\n      tag_211\n        /* \"#utility.yul\":6974:6976   */\n      0x5c\n        /* \"#utility.yul\":6969:6972   */\n      dup4\n        /* \"#utility.yul\":6910:6977   */\n      tag_109\n      jump\t// in\n    tag_211:\n        /* \"#utility.yul\":6903:6977   */\n      swap2\n      pop\n        /* \"#utility.yul\":6986:7079   */\n      tag_212\n        /* \"#utility.yul\":7075:7078   */\n      dup3\n        /* \"#utility.yul\":6986:7079   */\n      tag_130\n      jump\t// in\n    tag_212:\n        /* \"#utility.yul\":7104:7106   */\n      0x60\n        /* \"#utility.yul\":7099:7102   */\n      dup3\n        /* \"#utility.yul\":7095:7107   */\n      add\n        /* \"#utility.yul\":7088:7107   */\n      swap1\n      pop\n        /* \"#utility.yul\":6747:7113   */\n      swap2\n      swap1\n      pop\n      jump\t// out\n        /* \"#utility.yul\":7119:7538   */\n    tag_73:\n        /* \"#utility.yul\":7285:7289   */\n      0x00\n        /* \"#utility.yul\":7323:7325   */\n      0x20\n        /* \"#utility.yul\":7312:7321   */\n      dup3\n        /* \"#utility.yul\":7308:7326   */\n      add\n        /* \"#utility.yul\":7300:7326   */\n      swap1\n      pop\n        /* \"#utility.yul\":7372:7381   */\n      dup2\n        /* \"#utility.yul\":7366:7370   */\n      dup2\n        /* \"#utility.yul\":7362:7382   */\n      sub\n        /* \"#utility.yul\":7358:7359   */\n      0x00\n        /* \"#utility.yul\":7347:7356   */\n      dup4\n        /* \"#utility.yul\":7343:7360   */\n      add\n        /* \"#utility.yul\":7336:7383   */\n      mstore\n        /* \"#utility.yul\":7400:7531   */\n      tag_214\n        /* \"#utility.yul\":7526:7530   */\n      dup2\n        /* \"#utility.yul\":7400:7531   */\n      tag_131\n      jump\t// in\n    tag_214:\n        /* \"#utility.yul\":7392:7531   */\n      swap1\n      pop\n        /* \"#utility.yul\":7119:7538   */\n      swap2\n      swap1\n      pop\n      jump\t// out\n        /* \"#utility.yul\":7544:7771   */\n    tag_132:\n        /* \"#utility.yul\":7684:7718   */\n      0x45524332303a207472616e7366657220616d6f756e7420657863656564732061\n        /* \"#utility.yul\":7680:7681   */\n      0x00\n        /* \"#utility.yul\":7672:7678   */\n      dup3\n        /* \"#utility.yul\":7668:7682   */\n      add\n        /* \"#utility.yul\":7661:7719   */\n      mstore\n        /* \"#utility.yul\":7753:7763   */\n      0x6c6c6f77616e6365000000000000000000000000000000000000000000000000\n        /* \"#utility.yul\":7748:7750   */\n      0x20\n        /* \"#utility.yul\":7740:7746   */\n      dup3\n        /* \"#utility.yul\":7736:7751   */\n      add\n        /* \"#utility.yul\":7729:7764   */\n      mstore\n        /* \"#utility.yul\":7544:7771   */\n      pop\n      jump\t// out\n        /* \"#utility.yul\":7777:8143   */\n    tag_133:\n        /* \"#utility.yul\":7919:7922   */\n      0x00\n        /* \"#utility.yul\":7940:8007   */\n      tag_217\n        /* \"#utility.yul\":8004:8006   */\n      0x28\n        /* \"#utility.yul\":7999:8002   */\n      dup4\n        /* \"#utility.yul\":7940:8007   */\n      tag_109\n      jump\t// in\n    tag_217:\n        /* \"#utility.yul\":7933:8007   */\n      swap2\n      pop\n        /* \"#utility.yul\":8016:8109   */\n      tag_218\n        /* \"#utility.yul\":8105:8108   */\n      dup3\n        /* \"#utility.yul\":8016:8109   */\n      tag_132\n      jump\t// in\n    tag_218:\n        /* \"#utility.yul\":8134:8136   */\n      0x40\n        /* \"#utility.yul\":8129:8132   */\n      dup3\n        /* \"#utility.yul\":8125:8137   */\n      add\n        /* \"#utility.yul\":8118:8137   */\n      swap1\n      pop\n        /* \"#utility.yul\":7777:8143   */\n      swap2\n      swap1\n      pop\n      jump\t// out\n        /* \"#utility.yul\":8149:8568   */\n    tag_78:\n        /* \"#utility.yul\":8315:8319   */\n      0x00\n        /* \"#utility.yul\":8353:8355   */\n      0x20\n        /* \"#utility.yul\":8342:8351   */\n      dup3\n        /* \"#utility.yul\":8338:8356   */\n      add\n        /* \"#utility.yul\":8330:8356   */\n      swap1\n      pop\n        /* \"#utility.yul\":8402:8411   */\n      dup2\n        /* \"#utility.yul\":8396:8400   */\n      dup2\n        /* \"#utility.yul\":8392:8412   */\n      sub\n        /* \"#utility.yul\":8388:8389   */\n      0x00\n        /* \"#utility.yul\":8377:8386   */\n      dup4\n        /* \"#utility.yul\":8373:8390   */\n      add\n        /* \"#utility.yul\":8366:8413   */\n      mstore\n        /* \"#utility.yul\":8430:8561   */\n      tag_220\n        /* \"#utility.yul\":8556:8560   */\n      dup2\n        /* \"#utility.yul\":8430:8561   */\n      tag_133\n      jump\t// in\n    tag_220:\n        /* \"#utility.yul\":8422:8561   */\n      swap1\n      pop\n        /* \"#utility.yul\":8149:8568   */\n      swap2\n      swap1\n      pop\n      jump\t// out\n        /* \"#utility.yul\":8574:8754   */\n    tag_134:\n        /* \"#utility.yul\":8622:8699   */\n      0x4e487b7100000000000000000000000000000000000000000000000000000000\n        /* \"#utility.yul\":8619:8620   */\n      0x00\n        /* \"#utility.yul\":8612:8700   */\n      mstore\n        /* \"#utility.yul\":8719:8723   */\n      0x11\n        /* \"#utility.yul\":8716:8717   */\n      0x04\n        /* \"#utility.yul\":8709:8724   */\n      mstore\n        /* \"#utility.yul\":8743:8747   */\n      0x24\n        /* \"#utility.yul\":8740:8741   */\n      0x00\n        /* \"#utility.yul\":8733:8748   */\n      revert\n        /* \"#utility.yul\":8760:8954   */\n    tag_80:\n        /* \"#utility.yul\":8800:8804   */\n      0x00\n        /* \"#utility.yul\":8820:8840   */\n      tag_223\n        /* \"#utility.yul\":8838:8839   */\n      dup3\n        /* \"#utility.yul\":8820:8840   */\n      tag_120\n      jump\t// in\n    tag_223:\n        /* \"#utility.yul\":8815:8840   */\n      swap2\n      pop\n        /* \"#utility.yul\":8854:8874   */\n      tag_224\n        /* \"#utility.yul\":8872:8873   */\n      dup4\n        /* \"#utility.yul\":8854:8874   */\n      tag_120\n      jump\t// in\n    tag_224:\n        /* \"#utility.yul\":8849:8874   */\n      swap3\n      pop\n        /* \"#utility.yul\":8898:8899   */\n      dup3\n        /* \"#utility.yul\":8895:8896   */\n      dup3\n        /* \"#utility.yul\":8891:8900   */\n      sub\n        /* \"#utility.yul\":8883:8900   */\n      swap1\n      pop\n        /* \"#utility.yul\":8922:8923   */\n      dup2\n        /* \"#utility.yul\":8916:8920   */\n      dup2\n        /* \"#utility.yul\":8913:8924   */\n      gt\n        /* \"#utility.yul\":8910:8947   */\n      iszero\n      tag_225\n      jumpi\n        /* \"#utility.yul\":8927:8945   */\n      tag_226\n      tag_134\n      jump\t// in\n    tag_226:\n        /* \"#utility.yul\":8910:8947   */\n    tag_225:\n        /* \"#utility.yul\":8760:8954   */\n      swap3\n      swap2\n      pop\n      pop\n      jump\t// out\n        /* \"#utility.yul\":8960:9123   */\n    tag_135:\n        /* \"#utility.yul\":9100:9115   */\n      0x6e6f7420746865206f776e657200000000000000000000000000000000000000\n        /* \"#utility.yul\":9096:9097   */\n      0x00\n        /* \"#utility.yul\":9088:9094   */\n      dup3\n        /* \"#utility.yul\":9084:9098   */\n      add\n        /* \"#utility.yul\":9077:9116   */\n      mstore\n        /* \"#utility.yul\":8960:9123   */\n      pop\n      jump\t// out\n        /* \"#utility.yul\":9129:9495   */\n    tag_136:\n        /* \"#utility.yul\":9271:9274   */\n      0x00\n        /* \"#utility.yul\":9292:9359   */\n      tag_229\n        /* \"#utility.yul\":9356:9358   */\n      0x0d\n        /* \"#utility.yul\":9351:9354   */\n      dup4\n        /* \"#utility.yul\":9292:9359   */\n      tag_109\n      jump\t// in\n    tag_229:\n        /* \"#utility.yul\":9285:9359   */\n      swap2\n      pop\n        /* \"#utility.yul\":9368:9461   */\n      tag_230\n        /* \"#utility.yul\":9457:9460   */\n      dup3\n        /* \"#utility.yul\":9368:9461   */\n      tag_135\n      jump\t// in\n    tag_230:\n        /* \"#utility.yul\":9486:9488   */\n      0x20\n        /* \"#utility.yul\":9481:9484   */\n      dup3\n        /* \"#utility.yul\":9477:9489   */\n      add\n        /* \"#utility.yul\":9470:9489   */\n      swap1\n      pop\n        /* \"#utility.yul\":9129:9495   */\n      swap2\n      swap1\n      pop\n      jump\t// out\n        /* \"#utility.yul\":9501:9920   */\n    tag_87:\n        /* \"#utility.yul\":9667:9671   */\n      0x00\n        /* \"#utility.yul\":9705:9707   */\n      0x20\n        /* \"#utility.yul\":9694:9703   */\n      dup3\n        /* \"#utility.yul\":9690:9708   */\n      add\n        /* \"#utility.yul\":9682:9708   */\n      swap1\n      pop\n        /* \"#utility.yul\":9754:9763   */\n      dup2\n        /* \"#utility.yul\":9748:9752   */\n      dup2\n        /* \"#utility.yul\":9744:9764   */\n      sub\n        /* \"#utility.yul\":9740:9741   */\n      0x00\n        /* \"#utility.yul\":9729:9738   */\n      dup4\n        /* \"#utility.yul\":9725:9742   */\n      add\n        /* \"#utility.yul\":9718:9765   */\n      mstore\n        /* \"#utility.yul\":9782:9913   */\n      tag_232\n        /* \"#utility.yul\":9908:9912   */\n      dup2\n        /* \"#utility.yul\":9782:9913   */\n      tag_136\n      jump\t// in\n    tag_232:\n        /* \"#utility.yul\":9774:9913   */\n      swap1\n      pop\n        /* \"#utility.yul\":9501:9920   */\n      swap2\n      swap1\n      pop\n      jump\t// out\n        /* \"#utility.yul\":9926:10117   */\n    tag_104:\n        /* \"#utility.yul\":9966:9969   */\n      0x00\n        /* \"#utility.yul\":9985:10005   */\n      tag_234\n        /* \"#utility.yul\":10003:10004   */\n      dup3\n        /* \"#utility.yul\":9985:10005   */\n      tag_120\n      jump\t// in\n    tag_234:\n        /* \"#utility.yul\":9980:10005   */\n      swap2\n      pop\n        /* \"#utility.yul\":10019:10039   */\n      tag_235\n        /* \"#utility.yul\":10037:10038   */\n      dup4\n        /* \"#utility.yul\":10019:10039   */\n      tag_120\n      jump\t// in\n    tag_235:\n        /* \"#utility.yul\":10014:10039   */\n      swap3\n      pop\n        /* \"#utility.yul\":10062:10063   */\n      dup3\n        /* \"#utility.yul\":10059:10060   */\n      dup3\n        /* \"#utility.yul\":10055:10064   */\n      add\n        /* \"#utility.yul\":10048:10064   */\n      swap1\n      pop\n        /* \"#utility.yul\":10083:10086   */\n      dup1\n        /* \"#utility.yul\":10080:10081   */\n      dup3\n        /* \"#utility.yul\":10077:10087   */\n      gt\n        /* \"#utility.yul\":10074:10110   */\n      iszero\n      tag_236\n      jumpi\n        /* \"#utility.yul\":10090:10108   */\n      tag_237\n      tag_134\n      jump\t// in\n    tag_237:\n        /* \"#utility.yul\":10074:10110   */\n    tag_236:\n        /* \"#utility.yul\":9926:10117   */\n      swap3\n      swap2\n      pop\n      pop\n      jump\t// out\n\n    auxdata: 0xa26469706673582212207aec251a0d9944b8d776e356228b0630c36abcf43487f4f349dc813c573e0b8764736f6c634300081e0033\n}\n",
				"bytecode": {
					"linkReferences": {},
					"object": "608060405234801561000f575f5ffd5b506040516116dd3803806116dd833981810160405281019061003191906102f2565b6040518060400160405280600d81526020017f455448204b495020546f6b656e0000000000000000000000000000000000000081525081815f90816100769190610549565b5080600190816100869190610549565b50601260025f6101000a81548160ff021916908360ff16021790555050506100db336100b661012160201b60201c565b600a6100c29190610780565b620f42406100d091906107ca565b61013660201b60201c565b3360065f6101000a81548173ffffffffffffffffffffffffffffffffffffffff021916908373ffffffffffffffffffffffffffffffffffffffff1602179055505061083e565b5f60025f9054906101000a900460ff16905090565b8060045f8473ffffffffffffffffffffffffffffffffffffffff1673ffffffffffffffffffffffffffffffffffffffff1681526020019081526020015f205f828254610182919061080b565b925050819055508060035f82825461019a919061080b565b925050819055505050565b5f604051905090565b5f5ffd5b5f5ffd5b5f5ffd5b5f5ffd5b5f601f19601f8301169050919050565b7f4e487b71000000000000000000000000000000000000000000000000000000005f52604160045260245ffd5b610204826101be565b810181811067ffffffffffffffff82111715610223576102226101ce565b5b80604052505050565b5f6102356101a5565b905061024182826101fb565b919050565b5f67ffffffffffffffff8211156102605761025f6101ce565b5b610269826101be565b9050602081019050919050565b8281835e5f83830152505050565b5f61029661029184610246565b61022c565b9050828152602081018484840111156102b2576102b16101ba565b5b6102bd848285610276565b509392505050565b5f82601f8301126102d9576102d86101b6565b5b81516102e9848260208601610284565b91505092915050565b5f60208284031215610307576103066101ae565b5b5f82015167ffffffffffffffff811115610324576103236101b2565b5b610330848285016102c5565b91505092915050565b5f81519050919050565b7f4e487b71000000000000000000000000000000000000000000000000000000005f52602260045260245ffd5b5f600282049050600182168061038757607f821691505b60208210810361039a57610399610343565b5b50919050565b5f819050815f5260205f209050919050565b5f6020601f8301049050919050565b5f82821b905092915050565b5f600883026103fc7fffffffffffffffffffffffffffffffffffffffffffffffffffffffffffffffff826103c1565b61040686836103c1565b95508019841693508086168417925050509392505050565b5f819050919050565b5f819050919050565b5f61044a6104456104408461041e565b610427565b61041e565b9050919050565b5f819050919050565b61046383610430565b61047761046f82610451565b8484546103cd565b825550505050565b5f5f905090565b61048e61047f565b61049981848461045a565b505050565b5b818110156104bc576104b15f82610486565b60018101905061049f565b5050565b601f821115610501576104d2816103a0565b6104db846103b2565b810160208510156104ea578190505b6104fe6104f6856103b2565b83018261049e565b50505b505050565b5f82821c905092915050565b5f6105215f1984600802610506565b1980831691505092915050565b5f6105398383610512565b9150826002028217905092915050565b61055282610339565b67ffffffffffffffff81111561056b5761056a6101ce565b5b6105758254610370565b6105808282856104c0565b5f60209050601f8311600181146105b1575f841561059f578287015190505b6105a9858261052e565b865550610610565b601f1984166105bf866103a0565b5f5b828110156105e6578489015182556001820191506020850194506020810190506105c1565b8683101561060357848901516105ff601f891682610512565b8355505b6001600288020188555050505b505050505050565b7f4e487b71000000000000000000000000000000000000000000000000000000005f52601160045260245ffd5b5f8160011c9050919050565b5f5f8291508390505b600185111561069a5780860481111561067657610675610618565b5b60018516156106855780820291505b808102905061069385610645565b945061065a565b94509492505050565b5f826106b2576001905061076d565b816106bf575f905061076d565b81600181146106d557600281146106df5761070e565b600191505061076d565b60ff8411156106f1576106f0610618565b5b8360020a91508482111561070857610707610618565b5b5061076d565b5060208310610133831016604e8410600b84101617156107435782820a90508381111561073e5761073d610618565b5b61076d565b6107508484846001610651565b9250905081840481111561076757610766610618565b5b81810290505b9392505050565b5f60ff82169050919050565b5f61078a8261041e565b915061079583610774565b92506107c27fffffffffffffffffffffffffffffffffffffffffffffffffffffffffffffffff84846106a3565b905092915050565b5f6107d48261041e565b91506107df8361041e565b92508282026107ed8161041e565b9150828204841483151761080457610803610618565b5b5092915050565b5f6108158261041e565b91506108208361041e565b925082820190508082111561083857610837610618565b5b92915050565b610e928061084b5f395ff3fe608060405234801561000f575f5ffd5b50600436106100a7575f3560e01c806340c10f191161006f57806340c10f191461016557806370a08231146101815780638da5cb5b146101b157806395d89b41146101cf578063a9059cbb146101ed578063dd62ed3e1461021d576100a7565b806306fdde03146100ab578063095ea7b3146100c957806318160ddd146100f957806323b872dd14610117578063313ce56714610147575b5f5ffd5b6100b361024d565b6040516100c09190610963565b60405180910390f35b6100e360048036038101906100de9190610a14565b6102dc565b6040516100f09190610a6c565b60405180910390f35b610101610428565b60405161010e9190610a94565b60405180910390f35b610131600480360381019061012c9190610aad565b610431565b60405161013e9190610a6c565b60405180910390f35b61014f61058f565b60405161015c9190610b18565b60405180910390f35b61017f600480360381019061017a9190610a14565b6105a4565b005b61019b60048036038101906101969190610b31565b610641565b6040516101a89190610a94565b60405180910390f35b6101b9610687565b6040516101c69190610b6b565b60405180910390f35b6101d76106ac565b6040516101e49190610963565b60405180910390f35b61020760048036038101906102029190610a14565b61073c565b6040516102149190610a6c565b60405180910390f35b61023760048036038101906102329190610b84565b610750565b6040516102449190610a94565b60405180910390f35b60605f805461025b90610bef565b80601f016020809104026020016040519081016040528092919081815260200182805461028790610bef565b80156102d25780601f106102a9576101008083540402835291602001916102d2565b820191905f5260205f20905b8154815290600101906020018083116102b557829003601f168201915b5050505050905090565b5f5f82148061036257505f60055f3373ffffffffffffffffffffffffffffffffffffffff1673ffffffffffffffffffffffffffffffffffffffff1681526020019081526020015f205f8573ffffffffffffffffffffffffffffffffffffffff1673ffffffffffffffffffffffffffffffffffffffff1681526020019081526020015f2054145b6103a1576040517f08c379a000000000000000000000000000000000000000000000000000000000815260040161039890610cb5565b60405180910390fd5b8160055f3373ffffffffffffffffffffffffffffffffffffffff1673ffffffffffffffffffffffffffffffffffffffff1681526020019081526020015f205f8573ffffffffffffffffffffffffffffffffffffffff1673ffffffffffffffffffffffffffffffffffffffff1681526020019081526020015f20819055506001905092915050565b5f600354905090565b5f8160055f8673ffffffffffffffffffffffffffffffffffffffff1673ffffffffffffffffffffffffffffffffffffffff1681526020019081526020015f205f3373ffffffffffffffffffffffffffffffffffffffff1673ffffffffffffffffffffffffffffffffffffffff1681526020019081526020015f205410156104ed576040517f08c379a00000000000000000000000000000000000000000000000000000000081526004016104e490610d43565b60405180910390fd5b8160055f8673ffffffffffffffffffffffffffffffffffffffff1673ffffffffffffffffffffffffffffffffffffffff1681526020019081526020015f205f3373ffffffffffffffffffffffffffffffffffffffff1673ffffffffffffffffffffffffffffffffffffffff1681526020019081526020015f205f8282546105749190610d8e565b925050819055506105868484846107d2565b90509392505050565b5f60025f9054906101000a900460ff16905090565b3373ffffffffffffffffffffffffffffffffffffffff1660065f9054906101000a900473ffffffffffffffffffffffffffffffffffffffff1673ffffffffffffffffffffffffffffffffffffffff1614610633576040517f08c379a000000000000000000000000000000000000000000000000000000000815260040161062a90610e0b565b60405180910390fd5b61063d8282610884565b5050565b5f60045f8373ffffffffffffffffffffffffffffffffffffffff1673ffffffffffffffffffffffffffffffffffffffff1681526020019081526020015f20549050919050565b60065f9054906101000a900473ffffffffffffffffffffffffffffffffffffffff1681565b6060600180546106bb90610bef565b80601f01602080910402602001604051908101604052809291908181526020018280546106e790610bef565b80156107325780601f1061070957610100808354040283529160200191610732565b820191905f5260205f20905b81548152906001019060200180831161071557829003601f168201915b5050505050905090565b5f6107483384846107d2565b905092915050565b5f60055f8473ffffffffffffffffffffffffffffffffffffffff1673ffffffffffffffffffffffffffffffffffffffff1681526020019081526020015f205f8373ffffffffffffffffffffffffffffffffffffffff1673ffffffffffffffffffffffffffffffffffffffff1681526020019081526020015f2054905092915050565b5f8160045f8673ffffffffffffffffffffffffffffffffffffffff1673ffffffffffffffffffffffffffffffffffffffff1681526020019081526020015f205f82825461081f9190610d8e565b925050819055508160045f8573ffffffffffffffffffffffffffffffffffffffff1673ffffffffffffffffffffffffffffffffffffffff1681526020019081526020015f205f8282546108729190610e29565b92505081905550600190509392505050565b8060045f8473ffffffffffffffffffffffffffffffffffffffff1673ffffffffffffffffffffffffffffffffffffffff1681526020019081526020015f205f8282546108d09190610e29565b925050819055508060035f8282546108e89190610e29565b925050819055505050565b5f81519050919050565b5f82825260208201905092915050565b8281835e5f83830152505050565b5f601f19601f8301169050919050565b5f610935826108f3565b61093f81856108fd565b935061094f81856020860161090d565b6109588161091b565b840191505092915050565b5f6020820190508181035f83015261097b818461092b565b905092915050565b5f5ffd5b5f73ffffffffffffffffffffffffffffffffffffffff82169050919050565b5f6109b082610987565b9050919050565b6109c0816109a6565b81146109ca575f5ffd5b50565b5f813590506109db816109b7565b92915050565b5f819050919050565b6109f3816109e1565b81146109fd575f5ffd5b50565b5f81359050610a0e816109ea565b92915050565b5f5f60408385031215610a2a57610a29610983565b5b5f610a37858286016109cd565b9250506020610a4885828601610a00565b9150509250929050565b5f8115159050919050565b610a6681610a52565b82525050565b5f602082019050610a7f5f830184610a5d565b92915050565b610a8e816109e1565b82525050565b5f602082019050610aa75f830184610a85565b92915050565b5f5f5f60608486031215610ac457610ac3610983565b5b5f610ad1868287016109cd565b9350506020610ae2868287016109cd565b9250506040610af386828701610a00565b9150509250925092565b5f60ff82169050919050565b610b1281610afd565b82525050565b5f602082019050610b2b5f830184610b09565b92915050565b5f60208284031215610b4657610b45610983565b5b5f610b53848285016109cd565b91505092915050565b610b65816109a6565b82525050565b5f602082019050610b7e5f830184610b5c565b92915050565b5f5f60408385031215610b9a57610b99610983565b5b5f610ba7858286016109cd565b9250506020610bb8858286016109cd565b9150509250929050565b7f4e487b71000000000000000000000000000000000000000000000000000000005f52602260045260245ffd5b5f6002820490506001821680610c0657607f821691505b602082108103610c1957610c18610bc2565b5b50919050565b7f4d7573742073657420616c6c6f77616e636520746f2030206265666f726520635f8201527f68616e67696e6720697420746f2061206e65772076616c75652028736565204560208201527f52433230207261636520636f6e646974696f6e207761726e696e672900000000604082015250565b5f610c9f605c836108fd565b9150610caa82610c1f565b606082019050919050565b5f6020820190508181035f830152610ccc81610c93565b9050919050565b7f45524332303a207472616e7366657220616d6f756e74206578636565647320615f8201527f6c6c6f77616e6365000000000000000000000000000000000000000000000000602082015250565b5f610d2d6028836108fd565b9150610d3882610cd3565b604082019050919050565b5f6020820190508181035f830152610d5a81610d21565b9050919050565b7f4e487b71000000000000000000000000000000000000000000000000000000005f52601160045260245ffd5b5f610d98826109e1565b9150610da3836109e1565b9250828203905081811115610dbb57610dba610d61565b5b92915050565b7f6e6f7420746865206f776e6572000000000000000000000000000000000000005f82015250565b5f610df5600d836108fd565b9150610e0082610dc1565b602082019050919050565b5f6020820190508181035f830152610e2281610de9565b9050919050565b5f610e33826109e1565b9150610e3e836109e1565b9250828201905080821115610e5657610e55610d61565b5b9291505056fea26469706673582212207aec251a0d9944b8d776e356228b0630c36abcf43487f4f349dc813c573e0b8764736f6c634300081e0033",
					"opcodes": "PUSH1 0x80 PUSH1 0x40 MSTORE CALLVALUE DUP1 ISZERO PUSH2 0xF JUMPI PUSH0 PUSH0 REVERT JUMPDEST POP PUSH1 0x40 MLOAD PUSH2 0x16DD CODESIZE SUB DUP1 PUSH2 0x16DD DUP4 CODECOPY DUP2 DUP2 ADD PUSH1 0x40 MSTORE DUP2 ADD SWAP1 PUSH2 0x31 SWAP2 SWAP1 PUSH2 0x2F2 JUMP JUMPDEST PUSH1 0x40 MLOAD DUP1 PUSH1 0x40 ADD PUSH1 0x40 MSTORE DUP1 PUSH1 0xD DUP2 MSTORE PUSH1 0x20 ADD PUSH32 0x455448204B495020546F6B656E00000000000000000000000000000000000000 DUP2 MSTORE POP DUP2 DUP2 PUSH0 SWAP1 DUP2 PUSH2 0x76 SWAP2 SWAP1 PUSH2 0x549 JUMP JUMPDEST POP DUP1 PUSH1 0x1 SWAP1 DUP2 PUSH2 0x86 SWAP2 SWAP1 PUSH2 0x549 JUMP JUMPDEST POP PUSH1 0x12 PUSH1 0x2 PUSH0 PUSH2 0x100 EXP DUP2 SLOAD DUP2 PUSH1 0xFF MUL NOT AND SWAP1 DUP4 PUSH1 0xFF AND MUL OR SWAP1 SSTORE POP POP POP PUSH2 0xDB CALLER PUSH2 0xB6 PUSH2 0x121 PUSH1 0x20 SHL PUSH1 0x20 SHR JUMP JUMPDEST PUSH1 0xA PUSH2 0xC2 SWAP2 SWAP1 PUSH2 0x780 JUMP JUMPDEST PUSH3 0xF4240 PUSH2 0xD0 SWAP2 SWAP1 PUSH2 0x7CA JUMP JUMPDEST PUSH2 0x136 PUSH1 0x20 SHL PUSH1 0x20 SHR JUMP JUMPDEST CALLER PUSH1 0x6 PUSH0 PUSH2 0x100 EXP DUP2 SLOAD DUP2 PUSH20 0xFFFFFFFFFFFFFFFFFFFFFFFFFFFFFFFFFFFFFFFF MUL NOT AND SWAP1 DUP4 PUSH20 0xFFFFFFFFFFFFFFFFFFFFFFFFFFFFFFFFFFFFFFFF AND MUL OR SWAP1 SSTORE POP POP PUSH2 0x83E JUMP JUMPDEST PUSH0 PUSH1 0x2 PUSH0 SWAP1 SLOAD SWAP1 PUSH2 0x100 EXP SWAP1 DIV PUSH1 0xFF AND SWAP1 POP SWAP1 JUMP JUMPDEST DUP1 PUSH1 0x4 PUSH0 DUP5 PUSH20 0xFFFFFFFFFFFFFFFFFFFFFFFFFFFFFFFFFFFFFFFF AND PUSH20 0xFFFFFFFFFFFFFFFFFFFFFFFFFFFFFFFFFFFFFFFF AND DUP2 MSTORE PUSH1 0x20 ADD SWAP1 DUP2 MSTORE PUSH1 0x20 ADD PUSH0 KECCAK256 PUSH0 DUP3 DUP3 SLOAD PUSH2 0x182 SWAP2 SWAP1 PUSH2 0x80B JUMP JUMPDEST SWAP3 POP POP DUP2 SWAP1 SSTORE POP DUP1 PUSH1 0x3 PUSH0 DUP3 DUP3 SLOAD PUSH2 0x19A SWAP2 SWAP1 PUSH2 0x80B JUMP JUMPDEST SWAP3 POP POP DUP2 SWAP1 SSTORE POP POP POP JUMP JUMPDEST PUSH0 PUSH1 0x40 MLOAD SWAP1 POP SWAP1 JUMP JUMPDEST PUSH0 PUSH0 REVERT JUMPDEST PUSH0 PUSH0 REVERT JUMPDEST PUSH0 PUSH0 REVERT JUMPDEST PUSH0 PUSH0 REVERT JUMPDEST PUSH0 PUSH1 0x1F NOT PUSH1 0x1F DUP4 ADD AND SWAP1 POP SWAP2 SWAP1 POP JUMP JUMPDEST PUSH32 0x4E487B7100000000000000000000000000000000000000000000000000000000 PUSH0 MSTORE PUSH1 0x41 PUSH1 0x4 MSTORE PUSH1 0x24 PUSH0 REVERT JUMPDEST PUSH2 0x204 DUP3 PUSH2 0x1BE JUMP JUMPDEST DUP2 ADD DUP2 DUP2 LT PUSH8 0xFFFFFFFFFFFFFFFF DUP3 GT OR ISZERO PUSH2 0x223 JUMPI PUSH2 0x222 PUSH2 0x1CE JUMP JUMPDEST JUMPDEST DUP1 PUSH1 0x40 MSTORE POP POP POP JUMP JUMPDEST PUSH0 PUSH2 0x235 PUSH2 0x1A5 JUMP JUMPDEST SWAP1 POP PUSH2 0x241 DUP3 DUP3 PUSH2 0x1FB JUMP JUMPDEST SWAP2 SWAP1 POP JUMP JUMPDEST PUSH0 PUSH8 0xFFFFFFFFFFFFFFFF DUP3 GT ISZERO PUSH2 0x260 JUMPI PUSH2 0x25F PUSH2 0x1CE JUMP JUMPDEST JUMPDEST PUSH2 0x269 DUP3 PUSH2 0x1BE JUMP JUMPDEST SWAP1 POP PUSH1 0x20 DUP2 ADD SWAP1 POP SWAP2 SWAP1 POP JUMP JUMPDEST DUP3 DUP2 DUP4 MCOPY PUSH0 DUP4 DUP4 ADD MSTORE POP POP POP JUMP JUMPDEST PUSH0 PUSH2 0x296 PUSH2 0x291 DUP5 PUSH2 0x246 JUMP JUMPDEST PUSH2 0x22C JUMP JUMPDEST SWAP1 POP DUP3 DUP2 MSTORE PUSH1 0x20 DUP2 ADD DUP5 DUP5 DUP5 ADD GT ISZERO PUSH2 0x2B2 JUMPI PUSH2 0x2B1 PUSH2 0x1BA JUMP JUMPDEST JUMPDEST PUSH2 0x2BD DUP5 DUP3 DUP6 PUSH2 0x276 JUMP JUMPDEST POP SWAP4 SWAP3 POP POP POP JUMP JUMPDEST PUSH0 DUP3 PUSH1 0x1F DUP4 ADD SLT PUSH2 0x2D9 JUMPI PUSH2 0x2D8 PUSH2 0x1B6 JUMP JUMPDEST JUMPDEST DUP2 MLOAD PUSH2 0x2E9 DUP5 DUP3 PUSH1 0x20 DUP7 ADD PUSH2 0x284 JUMP JUMPDEST SWAP2 POP POP SWAP3 SWAP2 POP POP JUMP JUMPDEST PUSH0 PUSH1 0x20 DUP3 DUP5 SUB SLT ISZERO PUSH2 0x307 JUMPI PUSH2 0x306 PUSH2 0x1AE JUMP JUMPDEST JUMPDEST PUSH0 DUP3 ADD MLOAD PUSH8 0xFFFFFFFFFFFFFFFF DUP2 GT ISZERO PUSH2 0x324 JUMPI PUSH2 0x323 PUSH2 0x1B2 JUMP JUMPDEST JUMPDEST PUSH2 0x330 DUP5 DUP3 DUP6 ADD PUSH2 0x2C5 JUMP JUMPDEST SWAP2 POP POP SWAP3 SWAP2 POP POP JUMP JUMPDEST PUSH0 DUP2 MLOAD SWAP1 POP SWAP2 SWAP1 POP JUMP JUMPDEST PUSH32 0x4E487B7100000000000000000000000000000000000000000000000000000000 PUSH0 MSTORE PUSH1 0x22 PUSH1 0x4 MSTORE PUSH1 0x24 PUSH0 REVERT JUMPDEST PUSH0 PUSH1 0x2 DUP3 DIV SWAP1 POP PUSH1 0x1 DUP3 AND DUP1 PUSH2 0x387 JUMPI PUSH1 0x7F DUP3 AND SWAP2 POP JUMPDEST PUSH1 0x20 DUP3 LT DUP2 SUB PUSH2 0x39A JUMPI PUSH2 0x399 PUSH2 0x343 JUMP JUMPDEST JUMPDEST POP SWAP2 SWAP1 POP JUMP JUMPDEST PUSH0 DUP2 SWAP1 POP DUP2 PUSH0 MSTORE PUSH1 0x20 PUSH0 KECCAK256 SWAP1 POP SWAP2 SWAP1 POP JUMP JUMPDEST PUSH0 PUSH1 0x20 PUSH1 0x1F DUP4 ADD DIV SWAP1 POP SWAP2 SWAP1 POP JUMP JUMPDEST PUSH0 DUP3 DUP3 SHL SWAP1 POP SWAP3 SWAP2 POP POP JUMP JUMPDEST PUSH0 PUSH1 0x8 DUP4 MUL PUSH2 0x3FC PUSH32 0xFFFFFFFFFFFFFFFFFFFFFFFFFFFFFFFFFFFFFFFFFFFFFFFFFFFFFFFFFFFFFFFF DUP3 PUSH2 0x3C1 JUMP JUMPDEST PUSH2 0x406 DUP7 DUP4 PUSH2 0x3C1 JUMP JUMPDEST SWAP6 POP DUP1 NOT DUP5 AND SWAP4 POP DUP1 DUP7 AND DUP5 OR SWAP3 POP POP POP SWAP4 SWAP3 POP POP POP JUMP JUMPDEST PUSH0 DUP2 SWAP1 POP SWAP2 SWAP1 POP JUMP JUMPDEST PUSH0 DUP2 SWAP1 POP SWAP2 SWAP1 POP JUMP JUMPDEST PUSH0 PUSH2 0x44A PUSH2 0x445 PUSH2 0x440 DUP5 PUSH2 0x41E JUMP JUMPDEST PUSH2 0x427 JUMP JUMPDEST PUSH2 0x41E JUMP JUMPDEST SWAP1 POP SWAP2 SWAP1 POP JUMP JUMPDEST PUSH0 DUP2 SWAP1 POP SWAP2 SWAP1 POP JUMP JUMPDEST PUSH2 0x463 DUP4 PUSH2 0x430 JUMP JUMPDEST PUSH2 0x477 PUSH2 0x46F DUP3 PUSH2 0x451 JUMP JUMPDEST DUP5 DUP5 SLOAD PUSH2 0x3CD JUMP JUMPDEST DUP3 SSTORE POP POP POP POP JUMP JUMPDEST PUSH0 PUSH0 SWAP1 POP SWAP1 JUMP JUMPDEST PUSH2 0x48E PUSH2 0x47F JUMP JUMPDEST PUSH2 0x499 DUP2 DUP5 DUP5 PUSH2 0x45A JUMP JUMPDEST POP POP POP JUMP JUMPDEST JUMPDEST DUP2 DUP2 LT ISZERO PUSH2 0x4BC JUMPI PUSH2 0x4B1 PUSH0 DUP3 PUSH2 0x486 JUMP JUMPDEST PUSH1 0x1 DUP2 ADD SWAP1 POP PUSH2 0x49F JUMP JUMPDEST POP POP JUMP JUMPDEST PUSH1 0x1F DUP3 GT ISZERO PUSH2 0x501 JUMPI PUSH2 0x4D2 DUP2 PUSH2 0x3A0 JUMP JUMPDEST PUSH2 0x4DB DUP5 PUSH2 0x3B2 JUMP JUMPDEST DUP2 ADD PUSH1 0x20 DUP6 LT ISZERO PUSH2 0x4EA JUMPI DUP2 SWAP1 POP JUMPDEST PUSH2 0x4FE PUSH2 0x4F6 DUP6 PUSH2 0x3B2 JUMP JUMPDEST DUP4 ADD DUP3 PUSH2 0x49E JUMP JUMPDEST POP POP JUMPDEST POP POP POP JUMP JUMPDEST PUSH0 DUP3 DUP3 SHR SWAP1 POP SWAP3 SWAP2 POP POP JUMP JUMPDEST PUSH0 PUSH2 0x521 PUSH0 NOT DUP5 PUSH1 0x8 MUL PUSH2 0x506 JUMP JUMPDEST NOT DUP1 DUP4 AND SWAP2 POP POP SWAP3 SWAP2 POP POP JUMP JUMPDEST PUSH0 PUSH2 0x539 DUP4 DUP4 PUSH2 0x512 JUMP JUMPDEST SWAP2 POP DUP3 PUSH1 0x2 MUL DUP3 OR SWAP1 POP SWAP3 SWAP2 POP POP JUMP JUMPDEST PUSH2 0x552 DUP3 PUSH2 0x339 JUMP JUMPDEST PUSH8 0xFFFFFFFFFFFFFFFF DUP2 GT ISZERO PUSH2 0x56B JUMPI PUSH2 0x56A PUSH2 0x1CE JUMP JUMPDEST JUMPDEST PUSH2 0x575 DUP3 SLOAD PUSH2 0x370 JUMP JUMPDEST PUSH2 0x580 DUP3 DUP3 DUP6 PUSH2 0x4C0 JUMP JUMPDEST PUSH0 PUSH1 0x20 SWAP1 POP PUSH1 0x1F DUP4 GT PUSH1 0x1 DUP2 EQ PUSH2 0x5B1 JUMPI PUSH0 DUP5 ISZERO PUSH2 0x59F JUMPI DUP3 DUP8 ADD MLOAD SWAP1 POP JUMPDEST PUSH2 0x5A9 DUP6 DUP3 PUSH2 0x52E JUMP JUMPDEST DUP7 SSTORE POP PUSH2 0x610 JUMP JUMPDEST PUSH1 0x1F NOT DUP5 AND PUSH2 0x5BF DUP7 PUSH2 0x3A0 JUMP JUMPDEST PUSH0 JUMPDEST DUP3 DUP2 LT ISZERO PUSH2 0x5E6 JUMPI DUP5 DUP10 ADD MLOAD DUP3 SSTORE PUSH1 0x1 DUP3 ADD SWAP2 POP PUSH1 0x20 DUP6 ADD SWAP5 POP PUSH1 0x20 DUP2 ADD SWAP1 POP PUSH2 0x5C1 JUMP JUMPDEST DUP7 DUP4 LT ISZERO PUSH2 0x603 JUMPI DUP5 DUP10 ADD MLOAD PUSH2 0x5FF PUSH1 0x1F DUP10 AND DUP3 PUSH2 0x512 JUMP JUMPDEST DUP4 SSTORE POP JUMPDEST PUSH1 0x1 PUSH1 0x2 DUP9 MUL ADD DUP9 SSTORE POP POP POP JUMPDEST POP POP POP POP POP POP JUMP JUMPDEST PUSH32 0x4E487B7100000000000000000000000000000000000000000000000000000000 PUSH0 MSTORE PUSH1 0x11 PUSH1 0x4 MSTORE PUSH1 0x24 PUSH0 REVERT JUMPDEST PUSH0 DUP2 PUSH1 0x1 SHR SWAP1 POP SWAP2 SWAP1 POP JUMP JUMPDEST PUSH0 PUSH0 DUP3 SWAP2 POP DUP4 SWAP1 POP JUMPDEST PUSH1 0x1 DUP6 GT ISZERO PUSH2 0x69A JUMPI DUP1 DUP7 DIV DUP2 GT ISZERO PUSH2 0x676 JUMPI PUSH2 0x675 PUSH2 0x618 JUMP JUMPDEST JUMPDEST PUSH1 0x1 DUP6 AND ISZERO PUSH2 0x685 JUMPI DUP1 DUP3 MUL SWAP2 POP JUMPDEST DUP1 DUP2 MUL SWAP1 POP PUSH2 0x693 DUP6 PUSH2 0x645 JUMP JUMPDEST SWAP5 POP PUSH2 0x65A JUMP JUMPDEST SWAP5 POP SWAP5 SWAP3 POP POP POP JUMP JUMPDEST PUSH0 DUP3 PUSH2 0x6B2 JUMPI PUSH1 0x1 SWAP1 POP PUSH2 0x76D JUMP JUMPDEST DUP2 PUSH2 0x6BF JUMPI PUSH0 SWAP1 POP PUSH2 0x76D JUMP JUMPDEST DUP2 PUSH1 0x1 DUP2 EQ PUSH2 0x6D5 JUMPI PUSH1 0x2 DUP2 EQ PUSH2 0x6DF JUMPI PUSH2 0x70E JUMP JUMPDEST PUSH1 0x1 SWAP2 POP POP PUSH2 0x76D JUMP JUMPDEST PUSH1 0xFF DUP5 GT ISZERO PUSH2 0x6F1 JUMPI PUSH2 0x6F0 PUSH2 0x618 JUMP JUMPDEST JUMPDEST DUP4 PUSH1 0x2 EXP SWAP2 POP DUP5 DUP3 GT ISZERO PUSH2 0x708 JUMPI PUSH2 0x707 PUSH2 0x618 JUMP JUMPDEST JUMPDEST POP PUSH2 0x76D JUMP JUMPDEST POP PUSH1 0x20 DUP4 LT PUSH2 0x133 DUP4 LT AND PUSH1 0x4E DUP5 LT PUSH1 0xB DUP5 LT AND OR ISZERO PUSH2 0x743 JUMPI DUP3 DUP3 EXP SWAP1 POP DUP4 DUP2 GT ISZERO PUSH2 0x73E JUMPI PUSH2 0x73D PUSH2 0x618 JUMP JUMPDEST JUMPDEST PUSH2 0x76D JUMP JUMPDEST PUSH2 0x750 DUP5 DUP5 DUP5 PUSH1 0x1 PUSH2 0x651 JUMP JUMPDEST SWAP3 POP SWAP1 POP DUP2 DUP5 DIV DUP2 GT ISZERO PUSH2 0x767 JUMPI PUSH2 0x766 PUSH2 0x618 JUMP JUMPDEST JUMPDEST DUP2 DUP2 MUL SWAP1 POP JUMPDEST SWAP4 SWAP3 POP POP POP JUMP JUMPDEST PUSH0 PUSH1 0xFF DUP3 AND SWAP1 POP SWAP2 SWAP1 POP JUMP JUMPDEST PUSH0 PUSH2 0x78A DUP3 PUSH2 0x41E JUMP JUMPDEST SWAP2 POP PUSH2 0x795 DUP4 PUSH2 0x774 JUMP JUMPDEST SWAP3 POP PUSH2 0x7C2 PUSH32 0xFFFFFFFFFFFFFFFFFFFFFFFFFFFFFFFFFFFFFFFFFFFFFFFFFFFFFFFFFFFFFFFF DUP5 DUP5 PUSH2 0x6A3 JUMP JUMPDEST SWAP1 POP SWAP3 SWAP2 POP POP JUMP JUMPDEST PUSH0 PUSH2 0x7D4 DUP3 PUSH2 0x41E JUMP JUMPDEST SWAP2 POP PUSH2 0x7DF DUP4 PUSH2 0x41E JUMP JUMPDEST SWAP3 POP DUP3 DUP3 MUL PUSH2 0x7ED DUP2 PUSH2 0x41E JUMP JUMPDEST SWAP2 POP DUP3 DUP3 DIV DUP5 EQ DUP4 ISZERO OR PUSH2 0x804 JUMPI PUSH2 0x803 PUSH2 0x618 JUMP JUMPDEST JUMPDEST POP SWAP3 SWAP2 POP POP JUMP JUMPDEST PUSH0 PUSH2 0x815 DUP3 PUSH2 0x41E JUMP JUMPDEST SWAP2 POP PUSH2 0x820 DUP4 PUSH2 0x41E JUMP JUMPDEST SWAP3 POP DUP3 DUP3 ADD SWAP1 POP DUP1 DUP3 GT ISZERO PUSH2 0x838 JUMPI PUSH2 0x837 PUSH2 0x618 JUMP JUMPDEST JUMPDEST SWAP3 SWAP2 POP POP JUMP JUMPDEST PUSH2 0xE92 DUP1 PUSH2 0x84B PUSH0 CODECOPY PUSH0 RETURN INVALID PUSH1 0x80 PUSH1 0x40 MSTORE CALLVALUE DUP1 ISZERO PUSH2 0xF JUMPI PUSH0 PUSH0 REVERT JUMPDEST POP PUSH1 0x4 CALLDATASIZE LT PUSH2 0xA7 JUMPI PUSH0 CALLDATALOAD PUSH1 0xE0 SHR DUP1 PUSH4 0x40C10F19 GT PUSH2 0x6F JUMPI DUP1 PUSH4 0x40C10F19 EQ PUSH2 0x165 JUMPI DUP1 PUSH4 0x70A08231 EQ PUSH2 0x181 JUMPI DUP1 PUSH4 0x8DA5CB5B EQ PUSH2 0x1B1 JUMPI DUP1 PUSH4 0x95D89B41 EQ PUSH2 0x1CF JUMPI DUP1 PUSH4 0xA9059CBB EQ PUSH2 0x1ED JUMPI DUP1 PUSH4 0xDD62ED3E EQ PUSH2 0x21D JUMPI PUSH2 0xA7 JUMP JUMPDEST DUP1 PUSH4 0x6FDDE03 EQ PUSH2 0xAB JUMPI DUP1 PUSH4 0x95EA7B3 EQ PUSH2 0xC9 JUMPI DUP1 PUSH4 0x18160DDD EQ PUSH2 0xF9 JUMPI DUP1 PUSH4 0x23B872DD EQ PUSH2 0x117 JUMPI DUP1 PUSH4 0x313CE567 EQ PUSH2 0x147 JUMPI JUMPDEST PUSH0 PUSH0 REVERT JUMPDEST PUSH2 0xB3 PUSH2 0x24D JUMP JUMPDEST PUSH1 0x40 MLOAD PUSH2 0xC0 SWAP2 SWAP1 PUSH2 0x963 JUMP JUMPDEST PUSH1 0x40 MLOAD DUP1 SWAP2 SUB SWAP1 RETURN JUMPDEST PUSH2 0xE3 PUSH1 0x4 DUP1 CALLDATASIZE SUB DUP2 ADD SWAP1 PUSH2 0xDE SWAP2 SWAP1 PUSH2 0xA14 JUMP JUMPDEST PUSH2 0x2DC JUMP JUMPDEST PUSH1 0x40 MLOAD PUSH2 0xF0 SWAP2 SWAP1 PUSH2 0xA6C JUMP JUMPDEST PUSH1 0x40 MLOAD DUP1 SWAP2 SUB SWAP1 RETURN JUMPDEST PUSH2 0x101 PUSH2 0x428 JUMP JUMPDEST PUSH1 0x40 MLOAD PUSH2 0x10E SWAP2 SWAP1 PUSH2 0xA94 JUMP JUMPDEST PUSH1 0x40 MLOAD DUP1 SWAP2 SUB SWAP1 RETURN JUMPDEST PUSH2 0x131 PUSH1 0x4 DUP1 CALLDATASIZE SUB DUP2 ADD SWAP1 PUSH2 0x12C SWAP2 SWAP1 PUSH2 0xAAD JUMP JUMPDEST PUSH2 0x431 JUMP JUMPDEST PUSH1 0x40 MLOAD PUSH2 0x13E SWAP2 SWAP1 PUSH2 0xA6C JUMP JUMPDEST PUSH1 0x40 MLOAD DUP1 SWAP2 SUB SWAP1 RETURN JUMPDEST PUSH2 0x14F PUSH2 0x58F JUMP JUMPDEST PUSH1 0x40 MLOAD PUSH2 0x15C SWAP2 SWAP1 PUSH2 0xB18 JUMP JUMPDEST PUSH1 0x40 MLOAD DUP1 SWAP2 SUB SWAP1 RETURN JUMPDEST PUSH2 0x17F PUSH1 0x4 DUP1 CALLDATASIZE SUB DUP2 ADD SWAP1 PUSH2 0x17A SWAP2 SWAP1 PUSH2 0xA14 JUMP JUMPDEST PUSH2 0x5A4 JUMP JUMPDEST STOP JUMPDEST PUSH2 0x19B PUSH1 0x4 DUP1 CALLDATASIZE SUB DUP2 ADD SWAP1 PUSH2 0x196 SWAP2 SWAP1 PUSH2 0xB31 JUMP JUMPDEST PUSH2 0x641 JUMP JUMPDEST PUSH1 0x40 MLOAD PUSH2 0x1A8 SWAP2 SWAP1 PUSH2 0xA94 JUMP JUMPDEST PUSH1 0x40 MLOAD DUP1 SWAP2 SUB SWAP1 RETURN JUMPDEST PUSH2 0x1B9 PUSH2 0x687 JUMP JUMPDEST PUSH1 0x40 MLOAD PUSH2 0x1C6 SWAP2 SWAP1 PUSH2 0xB6B JUMP JUMPDEST PUSH1 0x40 MLOAD DUP1 SWAP2 SUB SWAP1 RETURN JUMPDEST PUSH2 0x1D7 PUSH2 0x6AC JUMP JUMPDEST PUSH1 0x40 MLOAD PUSH2 0x1E4 SWAP2 SWAP1 PUSH2 0x963 JUMP JUMPDEST PUSH1 0x40 MLOAD DUP1 SWAP2 SUB SWAP1 RETURN JUMPDEST PUSH2 0x207 PUSH1 0x4 DUP1 CALLDATASIZE SUB DUP2 ADD SWAP1 PUSH2 0x202 SWAP2 SWAP1 PUSH2 0xA14 JUMP JUMPDEST PUSH2 0x73C JUMP JUMPDEST PUSH1 0x40 MLOAD PUSH2 0x214 SWAP2 SWAP1 PUSH2 0xA6C JUMP JUMPDEST PUSH1 0x40 MLOAD DUP1 SWAP2 SUB SWAP1 RETURN JUMPDEST PUSH2 0x237 PUSH1 0x4 DUP1 CALLDATASIZE SUB DUP2 ADD SWAP1 PUSH2 0x232 SWAP2 SWAP1 PUSH2 0xB84 JUMP JUMPDEST PUSH2 0x750 JUMP JUMPDEST PUSH1 0x40 MLOAD PUSH2 0x244 SWAP2 SWAP1 PUSH2 0xA94 JUMP JUMPDEST PUSH1 0x40 MLOAD DUP1 SWAP2 SUB SWAP1 RETURN JUMPDEST PUSH1 0x60 PUSH0 DUP1 SLOAD PUSH2 0x25B SWAP1 PUSH2 0xBEF JUMP JUMPDEST DUP1 PUSH1 0x1F ADD PUSH1 0x20 DUP1 SWAP2 DIV MUL PUSH1 0x20 ADD PUSH1 0x40 MLOAD SWAP1 DUP2 ADD PUSH1 0x40 MSTORE DUP1 SWAP3 SWAP2 SWAP1 DUP2 DUP2 MSTORE PUSH1 0x20 ADD DUP3 DUP1 SLOAD PUSH2 0x287 SWAP1 PUSH2 0xBEF JUMP JUMPDEST DUP1 ISZERO PUSH2 0x2D2 JUMPI DUP1 PUSH1 0x1F LT PUSH2 0x2A9 JUMPI PUSH2 0x100 DUP1 DUP4 SLOAD DIV MUL DUP4 MSTORE SWAP2 PUSH1 0x20 ADD SWAP2 PUSH2 0x2D2 JUMP JUMPDEST DUP3 ADD SWAP2 SWAP1 PUSH0 MSTORE PUSH1 0x20 PUSH0 KECCAK256 SWAP1 JUMPDEST DUP2 SLOAD DUP2 MSTORE SWAP1 PUSH1 0x1 ADD SWAP1 PUSH1 0x20 ADD DUP1 DUP4 GT PUSH2 0x2B5 JUMPI DUP3 SWAP1 SUB PUSH1 0x1F AND DUP3 ADD SWAP2 JUMPDEST POP POP POP POP POP SWAP1 POP SWAP1 JUMP JUMPDEST PUSH0 PUSH0 DUP3 EQ DUP1 PUSH2 0x362 JUMPI POP PUSH0 PUSH1 0x5 PUSH0 CALLER PUSH20 0xFFFFFFFFFFFFFFFFFFFFFFFFFFFFFFFFFFFFFFFF AND PUSH20 0xFFFFFFFFFFFFFFFFFFFFFFFFFFFFFFFFFFFFFFFF AND DUP2 MSTORE PUSH1 0x20 ADD SWAP1 DUP2 MSTORE PUSH1 0x20 ADD PUSH0 KECCAK256 PUSH0 DUP6 PUSH20 0xFFFFFFFFFFFFFFFFFFFFFFFFFFFFFFFFFFFFFFFF AND PUSH20 0xFFFFFFFFFFFFFFFFFFFFFFFFFFFFFFFFFFFFFFFF AND DUP2 MSTORE PUSH1 0x20 ADD SWAP1 DUP2 MSTORE PUSH1 0x20 ADD PUSH0 KECCAK256 SLOAD EQ JUMPDEST PUSH2 0x3A1 JUMPI PUSH1 0x40 MLOAD PUSH32 0x8C379A000000000000000000000000000000000000000000000000000000000 DUP2 MSTORE PUSH1 0x4 ADD PUSH2 0x398 SWAP1 PUSH2 0xCB5 JUMP JUMPDEST PUSH1 0x40 MLOAD DUP1 SWAP2 SUB SWAP1 REVERT JUMPDEST DUP2 PUSH1 0x5 PUSH0 CALLER PUSH20 0xFFFFFFFFFFFFFFFFFFFFFFFFFFFFFFFFFFFFFFFF AND PUSH20 0xFFFFFFFFFFFFFFFFFFFFFFFFFFFFFFFFFFFFFFFF AND DUP2 MSTORE PUSH1 0x20 ADD SWAP1 DUP2 MSTORE PUSH1 0x20 ADD PUSH0 KECCAK256 PUSH0 DUP6 PUSH20 0xFFFFFFFFFFFFFFFFFFFFFFFFFFFFFFFFFFFFFFFF AND PUSH20 0xFFFFFFFFFFFFFFFFFFFFFFFFFFFFFFFFFFFFFFFF AND DUP2 MSTORE PUSH1 0x20 ADD SWAP1 DUP2 MSTORE PUSH1 0x20 ADD PUSH0 KECCAK256 DUP2 SWAP1 SSTORE POP PUSH1 0x1 SWAP1 POP SWAP3 SWAP2 POP POP JUMP JUMPDEST PUSH0 PUSH1 0x3 SLOAD SWAP1 POP SWAP1 JUMP JUMPDEST PUSH0 DUP2 PUSH1 0x5 PUSH0 DUP7 PUSH20 0xFFFFFFFFFFFFFFFFFFFFFFFFFFFFFFFFFFFFFFFF AND PUSH20 0xFFFFFFFFFFFFFFFFFFFFFFFFFFFFFFFFFFFFFFFF AND DUP2 MSTORE PUSH1 0x20 ADD SWAP1 DUP2 MSTORE PUSH1 0x20 ADD PUSH0 KECCAK256 PUSH0 CALLER PUSH20 0xFFFFFFFFFFFFFFFFFFFFFFFFFFFFFFFFFFFFFFFF AND PUSH20 0xFFFFFFFFFFFFFFFFFFFFFFFFFFFFFFFFFFFFFFFF AND DUP2 MSTORE PUSH1 0x20 ADD SWAP1 DUP2 MSTORE PUSH1 0x20 ADD PUSH0 KECCAK256 SLOAD LT ISZERO PUSH2 0x4ED JUMPI PUSH1 0x40 MLOAD PUSH32 0x8C379A000000000000000000000000000000000000000000000000000000000 DUP2 MSTORE PUSH1 0x4 ADD PUSH2 0x4E4 SWAP1 PUSH2 0xD43 JUMP JUMPDEST PUSH1 0x40 MLOAD DUP1 SWAP2 SUB SWAP1 REVERT JUMPDEST DUP2 PUSH1 0x5 PUSH0 DUP7 PUSH20 0xFFFFFFFFFFFFFFFFFFFFFFFFFFFFFFFFFFFFFFFF AND PUSH20 0xFFFFFFFFFFFFFFFFFFFFFFFFFFFFFFFFFFFFFFFF AND DUP2 MSTORE PUSH1 0x20 ADD SWAP1 DUP2 MSTORE PUSH1 0x20 ADD PUSH0 KECCAK256 PUSH0 CALLER PUSH20 0xFFFFFFFFFFFFFFFFFFFFFFFFFFFFFFFFFFFFFFFF AND PUSH20 0xFFFFFFFFFFFFFFFFFFFFFFFFFFFFFFFFFFFFFFFF AND DUP2 MSTORE PUSH1 0x20 ADD SWAP1 DUP2 MSTORE PUSH1 0x20 ADD PUSH0 KECCAK256 PUSH0 DUP3 DUP3 SLOAD PUSH2 0x574 SWAP2 SWAP1 PUSH2 0xD8E JUMP JUMPDEST SWAP3 POP POP DUP2 SWAP1 SSTORE POP PUSH2 0x586 DUP5 DUP5 DUP5 PUSH2 0x7D2 JUMP JUMPDEST SWAP1 POP SWAP4 SWAP3 POP POP POP JUMP JUMPDEST PUSH0 PUSH1 0x2 PUSH0 SWAP1 SLOAD SWAP1 PUSH2 0x100 EXP SWAP1 DIV PUSH1 0xFF AND SWAP1 POP SWAP1 JUMP JUMPDEST CALLER PUSH20 0xFFFFFFFFFFFFFFFFFFFFFFFFFFFFFFFFFFFFFFFF AND PUSH1 0x6 PUSH0 SWAP1 SLOAD SWAP1 PUSH2 0x100 EXP SWAP1 DIV PUSH20 0xFFFFFFFFFFFFFFFFFFFFFFFFFFFFFFFFFFFFFFFF AND PUSH20 0xFFFFFFFFFFFFFFFFFFFFFFFFFFFFFFFFFFFFFFFF AND EQ PUSH2 0x633 JUMPI PUSH1 0x40 MLOAD PUSH32 0x8C379A000000000000000000000000000000000000000000000000000000000 DUP2 MSTORE PUSH1 0x4 ADD PUSH2 0x62A SWAP1 PUSH2 0xE0B JUMP JUMPDEST PUSH1 0x40 MLOAD DUP1 SWAP2 SUB SWAP1 REVERT JUMPDEST PUSH2 0x63D DUP3 DUP3 PUSH2 0x884 JUMP JUMPDEST POP POP JUMP JUMPDEST PUSH0 PUSH1 0x4 PUSH0 DUP4 PUSH20 0xFFFFFFFFFFFFFFFFFFFFFFFFFFFFFFFFFFFFFFFF AND PUSH20 0xFFFFFFFFFFFFFFFFFFFFFFFFFFFFFFFFFFFFFFFF AND DUP2 MSTORE PUSH1 0x20 ADD SWAP1 DUP2 MSTORE PUSH1 0x20 ADD PUSH0 KECCAK256 SLOAD SWAP1 POP SWAP2 SWAP1 POP JUMP JUMPDEST PUSH1 0x6 PUSH0 SWAP1 SLOAD SWAP1 PUSH2 0x100 EXP SWAP1 DIV PUSH20 0xFFFFFFFFFFFFFFFFFFFFFFFFFFFFFFFFFFFFFFFF AND DUP2 JUMP JUMPDEST PUSH1 0x60 PUSH1 0x1 DUP1 SLOAD PUSH2 0x6BB SWAP1 PUSH2 0xBEF JUMP JUMPDEST DUP1 PUSH1 0x1F ADD PUSH1 0x20 DUP1 SWAP2 DIV MUL PUSH1 0x20 ADD PUSH1 0x40 MLOAD SWAP1 DUP2 ADD PUSH1 0x40 MSTORE DUP1 SWAP3 SWAP2 SWAP1 DUP2 DUP2 MSTORE PUSH1 0x20 ADD DUP3 DUP1 SLOAD PUSH2 0x6E7 SWAP1 PUSH2 0xBEF JUMP JUMPDEST DUP1 ISZERO PUSH2 0x732 JUMPI DUP1 PUSH1 0x1F LT PUSH2 0x709 JUMPI PUSH2 0x100 DUP1 DUP4 SLOAD DIV MUL DUP4 MSTORE SWAP2 PUSH1 0x20 ADD SWAP2 PUSH2 0x732 JUMP JUMPDEST DUP3 ADD SWAP2 SWAP1 PUSH0 MSTORE PUSH1 0x20 PUSH0 KECCAK256 SWAP1 JUMPDEST DUP2 SLOAD DUP2 MSTORE SWAP1 PUSH1 0x1 ADD SWAP1 PUSH1 0x20 ADD DUP1 DUP4 GT PUSH2 0x715 JUMPI DUP3 SWAP1 SUB PUSH1 0x1F AND DUP3 ADD SWAP2 JUMPDEST POP POP POP POP POP SWAP1 POP SWAP1 JUMP JUMPDEST PUSH0 PUSH2 0x748 CALLER DUP5 DUP5 PUSH2 0x7D2 JUMP JUMPDEST SWAP1 POP SWAP3 SWAP2 POP POP JUMP JUMPDEST PUSH0 PUSH1 0x5 PUSH0 DUP5 PUSH20 0xFFFFFFFFFFFFFFFFFFFFFFFFFFFFFFFFFFFFFFFF AND PUSH20 0xFFFFFFFFFFFFFFFFFFFFFFFFFFFFFFFFFFFFFFFF AND DUP2 MSTORE PUSH1 0x20 ADD SWAP1 DUP2 MSTORE PUSH1 0x20 ADD PUSH0 KECCAK256 PUSH0 DUP4 PUSH20 0xFFFFFFFFFFFFFFFFFFFFFFFFFFFFFFFFFFFFFFFF AND PUSH20 0xFFFFFFFFFFFFFFFFFFFFFFFFFFFFFFFFFFFFFFFF AND DUP2 MSTORE PUSH1 0x20 ADD SWAP1 DUP2 MSTORE PUSH1 0x20 ADD PUSH0 KECCAK256 SLOAD SWAP1 POP SWAP3 SWAP2 POP POP JUMP JUMPDEST PUSH0 DUP2 PUSH1 0x4 PUSH0 DUP7 PUSH20 0xFFFFFFFFFFFFFFFFFFFFFFFFFFFFFFFFFFFFFFFF AND PUSH20 0xFFFFFFFFFFFFFFFFFFFFFFFFFFFFFFFFFFFFFFFF AND DUP2 MSTORE PUSH1 0x20 ADD SWAP1 DUP2 MSTORE PUSH1 0x20 ADD PUSH0 KECCAK256 PUSH0 DUP3 DUP3 SLOAD PUSH2 0x81F SWAP2 SWAP1 PUSH2 0xD8E JUMP JUMPDEST SWAP3 POP POP DUP2 SWAP1 SSTORE POP DUP2 PUSH1 0x4 PUSH0 DUP6 PUSH20 0xFFFFFFFFFFFFFFFFFFFFFFFFFFFFFFFFFFFFFFFF AND PUSH20 0xFFFFFFFFFFFFFFFFFFFFFFFFFFFFFFFFFFFFFFFF AND DUP2 MSTORE PUSH1 0x20 ADD SWAP1 DUP2 MSTORE PUSH1 0x20 ADD PUSH0 KECCAK256 PUSH0 DUP3 DUP3 SLOAD PUSH2 0x872 SWAP2 SWAP1 PUSH2 0xE29 JUMP JUMPDEST SWAP3 POP POP DUP2 SWAP1 SSTORE POP PUSH1 0x1 SWAP1 POP SWAP4 SWAP3 POP POP POP JUMP JUMPDEST DUP1 PUSH1 0x4 PUSH0 DUP5 PUSH20 0xFFFFFFFFFFFFFFFFFFFFFFFFFFFFFFFFFFFFFFFF AND PUSH20 0xFFFFFFFFFFFFFFFFFFFFFFFFFFFFFFFFFFFFFFFF AND DUP2 MSTORE PUSH1 0x20 ADD SWAP1 DUP2 MSTORE PUSH1 0x20 ADD PUSH0 KECCAK256 PUSH0 DUP3 DUP3 SLOAD PUSH2 0x8D0 SWAP2 SWAP1 PUSH2 0xE29 JUMP JUMPDEST SWAP3 POP POP DUP2 SWAP1 SSTORE POP DUP1 PUSH1 0x3 PUSH0 DUP3 DUP3 SLOAD PUSH2 0x8E8 SWAP2 SWAP1 PUSH2 0xE29 JUMP JUMPDEST SWAP3 POP POP DUP2 SWAP1 SSTORE POP POP POP JUMP JUMPDEST PUSH0 DUP2 MLOAD SWAP1 POP SWAP2 SWAP1 POP JUMP JUMPDEST PUSH0 DUP3 DUP3 MSTORE PUSH1 0x20 DUP3 ADD SWAP1 POP SWAP3 SWAP2 POP POP JUMP JUMPDEST DUP3 DUP2 DUP4 MCOPY PUSH0 DUP4 DUP4 ADD MSTORE POP POP POP JUMP JUMPDEST PUSH0 PUSH1 0x1F NOT PUSH1 0x1F DUP4 ADD AND SWAP1 POP SWAP2 SWAP1 POP JUMP JUMPDEST PUSH0 PUSH2 0x935 DUP3 PUSH2 0x8F3 JUMP JUMPDEST PUSH2 0x93F DUP2 DUP6 PUSH2 0x8FD JUMP JUMPDEST SWAP4 POP PUSH2 0x94F DUP2 DUP6 PUSH1 0x20 DUP7 ADD PUSH2 0x90D JUMP JUMPDEST PUSH2 0x958 DUP2 PUSH2 0x91B JUMP JUMPDEST DUP5 ADD SWAP2 POP POP SWAP3 SWAP2 POP POP JUMP JUMPDEST PUSH0 PUSH1 0x20 DUP3 ADD SWAP1 POP DUP2 DUP2 SUB PUSH0 DUP4 ADD MSTORE PUSH2 0x97B DUP2 DUP5 PUSH2 0x92B JUMP JUMPDEST SWAP1 POP SWAP3 SWAP2 POP POP JUMP JUMPDEST PUSH0 PUSH0 REVERT JUMPDEST PUSH0 PUSH20 0xFFFFFFFFFFFFFFFFFFFFFFFFFFFFFFFFFFFFFFFF DUP3 AND SWAP1 POP SWAP2 SWAP1 POP JUMP JUMPDEST PUSH0 PUSH2 0x9B0 DUP3 PUSH2 0x987 JUMP JUMPDEST SWAP1 POP SWAP2 SWAP1 POP JUMP JUMPDEST PUSH2 0x9C0 DUP2 PUSH2 0x9A6 JUMP JUMPDEST DUP2 EQ PUSH2 0x9CA JUMPI PUSH0 PUSH0 REVERT JUMPDEST POP JUMP JUMPDEST PUSH0 DUP2 CALLDATALOAD SWAP1 POP PUSH2 0x9DB DUP2 PUSH2 0x9B7 JUMP JUMPDEST SWAP3 SWAP2 POP POP JUMP JUMPDEST PUSH0 DUP2 SWAP1 POP SWAP2 SWAP1 POP JUMP JUMPDEST PUSH2 0x9F3 DUP2 PUSH2 0x9E1 JUMP JUMPDEST DUP2 EQ PUSH2 0x9FD JUMPI PUSH0 PUSH0 REVERT JUMPDEST POP JUMP JUMPDEST PUSH0 DUP2 CALLDATALOAD SWAP1 POP PUSH2 0xA0E DUP2 PUSH2 0x9EA JUMP JUMPDEST SWAP3 SWAP2 POP POP JUMP JUMPDEST PUSH0 PUSH0 PUSH1 0x40 DUP4 DUP6 SUB SLT ISZERO PUSH2 0xA2A JUMPI PUSH2 0xA29 PUSH2 0x983 JUMP JUMPDEST JUMPDEST PUSH0 PUSH2 0xA37 DUP6 DUP3 DUP7 ADD PUSH2 0x9CD JUMP JUMPDEST SWAP3 POP POP PUSH1 0x20 PUSH2 0xA48 DUP6 DUP3 DUP7 ADD PUSH2 0xA00 JUMP JUMPDEST SWAP2 POP POP SWAP3 POP SWAP3 SWAP1 POP JUMP JUMPDEST PUSH0 DUP2 ISZERO ISZERO SWAP1 POP SWAP2 SWAP1 POP JUMP JUMPDEST PUSH2 0xA66 DUP2 PUSH2 0xA52 JUMP JUMPDEST DUP3 MSTORE POP POP JUMP JUMPDEST PUSH0 PUSH1 0x20 DUP3 ADD SWAP1 POP PUSH2 0xA7F PUSH0 DUP4 ADD DUP5 PUSH2 0xA5D JUMP JUMPDEST SWAP3 SWAP2 POP POP JUMP JUMPDEST PUSH2 0xA8E DUP2 PUSH2 0x9E1 JUMP JUMPDEST DUP3 MSTORE POP POP JUMP JUMPDEST PUSH0 PUSH1 0x20 DUP3 ADD SWAP1 POP PUSH2 0xAA7 PUSH0 DUP4 ADD DUP5 PUSH2 0xA85 JUMP JUMPDEST SWAP3 SWAP2 POP POP JUMP JUMPDEST PUSH0 PUSH0 PUSH0 PUSH1 0x60 DUP5 DUP7 SUB SLT ISZERO PUSH2 0xAC4 JUMPI PUSH2 0xAC3 PUSH2 0x983 JUMP JUMPDEST JUMPDEST PUSH0 PUSH2 0xAD1 DUP7 DUP3 DUP8 ADD PUSH2 0x9CD JUMP JUMPDEST SWAP4 POP POP PUSH1 0x20 PUSH2 0xAE2 DUP7 DUP3 DUP8 ADD PUSH2 0x9CD JUMP JUMPDEST SWAP3 POP POP PUSH1 0x40 PUSH2 0xAF3 DUP7 DUP3 DUP8 ADD PUSH2 0xA00 JUMP JUMPDEST SWAP2 POP POP SWAP3 POP SWAP3 POP SWAP3 JUMP JUMPDEST PUSH0 PUSH1 0xFF DUP3 AND SWAP1 POP SWAP2 SWAP1 POP JUMP JUMPDEST PUSH2 0xB12 DUP2 PUSH2 0xAFD JUMP JUMPDEST DUP3 MSTORE POP POP JUMP JUMPDEST PUSH0 PUSH1 0x20 DUP3 ADD SWAP1 POP PUSH2 0xB2B PUSH0 DUP4 ADD DUP5 PUSH2 0xB09 JUMP JUMPDEST SWAP3 SWAP2 POP POP JUMP JUMPDEST PUSH0 PUSH1 0x20 DUP3 DUP5 SUB SLT ISZERO PUSH2 0xB46 JUMPI PUSH2 0xB45 PUSH2 0x983 JUMP JUMPDEST JUMPDEST PUSH0 PUSH2 0xB53 DUP5 DUP3 DUP6 ADD PUSH2 0x9CD JUMP JUMPDEST SWAP2 POP POP SWAP3 SWAP2 POP POP JUMP JUMPDEST PUSH2 0xB65 DUP2 PUSH2 0x9A6 JUMP JUMPDEST DUP3 MSTORE POP POP JUMP JUMPDEST PUSH0 PUSH1 0x20 DUP3 ADD SWAP1 POP PUSH2 0xB7E PUSH0 DUP4 ADD DUP5 PUSH2 0xB5C JUMP JUMPDEST SWAP3 SWAP2 POP POP JUMP JUMPDEST PUSH0 PUSH0 PUSH1 0x40 DUP4 DUP6 SUB SLT ISZERO PUSH2 0xB9A JUMPI PUSH2 0xB99 PUSH2 0x983 JUMP JUMPDEST JUMPDEST PUSH0 PUSH2 0xBA7 DUP6 DUP3 DUP7 ADD PUSH2 0x9CD JUMP JUMPDEST SWAP3 POP POP PUSH1 0x20 PUSH2 0xBB8 DUP6 DUP3 DUP7 ADD PUSH2 0x9CD JUMP JUMPDEST SWAP2 POP POP SWAP3 POP SWAP3 SWAP1 POP JUMP JUMPDEST PUSH32 0x4E487B7100000000000000000000000000000000000000000000000000000000 PUSH0 MSTORE PUSH1 0x22 PUSH1 0x4 MSTORE PUSH1 0x24 PUSH0 REVERT JUMPDEST PUSH0 PUSH1 0x2 DUP3 DIV SWAP1 POP PUSH1 0x1 DUP3 AND DUP1 PUSH2 0xC06 JUMPI PUSH1 0x7F DUP3 AND SWAP2 POP JUMPDEST PUSH1 0x20 DUP3 LT DUP2 SUB PUSH2 0xC19 JUMPI PUSH2 0xC18 PUSH2 0xBC2 JUMP JUMPDEST JUMPDEST POP SWAP2 SWAP1 POP JUMP JUMPDEST PUSH32 0x4D7573742073657420616C6C6F77616E636520746F2030206265666F72652063 PUSH0 DUP3 ADD MSTORE PUSH32 0x68616E67696E6720697420746F2061206E65772076616C756520287365652045 PUSH1 0x20 DUP3 ADD MSTORE PUSH32 0x52433230207261636520636F6E646974696F6E207761726E696E672900000000 PUSH1 0x40 DUP3 ADD MSTORE POP JUMP JUMPDEST PUSH0 PUSH2 0xC9F PUSH1 0x5C DUP4 PUSH2 0x8FD JUMP JUMPDEST SWAP2 POP PUSH2 0xCAA DUP3 PUSH2 0xC1F JUMP JUMPDEST PUSH1 0x60 DUP3 ADD SWAP1 POP SWAP2 SWAP1 POP JUMP JUMPDEST PUSH0 PUSH1 0x20 DUP3 ADD SWAP1 POP DUP2 DUP2 SUB PUSH0 DUP4 ADD MSTORE PUSH2 0xCCC DUP2 PUSH2 0xC93 JUMP JUMPDEST SWAP1 POP SWAP2 SWAP1 POP JUMP JUMPDEST PUSH32 0x45524332303A207472616E7366657220616D6F756E7420657863656564732061 PUSH0 DUP3 ADD MSTORE PUSH32 0x6C6C6F77616E6365000000000000000000000000000000000000000000000000 PUSH1 0x20 DUP3 ADD MSTORE POP JUMP JUMPDEST PUSH0 PUSH2 0xD2D PUSH1 0x28 DUP4 PUSH2 0x8FD JUMP JUMPDEST SWAP2 POP PUSH2 0xD38 DUP3 PUSH2 0xCD3 JUMP JUMPDEST PUSH1 0x40 DUP3 ADD SWAP1 POP SWAP2 SWAP1 POP JUMP JUMPDEST PUSH0 PUSH1 0x20 DUP3 ADD SWAP1 POP DUP2 DUP2 SUB PUSH0 DUP4 ADD MSTORE PUSH2 0xD5A DUP2 PUSH2 0xD21 JUMP JUMPDEST SWAP1 POP SWAP2 SWAP1 POP JUMP JUMPDEST PUSH32 0x4E487B7100000000000000000000000000000000000000000000000000000000 PUSH0 MSTORE PUSH1 0x11 PUSH1 0x4 MSTORE PUSH1 0x24 PUSH0 REVERT JUMPDEST PUSH0 PUSH2 0xD98 DUP3 PUSH2 0x9E1 JUMP JUMPDEST SWAP2 POP PUSH2 0xDA3 DUP4 PUSH2 0x9E1 JUMP JUMPDEST SWAP3 POP DUP3 DUP3 SUB SWAP1 POP DUP2 DUP2 GT ISZERO PUSH2 0xDBB JUMPI PUSH2 0xDBA PUSH2 0xD61 JUMP JUMPDEST JUMPDEST SWAP3 SWAP2 POP POP JUMP JUMPDEST PUSH32 0x6E6F7420746865206F776E657200000000000000000000000000000000000000 PUSH0 DUP3 ADD MSTORE POP JUMP JUMPDEST PUSH0 PUSH2 0xDF5 PUSH1 0xD DUP4 PUSH2 0x8FD JUMP JUMPDEST SWAP2 POP PUSH2 0xE00 DUP3 PUSH2 0xDC1 JUMP JUMPDEST PUSH1 0x20 DUP3 ADD SWAP1 POP SWAP2 SWAP1 POP JUMP JUMPDEST PUSH0 PUSH1 0x20 DUP3 ADD SWAP1 POP DUP2 DUP2 SUB PUSH0 DUP4 ADD MSTORE PUSH2 0xE22 DUP2 PUSH2 0xDE9 JUMP JUMPDEST SWAP1 POP SWAP2 SWAP1 POP JUMP JUMPDEST PUSH0 PUSH2 0xE33 DUP3 PUSH2 0x9E1 JUMP JUMPDEST SWAP2 POP PUSH2 0xE3E DUP4 PUSH2 0x9E1 JUMP JUMPDEST SWAP3 POP DUP3 DUP3 ADD SWAP1 POP DUP1 DUP3 GT ISZERO PUSH2 0xE56 JUMPI PUSH2 0xE55 PUSH2 0xD61 JUMP JUMPDEST JUMPDEST SWAP3 SWAP2 POP POP JUMP INVALID LOG2 PUSH5 0x6970667358 0x22 SLT KECCAK256 PUSH27 0xEC251A0D9944B8D776E356228B0630C36ABCF43487F4F349DC813C JUMPI RETURNDATACOPY SIGNEXTEND DUP8 PUSH5 0x736F6C6343 STOP ADDMOD 0x1E STOP CALLER "
				},
				"gasEstimates": {
					"creation": {
						"codeDepositCost": "746000",
						"executionCost": "infinite",
						"totalCost": "infinite"
					},
					"external": {
						"allowance(address,address)": "infinite",
						"approve(address,uint256)": "25453",
						"balanceOf(address)": "2851",
						"decimals()": "2562",
						"mint(address,uint256)": "infinite",
						"name()": "infinite",
						"owner()": "2552",
						"symbol()": "infinite",
						"totalSupply()": "2477",
						"transfer(address,uint256)": "infinite",
						"transferFrom(address,address,uint256)": "infinite"
					}
				},
				"methodIdentifiers": {
					"allowance(address,address)": "dd62ed3e",
					"approve(address,uint256)": "095ea7b3",
					"balanceOf(address)": "70a08231",
					"decimals()": "313ce567",
					"mint(address,uint256)": "40c10f19",
					"name()": "06fdde03",
					"owner()": "8da5cb5b",
					"symbol()": "95d89b41",
					"totalSupply()": "18160ddd",
					"transfer(address,uint256)": "a9059cbb",
					"transferFrom(address,address,uint256)": "23b872dd"
				}
			},
			"storageLayout": {
				"storage": [
					{
						"astId": 6,
						"contract": "Token.sol:Token",
						"label": "_name",
						"offset": 0,
						"slot": "0",
						"type": "t_string_storage"
					},
					{
						"astId": 8,
						"contract": "Token.sol:Token",
						"label": "_symbol",
						"offset": 0,
						"slot": "1",
						"type": "t_string_storage"
					},
					{
						"astId": 10,
						"contract": "Token.sol:Token",
						"label": "_decimals",
						"offset": 0,
						"slot": "2",
						"type": "t_uint8"
					},
					{
						"astId": 12,
						"contract": "Token.sol:Token",
						"label": "_totalSupply",
						"offset": 0,
						"slot": "3",
						"type": "t_uint256"
					},
					{
						"astId": 16,
						"contract": "Token.sol:Token",
						"label": "_balanceOf",
						"offset": 0,
						"slot": "4",
						"type": "t_mapping(t_address,t_uint256)"
					},
					{
						"astId": 22,
						"contract": "Token.sol:Token",
						"label": "_allowance",
						"offset": 0,
						"slot": "5",
						"type": "t_mapping(t_address,t_mapping(t_address,t_uint256))"
					},
					{
						"astId": 331,
						"contract": "Token.sol:Token",
						"label": "owner",
						"offset": 0,
						"slot": "6",
						"type": "t_address"
					}
				],
				"types": {
					"t_address": {
						"encoding": "inplace",
						"label": "address",
						"numberOfBytes": "20"
					},
					"t_mapping(t_address,t_mapping(t_address,t_uint256))": {
						"encoding": "mapping",
						"key": "t_address",
						"label": "mapping(address => mapping(address => uint256))",
						"numberOfBytes": "32",
						"value": "t_mapping(t_address,t_uint256)"
					},
					"t_mapping(t_address,t_uint256)": {
						"encoding": "mapping",
						"key": "t_address",
						"label": "mapping(address => uint256)",
						"numberOfBytes": "32",
						"value": "t_uint256"
					},
					"t_string_storage": {
						"encoding": "bytes",
						"label": "string",
						"numberOfBytes": "32"
					},
					"t_uint256": {
						"encoding": "inplace",
						"label": "uint256",
						"numberOfBytes": "32"
					},
					"t_uint8": {
						"encoding": "inplace",
						"label": "uint8",
						"numberOfBytes": "1"
					}
				}
			},
			"userdoc": {
				"kind": "user",
				"methods": {},
				"version": 1
			}
		}
	}
}